:020000040000FA
:1040000000300A408D41000035480000D5400000D6
:104010003548000035480000354800000000000029
:10402000000000000000000000000000614A0000E5
:10403000AF41000000000000294A00006D4A000066
:1040400091F70100C9F70100C1F90100B541000075
:10405000D1F90100E1F90100F1F90100B5410000D9
:10406000B541000001FA0100B5410000B541000072
:10407000B5410000B541000011FA010021FA01002C
:1040800031FA010041FA010051FA010061FA010020
:10409000B5410000B5410000B5410000B541000048
:1040A000B5410000B541000075FA0100B5410000BE
:1040B0000100092400600200DFF80CD000F0F6FADD
:1040C0000048004741EB010000300A4030B580470E
:1040D00030BD00BF1EF0040F0CBFEFF30880EFF3FC
:1040E0000980816940F2AD02C0F20202104700006F
:1040F0002DE9FF5FEFF31080EFF31181EFF31282F0
:10410000EFF313830FB440F63830C2F200001A49BF
:104110000160EFF30881EFF30982EFF31483EFF30B
:10412000038441608260C36004611448016841F007
:104130000101016044F6206000BF401EFCD1104820
:1041400041688268C368046981F3088882F309883A
:1041500083F3148884F30388BFF34F8FBFF36F8F0B
:104160000FBC80F3108881F3118882F3128883F3E7
:104170001388BDE8FF5F70473F410000040309401A
:10418000380B002040BA7047C0BA70470A4801682F
:1041900011F0010F1CBF21F00101016002D007489E
:1041A0000068004706480047FEE7FEE7FEE7FEE737
:1041B000FEE7FEE7FEE7000064010440380B002044
:1041C000B94000002DE9F05F0546002092469B466D
:1041D00088460646814640241BE02846414647461D
:1041E000224600F09EF853465A46C01A914110D319
:1041F00011461846224600F085F82D1A67EB010893
:104200004F4622460120002100F07CF817EB000900
:104210004E41201EA4F10104DFDC484631462A4607
:104220004346BDE8F09F00000649074A086850432E
:1042300043F23902104408604008704701490860A1
:1042400070470000D40300206D4EC64110B5431ADC
:10425000934209D28318881803E010F8011D03F86F
:10426000011D521EF9D210BD40EA01039B0703D085
:1042700009E008C9121F08C0042AFAD203E011F8A5
:10428000013B00F8013B521EF9D210BDD2B201E051
:1042900000F8012B491EFBD270470022F6E710B54B
:1042A00013460A4604461946FFF7F0FF204610BDA4
:1042B000421C10F8011B0029FBD1801A704730B551
:1042C00004460020034600E05B1C934203D2E05CFE
:1042D000CD5C401BF8D030BD30B50B460146002008
:1042E0002022012409E021FA02F59D4205D303FAB8
:1042F00002F5491B04FA02F52844151EA2F1010239
:10430000F1DC30BD202A04DB203A00FA02F1002063
:1043100070479140C2F1200320FA03F31943904003
:104320007047202A04DB203A21FA02F0002170476E
:1043300021FA02F3D040C2F120029140084319460D
:1043400070472DE9FE4F804681EA0300C00F0C46FE
:10435000009021F0004123F00045B8EB0200A94194
:1043600005D24046214690461C460B46024623F0A5
:104370000040104304D14046214603B0BDE8F08F11
:10438000270DC7F30A00C3F30A510290401A0190A7
:10439000402866DAC3F3130040F4801B009892466D
:1043A00020B10023D2EB030A63EB0B0B01985946B3
:1043B000C0F140025046FFF7A5FF06460D465046A5
:1043C0005946019A00F084F910EB0800614100247D
:1043D00087EA115284EAE7731A433BD0009A3AB352
:1043E000019A012A4FEA075210DC001B61EB02011F
:1043F0004FF0004202EA0752CDE90042001C41F5AD
:10440000801132462B4600F082F9B6E7001B61EBC3
:104410000201001C41F5801300185B412018A2F531
:10442000001747EB030140EAD570B6196D4111E062
:104430006D084FEA360645EAC0754FEA0752001B81
:1044400061EB0201001C41F5801149084FEA300080
:104450000019514132462B4603B0BDE8F04F00F041
:1044600049B90098012240000023D0EB020263EB1F
:10447000E073009821464FEAE074B8EB000061EB6E
:104480000401E9E783F000435BE781F0004158E76E
:104490002DE9FE4F81EA030404F0004421F00041BD
:1044A00000944FF0000B23F0004350EA010402D0C7
:1044B00052EA030404D10020014603B0BDE8F08FA6
:1044C000C3F30A54C1F30A552C44A4F2F334019403
:1044D000A0FB0254C1F3130141F48011C3F3130391
:1044E00043F4801301FB024400FB034E840A970A45
:1044F00044EA815447EA8357A4FB076802958D0A72
:1045000005FB07854FEA932C04FB0C542705029DFD
:104510004FEA065847EA1637B5EB08056EEB070C6D
:10452000870E920E47EA811742EA8312A7FB020127
:10453000B6EB0B0164EB00042B0D43EA0C335E1861
:1045400044EB1C50DA465146E7FB0201C5F3130465
:104550004FEA0B3343EA14534FEA0432019C43EA17
:104560000603A4F10C040294009CCDE900B400F011
:10457000CEF8A2E72DE9F04D81EA030404F0004BE8
:1045800021F0004514464FF0000A23F0004150EAA4
:10459000050220D054EA01021DD0C5F30A57024695
:1045A000C5F31303C1F31300C1F30A5640F4801599
:1045B00043F48013A7EB0608101BD64608F2FD381B
:1045C00073EB050002D308F1010801E092185B418A
:1045D000B8F1000F03DA00200146BDE8F08D00209D
:1045E0004FF48011064684460EE0171B73EB050757
:1045F00005D3121B63EB050306434CEA010C490883
:104600004FEA300092185B4150EA0107EDD152EABF
:10461000030012D082EA040083EA0501084303D1B3
:1046200000224FF0004308E0101BAB4102D20122F0
:10463000002302E06FF0010253101AEB06004CEB6E
:10464000085110EB0A0041EB0B01BDE8F04D00F002
:1046500051B8C1F30A52C1F3130140F2FF3341F4E0
:1046600080119A4202DA00200146704740F233433B
:104670009A42A2F2334202DC5242FFF752BEFFF7E7
:1046800041BE000030B5002904DB4FF00044404239
:1046900064EB0101002B04DB4FF00044524264EB59
:1046A0000303994208BF904230BD0000064C074DFD
:1046B00006E0E06840F0010394E8070098471034F2
:1046C000AC42F6D3FFF7FCFCEC5202000C530200A4
:1046D000202A06DBCB17203A41FA02F043EAE073C6
:1046E00006E041FA02F3D040C2F1200291400843B3
:1046F0001946704710B5002B08DA401C41F1000143
:1047000092185B411A4301D120F0010010BD2DE940
:10471000F04D92469B4611B1B1FA81F202E0B0FA37
:1047200080F220329046FFF7EDFD04460F4640EA46
:104730000A0041EA0B0153465A46084303D120467A
:104740003946BDE8F08D114653EA010015D0C8F195
:1047500040025046FFF7E5FD05460E4650465946D5
:104760004246FFF7CFFD084301D0012000E00020C2
:10477000054346EAE0762C4337430A984FEA445310
:10478000A0EB08004FEAD4240A304FF0000244EABC
:1047900047544FEAD72502D500200146D1E701054D
:1047A00010196941DDE9084500196941BDE8F04D7E
:1047B000A0E770B501EB020410F8015B15F00703E8
:1047C00001D110F8013B2A1106D110F8012B03E0AA
:1047D00010F8016B01F8016B5B1EF9D12B0705D4B2
:1047E0000023521E0FD401F8013BFAE710F8013BF9
:1047F00002F10202A1EB030303E013F8015B01F8ED
:10480000015B521EF9D5A142D6D3002070BD000035
:104810001BF0BAFA054C064D2068416A28688847A3
:104820000028F9D11BF058FAF6E700000400002038
:1048300010000020044800680122C0F30801891E0E
:10484000092006F03DBC000004ED00E004480068CB
:10485000C00503D103484068406B00477047000023
:1048600004ED00E00000002004480068C00503D10A
:1048700003484068806B00477047000004ED00E08B
:104880000000002010B5C368D9B280290FD9846810
:10489000E06800B101204B2213A100F079FEE1682D
:1048A00019B12069BDE81040084772B6FEE704461A
:1048B000008A616982B2D8B2124B1B68984705F032
:1048C000B3FF00280FD1E068022806D004280AD1DF
:1048D000A069BDE8104005F0A1BFA08BA169BDE8AB
:1048E000104005F099BF10BD4863695F696E74653B
:1048F000726E616C5F7472616E73706F72742E632E
:10490000000000003C0100201FB541680A2914D0B6
:1049100007DC09B1052923D104B0BDE81040FFF739
:10492000B1BF0B291DD00C291AD1018AC268406978
:1049300004B089B2BDE8104010470E4991E81C0050
:10494000C968CDE90023CDE90241C16801914169FF
:104950000291008AADF80C001021684605F09AFD1E
:104960001FBD018A8AB24169C06804B0BDE8104029
:1049700007F04CBCEC3E0200074A131D5980116839
:1049800060F307011160106840F400701060106857
:104990008005FCD4704700000804094000F01F02A5
:1049A0000121914040094FF0E02202EB8000C0F865
:1049B0008012704700F01F020121914040094FF022
:1049C000E02202EB8000C0F8001170474907090E91
:1049D000002803DA00F00F00024A00E0024A815486
:1049E0007047000014ED00E000E400E0024A1140CE
:1049F000014302480160704780FFFF1F08ED00E09F
:104A000000B589B0816803910021CDE90110044807
:104A100069460068826903480068904709B000BD94
:104A2000040000201400002001484068806C00470A
:104A300000000020014800F003B8000068010440B5
:104A4000014608680A688242FBD10A688242F8D1AE
:104A5000704700000149487270470000D0000020F4
:104A600001484068406C0047000000200148406851
:104A7000006C0047000000200FB4054B10B503A9DF
:104A8000044A029800F0EAF810BC5DF814FB00003C
:104A900089710000D80300200FB4084B10B504A999
:104AA00002AA039800F0DAF8044602A9002000F0F8
:104AB00078FC204610BC5DF814FB0000A3530000F6
:104AC000014B024A00F0CAB889710000D8030020E7
:104AD000704770477047704770477047704770471E
:104AE00002E008C8121F08C1002AFAD170477047B7
:104AF000002001E001C1121F002AFBD17047000015
:104B00002DE9FF5FDDE90220010DDDF838B0024339
:104B100010D10F9801244CA2012808D00021009840
:104B20000F9BC0E90021C0E90243BDE8FF9F6FEA87
:104B30000B01F4E7A1F2FF3144F6105041430D148C
:104B40000F9801280ED0A5EB0B00401C4FF000047D
:104B50003E4EDFF8FC90B0F1000AA04605DACAF13B
:104B6000000717E0CBF10000F0E7074612E0F80776
:104B700007D02246334640464946FFF789FC804627
:104B800089462246334610461946FFF781FC044603
:104B90000E467F10002FEAD1DDE90201BAF1000FC5
:104BA00042464B4602DAFFF773FC01E0FFF7E2FCF6
:104BB00004460E460022274BFFF764FD03D84FF052
:104BC000FF30014607E00022234B20463146FFF725
:104BD000B8FBFFF73EFD102409E0002C0ADB0A2297
:104BE0000023FFF7EFFA019B30321A55641E50EA9A
:104BF0000102F2D1641C019AC4F1110314440F9A0A
:104C0000012A09D00122084301D15B450FDD4FF095
:104C1000000205F101050DE0084303D1A3EB0B05EC
:104C20006D1E09E000204FF0110B0F9088E701DAAC
:104C300000226D1E002A83D000980F99C0E902312E
:104C4000C0E9004571E7000030000000000024408A
:104C50000000F03F0000F0430000E03F2DE9FF4F6F
:104C600095B09B4689460646002512E2252878D154
:104C70000024761CF94A2746012105943378203B0D
:104C800001FA03F0104202D00443761CF6E73078B4
:104C90002A2811D06FF02F033078A0F13002092AB2
:104CA00016D8059A44F0020402EB820203EB42029A
:104CB0001044761C0590EFE759F8042B0592002A62
:104CC00003DA504244F40054059044F00204761C88
:104CD00030782E2816D116F8010F44F004042A2843
:104CE0000DD06FF02F023078A0F13003092B09D8D6
:104CF00007EB870302EB4303C718761CF3E759F869
:104D0000047B761C30786C280FD006DC4C2817D03A
:104D100068280DD06A2814D104E0742810D07A28AD
:104D20000FD10DE044F400140AE044F4801401E0D3
:104D300044F440147278824202D1761C04F5801447
:104D4000761C307866280BD013DC582877D009DC25
:104D5000002875D04528F6D04628F4D047281AD127
:104D60009FE118E0632835D0642879D0652812D1F6
:104D700097E1702873D008DC6728F1D069286FD0DC
:104D80006E280DD06F2806D1B5E073282CD0752879
:104D900075D0782874D05A46179990476D1C76E1E3
:104DA000C4F30250022809D003280DD0D9F800100E
:104DB00004280DD00D6009F1040968E1D9F800104C
:104DC000EA17C1E90052F6E7D9F800100D80F2E7C2
:104DD0000D70F0E719F8041B8DF8001000208DF815
:104DE0000100EA46012003E059F804AB4FF0FF3020
:104DF00061074FF0000102D40DE008F1010188467F
:104E0000B9420FDA8045F8DB1AF808100029F4D10E
:104E100008E008F1010188468142FADB1AF808101F
:104E20000029F6D105985B46A0EB080721463846D5
:104E3000179A00F09EFA284400EB080507E04DE0C1
:104E40002BE10DE01AF8010B5A4617999047B8F17B
:104E50000108F7D25B4621463846179A14E142E032
:104E60000A220092C4F302524FF0000A022A08D02C
:104E700059F804CB032A4FEAEC710AD00DE029E07F
:104E80002AE009F1070121F00702F2E802C1914688
:104E900009E00FFA8CFC4FEAEC71042A03D14FFAB7
:104EA0008CFC4FEAEC71002907DA0A460021DCF19C
:104EB000000C61EB02012D2202E0220504D52B2219
:104EC0008DF80420012203E0E20701D02022F7E759
:104ED000904653E00A2102E010220DE010214FF02D
:104EE000000A00910BE010224FF0000A44F0040485
:104EF0000827009203E008224FF0000A0092C4F352
:104F00000252022A05D059F804CB0021032A08D006
:104F100009E009F1070121F00702F2E802C1914618
:104F200005E01FFA8CFC042A01D10CF0FF0C4FF0B5
:104F30000008220722D5702827D0009B83F0100399
:104F400053EA0A0309D15CEA010206D030228DF847
:104F500004208DF8050002229046009B83F0080390
:104F600053EA0A030AD15CEA010201D1620705D5BE
:104F700030228DF804204FF001087F1E582809D0F8
:104F800037A003900EA8029013E040228DF8042071
:104F90000122E1E737A0F4E753466046009AFFF7A5
:104FA00011F984460398825C0298A0F101000290F6
:104FB00002705CEA0100EFD1029806A9A1EB0000A3
:104FC00000F1200A600702D524F4803400E00127B4
:104FD000574502DDA7EB0A0000E0002000EB0A01C4
:104FE000009005984144A0EB01000590E00306D431
:104FF0005B462146179A059800F0BBF90544002747
:1050000006E001A85A46C05D179990476D1C7F1CA9
:105010004745F6DBE0030CD55B462146179A059819
:1050200000F0A7F9054404E030205A46179990474C
:105030006D1C0099481E00900029F5DC08E00298DC
:1050400002995A460078491C0291179990476D1CA5
:10505000BAF10001AAF1010AF1DC6BE109280100B3
:1050600030313233343536373839616263646566DE
:1050700000000000303132333435363738394142A0
:10508000434445460000000000F060F9054406F185
:105090000106307800287FF4E9AD19B02846BDE854
:1050A000F08F620700D4062709F1070222F0070CEF
:1050B000FCE80223E14603F000485FEA080C02D056
:1050C0000FF27C2C0DE05FEA045C02D50FF2742C29
:1050D00007E05FEAC47C02D00FF26C2C01E0AFF273
:1050E000700C4FF0FF3823F00043CDF850C0652816
:1050F0000CD006DC452809D046281DD047283ED1D3
:105100003EE0662818D0672839D139E00021112FF8
:1051100001DB112000E0781CCDE9000106A90EA8F2
:10512000FFF7EEFCDDE90F010E9A039100210092DA
:1051300007F1010A04914EE04FF000400097CDE9DD
:10514000011006A90EA8FFF7DBFCDDE90F020392B0
:105150000E9B11990022DDF80CA00093049219B95E
:1051600007F1010100EB010AB7EB0A0004D4C0F11A
:10517000FF3007F1010A0490AAEB0700019046E016
:10518000012F00DA01270021112F01DD112000E09D
:105190003846CDE9000106A90EA8FFF7B1FCDDE90C
:1051A0000F010E9A0391002104910092BA46210743
:1051B0000CD40399514500DA8A46BAF1010F05DD96
:1051C000009AAAF10101515C302908D0B84202DAF4
:1051D00010F1040F06DA0121CDE9011017E0AAF160
:1051E0000101E9E7002805DC049901440491AAEBD8
:1051F000000102E0411C514500DD8A460499A0EB04
:10520000010000F1010001904FF0004002902007E2
:1052100004D40198504501DBCDF8048000208DF8BE
:105220004F0002980DF14F07B0F1004F25D02B2011
:105230000E9002984FF0020800280CDA40420290CB
:105240002D200E9007E00A210298FFF745F8303133
:10525000029007F8011DB8F10001A8F10108F2DC85
:1052600002980028EFD1791E0E980870307800F06F
:10527000200040F0450007F8020D12A8A0EB07003F
:1052800000F107081498007800B1012000EB0A0132
:10529000019801EBE07105984144A0EB0100A0F1F9
:1052A00001000590E00306D45B462146179A059855
:1052B00000F05FF805441498007820B15A46179919
:1052C000904705F10105E00323D55B462146179A77
:1052D000059800F04EF805441BE00498002807DB11
:1052E000DDE90301884203DD0098405C179901E085
:1052F000179930205A46904704986D1C401C049022
:105300000198401E019004D12E205A4617999047CB
:105310006D1CBAF10001AAF1010ADEDC05E017F804
:10532000010B5A46179990476D1CB8F10001A8F17E
:105330000108F4DC5B462146179A0598A4E60000B4
:105340002D0000002B000000200000002DE9F0419E
:10535000044600251E461746880405D406E0394653
:105360002020B04705F10105641EF8D52846BDE8A8
:10537000F0812DE9F041044600251E469046C80301
:1053800001D5302700E02027880405D506E04146F6
:105390003846B04705F10105641EF8D52846BDE83A
:1053A000F0810A68531C0B60107070472DE9F05FA4
:1053B000064600880B46C0F30B00834604F0D8FF76
:1053C0000400707875884FEA10170AD005F10408B8
:1053D000984509D02A1DBDE8F05F19463548FFF70A
:1053E0007BBB594634A01EE001F050F907F00301E1
:1053F000002740F2031A6063012903D002292CD050
:105400003CA010E0A08F60B14119B1F5827F0ED3AE
:1054100028485B4652465C30FFF75EFBA787BDE835
:10542000F09F594643A0BDE8F05FFFF755BBA16B65
:105430002A4608440E30311DFEF708FFA08F28448D
:1054400081B2A187E08F083081422FD3A06B0E304C
:1054500004F0FAFFE787A78728E0A08F28B1154856
:105460005946B030FFF738FBA787B788381D81460B
:10547000854205D31FFA88F1304604F0E5FF15E0B8
:10548000FF2D07D95B465246291DBDE8F05F38481D
:10549000FFF722BBA06B2A1D0E303146FEF7D6FE69
:1054A000A4F83C80E787A16BA1F81090BDE8F05FFD
:1054B00005F000BBB43B02006863692E633A2061CB
:1054C000636C5F68616E646C65722063616C6C65AF
:1054D000642077697468206E6F6E2D7265676973DA
:1054E00074657265642068616E646C652025752141
:1054F000000000006863692E633A2061636C5F6896
:10550000616E646C65722063616C6C6564207769A0
:10551000746820696E76616C6964207061636B6584
:105520007420626F756E6461727920666C61677356
:105530002025750041434C20436F6E7420467261F4
:10554000676D656E7420627574206E6F2066697277
:10555000737420667261676D656E7420666F722069
:1055600068616E646C652030782530327800000008
:10557000B83C020010B505494FF6FF7302E084788D
:105580008C54C01C02889A42F9D110BD00000A4018
:1055900010B50B46002803D11146184608F094F8C0
:1055A00010BD70471CB506498C68002C07D000213F
:1055B00000910191B0F806010B460322A0471CBDE3
:1055C0003000002070B50D46002821D1082D1FD2D3
:1055D000104C4FF4947654F8250020B9304600F072
:1055E00099FF44F82500040012D031462046FEF70A
:1055F00054FEA4F8065104F58071284602F04FFECF
:1056000006F002FEA4F802014FF0FF30A4F80801F2
:1056100070BD000028040020F8B51646028A069FD7
:10562000A2EB010294B2C288D2050AD50A4A556893
:105630003DB1009300890A46014633463846A847E3
:10564000F8BD9C4200D91C464069224601443046C0
:10565000FEF7FCFD2046F8BD30000020042105F0D7
:10566000DDBE042106F0E0BE0249086004210248C4
:1056700006F050BE3C000020D95B000002494860A3
:105680000421024806F046BE3C000020D95B000021
:10569000042105F0C3BE042106F0C6BE00B58BB0E0
:1056A000D0F82401009023E0684600F031FABDF8FC
:1056B000081000291ED0BDF806200FA0FFF708FA39
:1056C000BDF806008005039808D506A91AF0C8FDA4
:1056D00006A81EF017F8014611A001E0018811A0EC
:1056E000FFF7F6F9BDF8101010A0FFF7F1F90098D8
:1056F0000028D9D10BB000BD48616E646C653A20BA
:105700003078253034782C20666C6167733A20300D
:1057100078253034782C20757569643A20000000B3
:105720002573000025303478000000002C207661BD
:105730006C75655F6C656E3A2025752C2076616C02
:1057400075653A2000000000064A30B41468002C49
:1057500006D00B46A4460246002130BC0420604718
:1057600030BC7047440000207CB51446042819D191
:1057700020783E283FD016DC052853D0082801D0D9
:1057800030280FD1B2F80350284600F0CBF80400BF
:1057900008D028461BF00BFC04F8FD0F28461BF030
:1057A000BDF860707CBDD72859D0D82848D0DA28F9
:1057B000F8D1608800F0B6F80500F3D0B5F806011E
:1057C00004F0D6FD0600EDD02079317A8842E9D187
:1057D0006946601D1AF056FD062231466846FEF7FE
:1057E0006EFD0028DED1E07A85F8FF00B5F80601ED
:1057F000FFF751FF7CBDA078012801D00A28F9D11C
:10580000D41C9188D078FFF7DDFEB4F8010000F0D9
:1058100089F80500EED0B4F801001CF031F8A5F8C5
:1058200008017CBDB2F80340204600F07BF8002858
:10583000F7D000F075FE1049002041F824007CBD2F
:10584000608800F06FF80500F9D0B4F80B0001B2E1
:10585000A5F8081109A0FFF73CF9284608E0508890
:1058600000F060F80028EAD04FF0FF31A0F80811EE
:1058700000F092FA7CBD000028040020534D5F45E3
:1058800056454E545F4944454E544954595F52451C
:10589000534F4C56494E475F535543434545444546
:1058A00044206964202575003EB50C468DF808003B
:1058B00000208DF8092000900190022302AA042103
:1058C000204606F0A9FF3EBD7FB50DF1200C144621
:1058D000BCE864008DF80800ADF80930ADF80B2085
:1058E000ADF80D10CDE90056072302AA0421204689
:1058F00006F092FF7FBD70B515000C4603D0D0F8BE
:105900002401206008E0002070BD204600F000F96E
:105910002089A84203D020680028F6D170BD01205C
:1059200070BD0000082803D2024951F820007047DA
:1059300000207047280400202DE9FF41164691F809
:1059400000C00024B0F800214F1D1D46BCF10E0F11
:1059500072D00CDCACF1020EBEF10B0F1BD2DFE8F3
:105960000EF0221A341A3C1A4C1A5C1A6200BCF16E
:10597000180F70D009DCBCF1100F66D0BCF1120F0B
:1059800076D0BCF1160F06D177E0BCF1520F7ED075
:10599000BCF1D20F7BD061463FA0FFF799F804B06D
:1059A0002046BDE8F081B1F80110B0F802218A422A
:1059B00002D9A0F8001101E0A0F8002103242C7006
:1059C000B0F80001A5F80100E9E7491C4B880093F5
:1059D0000B88294603F00CFA0DE0CB1D491CF61F7D
:1059E000B4B28F884E88CDE90243CDE900670B88B9
:1059F000294603F069F90446D1E70C462946072EEB
:105A000001D8022300E01023641C6588CDE900530F
:105A10000297238803F0CCFBEDE7B1F8013029466B
:105A200003F0E0FCE7E7491C4B8800930B8829460C
:105A300003F0B4FADFE7FFE7491C761E0091C6F3D6
:105A40004F03294603F05CFCD5E70C461946072EA8
:105A500003D8022302E015E00AE01023641C6588E5
:105A6000CDE900530297238803F008FBC3E70EE05B
:105A70000092324603F042FDBDE70092324603F049
:105A80002FFAB8E70092324603F0ECF8B3E7009241
:105A9000324603F003FD82E7556E68616E646C6503
:105AA000642041545420436F6D6D616E643A20252B
:105AB0003032582C20444154413A20001CB50B4B45
:105AC0001C68002C10D0B6238DF8003005238DF80B
:105AD00001308DF80200ADF80310ADF80520072362
:105AE00000216A460420A0471CBD0000440000209D
:105AF00010B580B2FFF716FF002808D0B0F80A21D1
:105B0000B0F80611BDE810409120FFF7D7BF10BDD7
:105B100010B501680A88828072B14B88C3808C8876
:105B2000048101F10604C4609B050CD5A2F11603A3
:105B3000038201F116030BE00021C1800181C160E5
:105B40000182416106E0A2F10803038201F108032A
:105B500011444361016010BD70B5044600890D46D3
:105B600000281BD0022A08D0E08880050BD510221F
:105B7000E068FEF7A4FB80B111E009882046BDE88B
:105B8000704000F00EB8084605F0F8FA002805D07D
:105B9000E168A8890988884201D1012070BD0020F0
:105BA00070BD70B5044600890D46002810D0E0880D
:105BB0008005E06808D505F0E1FA002808D0E06823
:105BC0008089A84203D004E00088884201D10120E6
:105BD00070BD002070BD00002DE9F041194C064653
:105BE0001F4615468846042809D0082E28D1287853
:105BF000C00720D0D4F800C01FE03046E047287826
:105C000078281DD1D4F804C0BCF1000F08D03B4661
:105C10002A4641463046E04704F0A2FA00280FD059
:105C20002468002C0CD03B462A4641463046A44608
:105C3000BDE8F0416047D4F804C0BCF1000FDCD1EE
:105C4000BDE8F0813C0000202DE9F0410F461546EB
:105C5000044601461E46127828A0FEF73AFF042C9F
:105C60000CD0082C48D13846FFF75CFE040043D026
:105C700029781E2909D0522918D01EE028787828C2
:105C80003AD1BDE8F04100F00FB9B4F80A01A0B173
:105C900004F5867000F0FCFC04F583740020A288F3
:105CA000A0802188BDE8F041FFF708BF32462946B1
:105CB000BDE8F0410023FFF73FBEFB2E06D9324678
:105CC000BDE8F041FB231A48FEF703BF22782AB152
:105CD000BDE8F04116485030FEF7FBBE01202070B1
:105CE000A4F8046132462946A01CFEF7AFFA20460C
:105CF000BDE8F04100F050B8BDE8F0816174745F18
:105D00007061636B65745F68616E646C65723A2084
:105D100074797065203078253032782C207061637A
:105D20006B65745B305D2030782530327800000080
:105D3000C439020010B5B0F80001029CC01E80B248
:105D40001970A3F80120844200D8204610BD1FB569
:105D500014468DF80800069AADF80930ADF80B200E
:105D6000ADF80D10002000900190072302AA042135
:105D7000204606F051FD1FBD3EB50C468DF80800CB
:105D8000ADF80920002000900190032302AA04210D
:105D9000204606F041FD3EBD2DE9FF410446017855
:105DA00024A0FEF796FE207801282DD1A078D228D5
:105DB00008D003202070B4F8060104B0BDE8F0411B
:105DC000FFF769BC1AF09AFF0027E0B1B4F80401AC
:105DD0000F2818D3B4F806011BF08AFB002813D152
:105DE000B4F9080106F0BAFE05000CD0B4F80411AD
:105DF000A4F10A000E58696C324611A0FEF769FE44
:105E0000686CB04202D92770BDE8FF810220207083
:105E1000B4F803201749601DCDE90006CDE902144E
:105E2000B4F80401A1780F3883B205F134001AF0F8
:105E30006FFFE9E76174745F72756E3A2025640044
:105E4000415454205369676E6564205772697465C4
:105E50002C20444220636F756E7465722025752C6A
:105E6000207061636B657420636F756E746572205A
:105E70002575000039610000FFF70ABC0EB50B2143
:105E8000CDE900238DF80810012302AA042106F0B1
:105E9000C3FC0EBD00B5FFF745FD10B1B0F8000121
:105EA00000BD172000BD00002DE9F8430025144F68
:105EB000144EA84657F82540E4B1207803280BD1AA
:105EC000204600F0A7F838B1607898B1B4F8060120
:105ED000BDE8F843FFF7DFBB607858B10AA084F84B
:105EE000018000680090346824B1022300216A46D2
:105EF0000420A0476D1C082DDCD3BDE8F88300000A
:105F00002804002044000020B70000002DE9FE43D3
:105F10001F4616460D468046FFF704FD040005D0D7
:105F2000B4F80A0120B19020BDE8FE835920FBE7B8
:105F30004046FFF7ADFB88B102AB2A461D21204643
:105F40000097FFF7F7FECDE90060032302AA0421C2
:105F5000404606F061FC060002D014E05720E3E75B
:105F6000A4F80A5104F5867042460849044600F038
:105F7000C1FB47F2305240F28241204600F0A6FBBE
:105F8000204600F07BFB3046CEE70000F15A0000CF
:105F900070B505460B480A4C0E46446004F0C4F840
:105FA0000848083044601AF04FFA0748FFF766FBCC
:105FB000284600F0B5F83046BDE8704000F0B6B8AD
:105FC0006957000048000020495C00002DE9FE43AD
:105FD0001E4615460F468046FFF7A4FC040014D069
:105FE0004046FFF755FB90B102AB3A461B212046D5
:105FF0000096FFF79FFECDE90050032302AA04217B
:10600000404606F009FCBDE8FE835920FBE7572017
:10601000F9E700002DE9FC412F4E002707700446E8
:10602000B0F804213346811CFFF786FC0546A0F535
:106030007F40FF3823D0042D0FD3307801280CD1B6
:106040003079082809D194F8FE0030B1B4F806017F
:106050001AF08BFC78B1012811D085B10097019717
:10606000B4F806012B463246042106F0D5FB307801
:10607000032807D02DE0B4F806011BF0F1FE002044
:10608000BDE8FC81154AB4F80611B4F800011568A2
:1060900075B1B5228DF8002004228DF80120ADF8ED
:1060A0000210ADF80400062300216A460420A84728
:1060B000B4F8060100F084F809480078C00708D059
:1060C000B4F800010022001D81B2B4F8060101F00D
:1060D000DDFA0120D4E70000B405002044000020D0
:1060E000580000200149086070470000440000206B
:1060F00010B50246FFF716FC002806D001214170BA
:10610000BDE810401046FFF7C6BA10BD10B50C46EA
:10611000FFF708FC002801D0C0F8244110BD0000A2
:106120000149486070470000300000200149886044
:1061300070470000300000207CB5044600780A4615
:1061400002280ED1694610461AF099F8B4F80411E5
:10615000A01F014408226846FEF7B1F810B10020E4
:1061600020707CBDB4F80411A4F10A000E58B4F9F3
:10617000080106F0F3FC050001D0012000E000203A
:10618000ED2207A1FFF704FA45B1761C6E640320E7
:106190002070B4F80601FFF77EFA7CBD72B6FEE708
:1061A0006174745F7365727665722E63000000001F
:1061B0000A6882654968C1653521017002F0F2B94B
:1061C00070B5054602F02EFD04000BD02846FFF7FF
:1061D000A9FB002806D0E28AB0F800118A4202D951
:1061E000A0F8002170BDE18270BD0000F8B5044642
:1061F000C0880E46C0050BD506484568002D07D05F
:10620000002000900346024621893046A84720829C
:10621000F8BD0000300000207CB50E46C988044659
:106220000D0B00D06D1C14F8FD2F6078CDE9000235
:10623000A378FD3C2A461048FEF74AFCF088410549
:1062400002D594F8FE1079B1000502D594F8FF004C
:1062500060B1002D02DD94F8FD0048B194F8FD0016
:10626000A84207DA0C207CBD05207CBD08207CBD3F
:106270000F207CBD00207CBDC03802003EB50C461E
:106280008DF808000699ADF80920CDE90013032325
:1062900002AA0421204606F0BFFA3EBD0622FEF700
:1062A0000EB80A68026089888180704710B50C4971
:1062B000002203463A24985C000900F02CFB087089
:1062C000985C00F00F0000F026FB48708C70C91C31
:1062D000521C062AEFDB002001F8010C004810BD1B
:1062E0006D0400200844008840BA70474218405CA2
:1062F0005378528852BA63F31F4242EA00607047F3
:10630000130A4354491C89B242547047130E435434
:10631000491C89B2C2F307434354491C89B2C2F3F2
:1063200007234354491C89B24254704710B50446B0
:10633000FEF78CFA03480188A1430180BDE81040B4
:10634000FEF792BA5C03002010B503F078FABDE8BE
:106350001040012000F010B810B506490A68C2F3D9
:106360000312022AFAD1012100F0FCFBBDE8104023
:1063700004F05EBE0400044010B50446FEF766FA61
:106380000348018821430180BDE81040FEF76CBA44
:106390005C03002003480078C00701D118F014BF47
:1063A000704700005C03002002480068816A0248D0
:1063B00000680847040000201000002010B50446C3
:1063C0000E480078C00718D0FEF740FA4CB1032100
:1063D0000B4818F04FFC03F034FA11F063FB0DF09A
:1063E000DFFA0120FFF7A2FF12F074FB032019F07F
:1063F0001DF8BDE81040FEF737BA10BD5C03002061
:106400005F00030070B50D480088A0B912F076FA5D
:1064100040F2E2450446A8420DD30948406D50B908
:1064200019F0E2F838B119F0E7F8A84203D3A04216
:1064300000D3204670BD002070BD00005C0300202A
:106440000000094001490860704700005800002022
:106450000268134602E08A4204D01268002AFAD188
:106460000B600160704702E08A4205D01046026866
:10647000002AF9D10A6001607047006808B1002065
:1064800070470120704704E0884201D10120704725
:1064900000680028F8D170470268816832B140680E
:1064A0000068884200D1086808B9704709B1012026
:1064B0007047002070470022C0E900210968816010
:1064C0007047016851B141680A6881688A4203D106
:1064D00041600968816003E0826001E001210160A0
:1064E0008068704781680968816042681160002196
:1064F000016070474FF0FF3351B107E002688A42F4
:1065000003D1096801600020704710460028F5D1CA
:106510001846704701490968C96A08470400002005
:1065200001490968096B084704000020FFF7F8BF1C
:106530007820FFF7EFBF10B50446806B06F0E4FE4D
:106540002046BDE81040FFF7EBBF70B59820FFF77D
:10655000E1FF04000CD040F2111006F0D9FF050055
:1065600008D098212046FDF798FE2046A56370BD0F
:10657000002070BD2046FFF7D3FFF9E77047FFF713
:10658000CFBF5420FFF7C6BFFFF7CABF1420FFF7E5
:10659000C1BF2DE9F04106460020984617460C463B
:1065A0000546306005E02146304600F007F84444D7
:1065B0006D1CBD42F7DBBDE8F081000030B402681D
:1065C000134607E08B4204D1024630BC04A0FEF71C
:1065D00081BA1B68002BF5D10A60016030BC70479E
:1065E0006274737461636B5F6D656D6F72795F70F8
:1065F0006F6F6C5F667265653A20626C6F636B20CB
:10660000257020667265656420747769636520660D
:106610006F7220706F6F6C2025700000016819B1D7
:106620000A6802600846704700207047FFF778BF8D
:106630000C20FFF76FBF000000B589B00DF1080C0A
:106640000190064800680592ACE80B00044909680F
:106650008A696946904709B000BD00001400002017
:106660000400002013460A4601460A20FFF7E4BF53
:1066700013460A4601460C20FFF7DEBF0249406977
:10668000096849680847000004000020002070479E
:1066900010B50446406928B103490968C9688847AC
:1066A00000206061002010BD0400002070B5064D80
:1066B000044640692968896888472968606949688B
:1066C000BDE87040084700000400002070B5044693
:1066D000816005481546054A00682146036828463A
:1066E0009847606170BD000004000020014A00006E
:1066F00001617047C0E90312704700000249406918
:106700000968896808470000040000202DE9F0416D
:106710000746114815460E4604689846DA3438880C
:106720006288218800F03EF93880628821883088AC
:1067300000F038F93080E288A188288800F032F92A
:10674000288062892189B8F8000000F02BF9A8F8A8
:106750000000BDE8F0810000043B020070B50C00B1
:10676000054601D0012000E000206A2206A1FEF7C4
:106770000FFF284600F034F810B100206C60206054
:10678000286820602C6070BD6C6973745F626173EF
:1067900069632E630000000070B50C00054601D04F
:1067A000012000E00020532207A1FEF7F1FE284659
:1067B00000F016F808B12C6001E068680460002061
:1067C0006C60206070BD00006C6973745F626173FF
:1067D00069632E6300000000002101604160704782
:1067E000006808B10020704701207047006808B1B8
:1067F0000020704701207047016819B10A680260E3
:1068000012B103E00022FAE7002242600846704716
:1068100070B5054600680C4600B10120C32209A1ED
:10682000FEF7B6FE206800B10120C42205A1FEF7E4
:10683000AFFE6968206808606068686000202060BA
:10684000606070BD6C6973745F62617369632E63AD
:106850000000000070B5034600200246012513F831
:106860000240002105FA01F6344201D0401C80B2FA
:10687000491CC9B20829F5D3521CD2B2052AEED35D
:1068800070BD30B50546C8080C4601F00702285C0B
:1068900001219140084201D0204630BD2846FFF733
:1068A000D9FFC0B2B4FBF0F100FB1140C1B22846E1
:1068B000BDE8304002F08EB970B50446008942F65A
:1068C000554290472521B0FBF1F201FB1201CA08A5
:1068D00001F00705A25C0123AB401A4201D0084633
:1068E00070BDE18841432046BDE87040C1F30741D7
:1068F00002F070B930B504461068206010790D467A
:1069000000F01F0020712046FFF7A4FFE08085EA19
:106910001540208130BD0A2801DA303003E00A3802
:10692000062802DA4130C0B270473F20704770B588
:106930000446C08E88B0002822D0258F94F83430C9
:10694000A2268DF800601A268DF80160A6890A46F5
:10695000ADF80400ADF8082004F11C01ADF80260A8
:10696000ADF80650ADF80A30102203A8FDF76EFC12
:10697000A1891C236A46A06800F034F90020E08653
:1069800008B070BD06481144006800F2FF30814233
:1069900003D90120186003207047002070470000D1
:1069A0006800002019B1884201D208467047002AC9
:1069B000FCD09042FAD91046704700000249CA6DD7
:1069C00082430243CA6570470000094043688B4216
:1069D00004D18068904201D10120704700207047A7
:1069E000F8B5114C202160684269402090476061F1
:1069F0006068006A804720610120009060684FF461
:106A00000066334605690022084909A0A847A0612D
:106A1000002000906068334600220569064907A0FF
:106A2000A847E061F8BD0000000000201148000008
:106A30006374726C0000000055FF0100686F73748E
:106A40000000000010B508780C4648B108480078EE
:106A500000070AD50022BDE81040022004F030BB38
:106A600004F069FB00222146F5E7002010BD00007C
:106A70000000002070B50646401E1D460C46082842
:106A800009D220782968884205D10622211D68682C
:106A9000FDF715FC08B1002070BDC5E902640320B4
:106AA00070BD00000248417A491C417270470000E5
:106AB000D000002010B5044602F09EFF002010F028
:106AC000DDFF11F02BFE10F01DFE09F05BFA0DF05A
:106AD0004FFB13F02BFB17F061FA17F017FF002C98
:106AE00003D0BDE8104012F0B8BB10BD70B504462D
:106AF000B0F1A53F19D0B4F1C33F16D00123DA029B
:106B000005211B2018F0CEFA0546B4F1F23F09D05A
:106B1000922206A10020FEF73BFD2846BDE870400A
:106B200018F032BC07202870F7E770BD6474626CFF
:106B3000652E630070B50A4C4FF42020074DE064C9
:106B40001CF036F9800602D54FF4803001E04FF496
:106B500000402844C0F31300A06470BD00000A4048
:106B600000000940F8B505461B480E46002101808B
:106B700011F060F81CF03AF918F03CFA684611F090
:106B80009BF80446009842F2451140F6746788422B
:106B900001D3012000E00020852210A1FEF7F8FCBF
:106BA0003A462146002018F091FA009804F67461E4
:106BB000A0F6746082B2012018F088FA1CF07CF80C
:106BC0003046FFF777FF002D04D02846BDE8F84097
:106BD000FFF78CBFF8BD00005C030020647469708F
:106BE0002E63000030B4040003D0A44630BC04205F
:106BF000604730BC7047FEB51E4617460C4605463A
:106C000002F010F8002816D0011D6846FFF753FC6B
:106C10000CE06846FFF755FC0189A14206D1D0F887
:106C200004C033463A4629460420E0476846FFF749
:106C300033FC0028EDD1FEBD1CB5A0228DF800204C
:106C400003228DF801208289ADF802208DF804100E
:106C50008189806805236A46FFF7C4FF1CBD30B5F3
:106C600087B00446A3250A988DF8005018258DF8A2
:106C70000150A589ADF80410ADF806200146ADF825
:106C80000250ADF8083010220DF10A00FDF7DEFACF
:106C9000A1891A236A46A068FFF7A4FF07B030BD98
:106CA00010B586B00446A1208DF8000016208DF89E
:106CB0000100A089ADF80410ADF80200ADF806207F
:106CC0001022194602A8FDF7C1FAA18918236A46C5
:106CD000A068FFF787FF06B010BD00002DE9F04364
:106CE00042780446901C89B00E46814206D009B015
:106CF000921CBDE8F043E248FDF7EEBE2178E1A02A
:106D0000FDF7EAFE2078DFF88C834FF000091228A7
:106D100069D00CDC0E2811D004DC05286FD00828BF
:106D200045D16DE00F2827D0102840D18CE01328E2
:106D300044D03E2874D0572839D181E1D8F80000DA
:106D4000A278454690F86210D3A0FDF7C5FE6179A0
:106D5000DAA0FDF7C1FE2968A07881F862002968F1
:106D6000B4F80300B1F89610884218D12868826CF4
:106D7000AAB1C16C601D11E0D8F80020E17840464E
:106D800082F86210D8F80020A188B2F896209142CB
:106D900005D101688A6C12B1C96C601C9047D8F8A3
:106DA0000020A2F89690D8F80010C1F84890D8F8C2
:106DB000000090F8780001287BD04DE103250027E2
:106DC00019E0635BAD1C625BAD1C184603F0D0FAA2
:106DD00038B190F8401091420AD3891A80F84010D7
:106DE00008E0194600E034E0B9A0FDF775FE01E0C7
:106DF00080F840907F1CA078B842E2DCD7E71AE028
:106E0000B4F80350284603F0B3FA0028CFD0A17895
:106E100051B961790029816903D041F4004102E050
:106E200023E021F40041816100F0ECFB014628469B
:106E300003F082FBBBE7B4F8030003F099FA0028E3
:106E4000B5D007214174B2E703F0B8FD03F0CAFDE5
:106E5000ADE7A0780028AAD1B4F8030003F088FABF
:106E60000028A4D0617A0174A1E7A07806287AD01E
:106E700011DC01281ED0042899D1E078002873D1B4
:106E8000A08803F075FA00286ED08830A17941708F
:106E9000012101708BE70A280CD0122887D12079B4
:106EA000082884D2E178002971D097A0FDF714FE5C
:106EB0007DE7CDE0E0780028A0D1A788082F27D271
:106EC000D8F8000000EB8705686910B9FFF73DFBB3
:106ED000686105001CD0EF800220C5F81890A874E6
:106EE0002A46924905F11C00FFF704FCFFF7CEFB90
:106EF0006863E0792872294604F1080019F0C2F9A4
:106F000005206874A0792874A0780A2804D012E0BB
:106F1000A08800F081F94AE7D4F80E10C5F88A106D
:106F2000618AA5F88E106169C5F89010218B05F172
:106F30008000A5F89410E089A5F85200287C60B97B
:106F4000D8F8001091F86010E973D8F8000005F146
:106F5000090190F8600000F01FFA2846FFF7A6F933
:106F60000246E98801E013E06FE071A0FDF7B4FD8F
:106F700003F0B8FAD8F8000090F86E00C00689D582
:106F8000E98840F6B832724803F028FB0FE72CE09E
:106F900034F8037F384603F0EBF905006088ADF85C
:106FA0001400A088ADF81000E088ADF81800208922
:106FB000A4F10304ADF81C00ADD007AB06AA04A9E8
:106FC00005A8FFF7A3FB5435BDF818006B882A8885
:106FD000BDF81C108DE80F00BDF81030BDF814206E
:106FE00039465C4803F0FAFAE1E6B4F805201046A9
:106FF00003F0BEF90546217957A0FDF76DFD207914
:10700000D8F80020C0EBC001114491F8A110E97339
:1070100069B12179D8F80000C1EBC101014401F147
:107020008000D1F8A21045F8091FC08C06E0D8F8FE
:107030000000416D45F8091FB0F85800A880B6E679
:10704000608803F095F90028A0D109B0BDE8F0836D
:10705000B1B2204603F06CFBB1B2204603F01AFA3D
:107060002078052806D1B4F8030003F081F908B1AF
:1070700003F056FE09B0BDE8F04303F01BBD00006D
:10708000243D02004843493A4556454E543A25307E
:1070900032780000043B0200434D445F434F4D50A3
:1070A0004C45544520636D6473206F6C64202575D6
:1070B000202D206E6577202575000000636D645FCC
:1070C000636F6D7020737461747573202575000093
:1070D0006863695F6E756D6265725F636F6D706C1A
:1070E000657465645F7061636B6574206C6973744B
:1070F0007320756E7573656420636F6E2068616EB2
:10710000646C6520257500006164762073657420C9
:107110007465726D696E61742064756520746F208A
:10712000636175736520307825780A0089A30000B3
:107130004E657720636F6E6E656374696F6E3A207B
:1071400068616E646C652025752C20257300000035
:107150009C3D0200243E02006164762068616E64FA
:107160006C6572203078257820636F6E6E6563746D
:10717000656420746F20636F6E2068616E646C6557
:1071800020307825780A000010B5044603F0CCFFC3
:10719000204610BD13460A460146014803F01EBAB8
:1071A000CC3E02000246014803F018BACC3D020072
:1071B00030B50C46054689B01946104600F04AFA2B
:1071C00000280CD16946284619F04AF804A920463F
:1071D00019F046F804AA6946024803F0FFF909B01D
:1071E00030BD0000FC3D0200014803F0F7B900008B
:1071F000C43D0200014803F0F1B900007C3E0200EA
:10720000014803F0EBB90000DC3E0200014803F046
:10721000E5B90000BC3D020010B5034603F0A8F834
:1072200040B10621417413221946054803F0D6F9EE
:10723000002010BD0021184603F018F9F8E70000FF
:10724000843D020038B54FF0FF30ADF80200ADF8D4
:10725000000006250DE0684603F0DAF80446407C9D
:10726000062806D0E1881322054803F0B7F900B9D3
:107270006574684603F0ACF80028ECD138BD000016
:10728000843D02002DE9FF4FDFF8A8A085B000245F
:10729000DAF80020DDE912691268DFF894808B4685
:1072A0000A2000EB061153692746B8F8000003AA2C
:1072B0009847050001D001210FE0562009B0BDE834
:1072C000F08F00BF04EBC40219F81220521E01FA1D
:1072D00002F03843641CC7B2E4B2B442F2D3DDE931
:1072E00007018DE883005B46D8F804102846059A0C
:1072F00003F034F8C7B200240DE000BF04EBC40172
:1073000009EB4101891CE8191022FCF79FFF103797
:10731000641CFFB2E4B2B442F0D3DAF80010404685
:1073200081F860B02946039A03F0B4FC0020C5E759
:10733000AC3E0200043B02001CB502F11003CDE993
:107340000030134601F11002014803F047F91CBD5B
:10735000703B020010B500F07DF9002804D1BDE8B3
:107360001040024803F03AB910BD0000043E02008C
:107370000248006890F8980070470000043B020043
:107380000449096851F8DA2F02604A684260896846
:1073900081607047043B0200074A0028106804D04F
:1073A00050F85A2F0A60808803E0426D0A60B0F8F6
:1073B0005800888070470000043B020001460148E5
:1073C00003F00CB9EC3D0200034909684A6D026004
:1073D000B1F8581081807047043B020010B5044694
:1073E000014604A0FDF778FB022C01D9012010BD55
:1073F000002010BD6761705F6D69746D5F70726FA2
:1074000074656374696F6E5F7265717569726564C6
:107410005F666F725F73656375726974795F6C65BF
:1074200076656C20257500007FB50DF1200CBCE859
:1074300070008DE8780013460A460146024803F0C2
:10744000CDF804B070BD0000B43E0200014803F066
:10745000C5B80000BC3E02000146014803F0BEB8BA
:10746000C43E02000448817A012903D102218172BD
:107470001AF0A0BD70470000D0000020074810B5EA
:10748000426C40F282210648FFF720F90448FFF7DA
:10749000F5F8BDE81040FFF7E5BF0000D000002080
:1074A0000007002010B5002207490848FFF722F91D
:1074B000074840F28221426C0448FFF707F9BDE813
:1074C00010400248FFF7DAB87D7400000007002082
:1074D000D0000020014803F081B80000B43D020054
:1074E000014803F07BB80000783B02000A460146E1
:1074F000014803F073B80000383B0200014803F074
:107500006DB80000E43E02000146014803F066B891
:10751000343E02000A460146014803F05FB800000D
:10752000403B02000146014803F058B8F43D020018
:107530000146014803F052B88C3D02000146014863
:1075400003F04CB8A43D02000246014803F046B8DF
:10755000D43D02002DE9F0410E46074602F008FF37
:10756000050010D0384600F043F804460246314684
:1075700008A0FDF7B1FAB44207D321463846BDE86A
:10758000F04102F0D9BF0121F8E7AE74BDE8F04147
:1075900003F090BA6761705F726571756573745FAF
:1075A00073656375726974795F6C6576656C2025A7
:1075B000752C2063757272656E74206C6576656CCF
:1075C000202575000146014803F008B8743E02000A
:1075D00013460A460146014803F000B8D43E0200B3
:1075E00013460A460146014802F0F8BF103B02006C
:1075F00010B502F0BDFE18B1BDE8104000F002B8B1
:10760000012010BD10B1008B000401D4012070478F
:107610000220704702207047074BC0EBC0021B6876
:107620001A440B6842F8A23F8B8893800A460146B1
:10763000024802F0D3BF0000043B02004C3E0200AF
:1076400000B101200249096881F8980070470000E4
:10765000043B0200034A1368186410684164002068
:1076600070470000043B0200014909680865704743
:10767000043B020004490268096841F8DA2F4268B5
:107680004A60806888607047043B02000AB944F28F
:10769000902213460A460146014802F09FBF0000AF
:1076A0002C3E020013460A460146014802F096BFEE
:1076B0003C3E02001CB5049CCDE9003413460A464A
:1076C0000146024802F08AFF1CBD0000603B020038
:1076D00008B50B46009202460021024800F074F8FB
:1076E00008BD00005C3E02002DE9FC4791461B4AA4
:1076F000194F8846126804460221126801EB88017E
:107700003888536901AA9847060007D043462246A5
:10771000796802F023FEC5B2002414E05620BDE8CB
:10772000FC8700BF04EB440009EB40010A7900929A
:107730004B8819F81020701909A102F00FFE2D1DB9
:10774000641CEDB2E4B24445ECD331463846019AAC
:1077500003F0A0FA0020E2E76C3E0200043B0200C6
:10776000313231002DE9F04F8DB0DFF854C0DDE942
:107770001F89DDE91BBADCF800C0DDE91D56C0EB4E
:10778000C0076744DDF868E0179C87F8A14008AFA0
:10779000A7E86003DDF864C0CDE906BACDE904CE00
:1077A000169E189DCDE9003613460A460146054847
:1077B000CDE9024502F012FF0DB0BDE8F08F0000E8
:1077C000043B0200543E02002DE9FC471C460A9D82
:1077D000174688468146F72B26D9F720CDE90005C4
:1077E0000B4601223946484602F0F8FE002823D114
:1077F000F73CA4B2F73515E0F72C01D3F72600E0EB
:107800002646A01BCDE900650404240C01D000220B
:1078100000E0022243463946484602F0DFFE0028D7
:107820000AD13544002CE7D1434603223946484665
:10783000CDE9004502F0D2FEBDE8FC8708B5009313
:1078400013460A460146024802F0C8FE08BD000081
:10785000A43E02002DE9FC4716460F4602EB8601C6
:10786000244ADFF88C809946126882460024126808
:10787000C91CB8F80000536901AA9847050002D056
:10788000002001220DE05620BDE8FC8700EB4003FC
:1078900019F813305B1E02FA03F12143401CCCB2ED
:1078A000C0B2B042F2D300943B4652462846D8F8C4
:1078B000041002F053FDC7B200240FE004EB4401B2
:1078C00009EB41008188009143884278E8190AA1B8
:1078D00002F044FD7F1D641CFFB2E4B2B442EDD35C
:1078E00029464046019A03F0D5F90020CCE7000074
:1078F0009C3E0200043B02003132320008B50B46C8
:107900000092024600210248FFF75EFF08BD00001A
:10791000643E02000A460146014802F05FBE0000D4
:10792000E43D02000A460146014802F057BE00004D
:10793000503B02003EB5DDE906458DE838001346B0
:107940000A460146014802F049FE3EBD483B02009E
:107950002DE9F843194F15460C468046F82923D9DE
:107960000146F82301223846009502F037FE002830
:1079700021D1F83CA4B2F83514E0F82C01D3F82654
:1079800000E02646A01B0404240C009501D0002230
:1079900000E0022233464146384602F01FFE00282E
:1079A00009D13544002CE8D123460322414638460C
:1079B000009502F013FEBDE8F88300008C3E020043
:1079C0000A460146014802F009BE0000943E02004A
:1079D00008B5009313460A460146024802F0FEFD30
:1079E00008BD0000843E02001CB5049CCDE90034B3
:1079F00013460A460146024802F0F0FD1CBD000095
:107A0000443E020005490268096841F85A2F8288FD
:107A10008A800146024802F0E1BD0000043B0200FA
:107A2000AC3D020013460A460146014802F0D6BDAD
:107A3000583B02000249096881F861007047000064
:107A4000043B02002DE9FF4F87B01C46DDE91A0117
:107A5000DDE91865DDE91687DDE914A99346FFF72E
:107A6000F9FD00280DD1CDE9004ACDE90259CDF844
:107A70001080CDE90576DDE907125B46024802F089
:107A8000ADFD0BB0BDE8F08F083B02003EB5DDE96F
:107A900006458DE8380013460A460146014802F0C3
:107AA0009DFD3EBD683B0200014802F097BD00000D
:107AB000283B020008B5009313460A4601460248D7
:107AC00002F08CFD08BD0000183B0200F0B587B045
:107AD0000DF1300EBEE8F0108DE8F81013460A469E
:107AE0000146024802F07AFD07B0F0BD203B0200DB
:107AF0002DE9FF410D46DDE90A4780460C9E02F064
:107B000037FC002806D0007C38B129464046009456
:107B100004F0A9FC04B0BDE8F08103968DE898005C
:107B200013462A464146024802F058FDF2E700009B
:107B3000DC3D020008B59200921C0B460092014603
:107B40000722024802F04AFD08BD0000303B020057
:107B50002DE9F047DFF88CA48AB01E46154688460A
:107B600004280AD008287DD128781B280FD01D288A
:107B700008461FD001F056F81EE02978782971D107
:107B8000DAF80040002C50D04146A0474DE0B5F84F
:107B900001700C46D21CDE1E3946A72018F03CFCB2
:107BA000F61C02460AB0B3B239462046BDE8F0479B
:107BB000FFF721B818F006FA040053D02978771E91
:107BC0004FF001090D2973D009DC0C2915D2DFE82B
:107BD00001F014EF143114EE14ED148614F017298B
:107BE00067D006DC0F2978D0112952D0132904D18F
:107BF00067E1192972D01D295CD0FBA0FCF76BFF4F
:107C000028788DF808908DF80900002006218DF85D
:107C10000A008DF80C108DF80B0000900190A089DF
:107C2000052302AA042104F0F7FD0AB0BDE8F047DD
:107C300000F0B8BCB5F8015004F0E6FA854200D275
:107C40002846E08284F81890DAF8005095B1AB200D
:107C50008DF8000004208DF80100A089ADF8020025
:107C6000E08A00E0F7E1ADF804000623A1896A4646
:107C70000420A8474046FEF7A3FAE64800788007AC
:107C8000D3D4E08A0022001D81B2A089FFF7FEFC58
:107C9000CBE720780228C8D132462946204618F082
:107CA000A1FA69782046711A294401224988A7E07F
:107CB0000FE13CE14746B5F80180EA1CF61E41465B
:107CC000A82018F0A9FB0246F61CB3B2414638467C
:107CD000FEF791FF84F85190A7E76AE15BE1207815
:107CE0000C281BD011DC062801D008289DD1324673
:107CF0002946204618F029FA3146284600F09CFF14
:107D0000014620461BF038FC8FE7142833D0242886
:107D10008BD16888A4F84C0025203AE195F80180C1
:107D2000B8F1070F07D26888A085A8882086E88860
:107D300060860D202DE1022716E000BFE91935F815
:107D400007904A8822868A886286C98801A81BF023
:107D500005FD01A80090638E228E49462046FEF75D
:107D60007EFF07EB080087B2B742E7D36978204669
:107D7000711A695A43E095F8018000210227A8F1A1
:107D8000020A0DE035F80790EA191FFA8AF3921CEF
:107D90004946204618F0CAF907EB0800494687B261
:107DA000B742EFD3204613222AE002E035E04CE050
:107DB00009E120780E2814D0102824D028288BD14F
:107DC000204600F07DFA218F6A1CA92018F024FBC0
:107DD00002460837BBB2A189A068FEF703FF002165
:107DE00035E101A9681C18F03BFAA18D01AA0092A7
:107DF0002046638E228EFEF732FFA18D20460B2295
:107E00001BF0DAFB11E7204600F05AFABBB2218FD3
:107E10006A1C204618F08AF9E1E74FF004094FF692
:107E2000FF78012704F11C0A09E0E819E95B4088A2
:107E30005346804602462046FEF732FF4F44B74283
:107E4000F3DB204641460322DAE76878042702285C
:107E500000D11227F01B35F800A0AD1CB61E1FFA8A
:107E600086F8002622E000BF35F80690042F05EBC7
:107E7000060021D0801C06A918F0F2F9A4228DF882
:107E8000002014228DF80120A289ADF8022006A955
:107E9000ADF8049010220DF10600FCF7D7F9A18986
:107EA00016236A46A068FEF79DFE3E444645DBDB8E
:107EB000204651460922A3E7418806A81BF04EFC44
:107EC000DCE72078182803D0262801D02C2899D167
:107ED000ACE0761E2078B6B2761DBFB2122815D05F
:107EE0002A288FD1218F628F6B1CAA20009718F04F
:107EF000A1FA020004D0B3B2A189A068FEF772FE15
:107F00003A46292120461BF01FFB8EE6218F628F07
:107F10006B1CA620009718F08DFA020004D0B3B2B3
:107F2000A189A068FEF75EFE3A461121EAE72078B3
:107F30001A2812D01C281CD02E2814D03228E4D1A4
:107F4000204600F0BDF932462946204603F038F9B4
:107F500000287FF461AF7E2179E0B5F803001D228F
:107F60006087192110E0B5F803002F2260872D21CA
:107F70000AE032462946204603F022F940B1B5F81E
:107F800003001D2260871B2120461BF004FB4CE6EA
:107F90002120207049E620781E2847D0202845D08F
:107FA000222802D03028B0D140E0204600F088F9E5
:107FB000D1E720781628A8D1BBB26A1C0021204640
:107FC00018F0B4F832E029790A292BD12078082852
:107FD00030D021DC022829D0042827D0062821D13E
:107FE00028E000005C0000204154542048616E6489
:107FF0006C65722C20756E68616E646C65642072AD
:108000006573706F6E7365207479706520307825A4
:1080100030327800580000200A2807D00C2805D0FC
:1080200014280CD0204600F0ACFAFEE5204600F003
:1080300047F9D4E6E18D2046FEF779FCF6E72046C5
:1080400000F03EF9A08D218E8842F2D10A2120460F
:10805000FEF7F2FDE9E50AB0BDE8F08710B5044689
:10806000084617F0E9FF18B1017819B1952010BD45
:10807000562010BD1F218460017000F093FA00208B
:1080800010BD70B505461446084617F0D5FF18B167
:10809000017819B1952070BD562070BD856061884A
:1080A000A288914203D10021FEF7C6FD07E0491CDA
:1080B0008185A188C1850921017000F073FA002033
:1080C00070BD2DE9F04107461D4616460846DDF80D
:1080D000188017F0B1FF040004D0207820B195205B
:1080E000BDE8F0815620FBE7A760A685E585012065
:1080F00084F85000002565831022414604F11C00DD
:10810000FCF7A4F8E5860720207000F04BFA002069
:10811000E6E72DE9F04107461D4616460846DDF81C
:10812000188017F089FF040004D0207820B1952032
:10813000BDE8F0815620FBE7A760A685E585012014
:1081400084F85000A4F81A80414604F11C001BF08A
:1081500005FB0020E0860720207000F023FA0020B5
:10816000E6E770B506461C461546084617F064FF5C
:1081700018B1017819B1952070BD562070BD866088
:108180008585C485002180F85010C18605210170C5
:1081900000F008FA002070BD10B50446084617F03C
:1081A0004BFF18B1017819B1952010BD562010BDB4
:1081B0000121846081854FF6FF72C2850170002124
:1081C000418300F0EFF9002010BD70B5054616465A
:1081D000084617F031FF040003D0207818B195202D
:1081E00070BD562070BD0120A560A0854FF6FF70C0
:1081F000E085002060831022314604F11C00FCF76A
:1082000025F80320207000F0CDF9002070BD70B576
:1082100005461446084617F00FFF18B1017819B14A
:10822000952070BD562070BD0121856081854FF677
:10823000FF71C18503210170448321461C301BF06E
:108240008DFA00F0AFF9002070BD10B50446084665
:1082500017F0F2FE18B1017819B1952010BD562023
:1082600010BD1D218460017000F09CF9002010BD3C
:1082700070B506461C461546084617F0DDFE18B1D7
:10828000017819B1952070BD562070BD8660858536
:10829000C4850B21017000F085F9002070BD00B588
:1082A0000A4600F0BFFC10B1017E012903D017205F
:1082B0001080952000BDC08A1080002000BD000005
:1082C00010B500210170044681890448FCF703FCC5
:1082D00004F16000BDE81040FEF7DAB9DC3A0200B4
:1082E00070B5042817D11078052810D1B2F80350C2
:1082F000284600F097FC040009D01F2100F041F946
:108300000549002041F825002046FEF70FF9BDE899
:10831000704000F047B970BD80040020064910B5D8
:1083200004484860084601F0FFFEBDE810400348DD
:10833000FDF79AB9E182000060000020517B000047
:1083400010B517F03FFE002802D0007808B10020D9
:1083500010BD012010BD70B504460D46104600F05A
:1083600061FC002807D0656023812146BDE870408C
:10837000001DFEF76DB870BD2DE9F0410646DDE940
:1083800006781C461546084617F056FE20B10178BF
:1083900021B19520BDE8F0815620FBE78660058776
:1083A000878744873121C0F84080017000F0FAF8D7
:1083B0000020EFE770B505461446084617F03CFE6E
:1083C00018B1017819B1952070BD562070BD856037
:1083D00004872721017000F0E5F8002070BD00231C
:1083E000AFF3008070B506461C461546084617F0E8
:1083F00023FE18B1017819B1952070BD562070BDCB
:108400008660058744872921017000F0CBF80020A1
:1084100070BD0023AFF3008070B506461C461546BC
:10842000084617F009FE18B1017819B1952070BD02
:10843000562070BD8660058744871121017000F0C9
:10844000B1F8002070BD70B506461D4614460846BA
:1084500017F0F2FD18B1017819B1952070BD5620C2
:1084600070BD8660A0F8444015218564017000F05D
:1084700099F8002070BD70B505461446084617F0FF
:10848000DBFD18B1017819B1952070BD562070BD83
:1084900085600487002141870F21017000F082F878
:1084A000002070BD2DE9F04107461D4616460846DE
:1084B000DDF8188017F0C0FD040004D0207820B14A
:1084C0009520BDE8F0815620FBE7A760A685E585ED
:1084D00026866586002060831022414604F11C0038
:1084E000FBF7B4FE1320207000F05CF80020E8E7F2
:1084F0002DE9F04107461D4616460846DDF818806E
:1085000017F09AFD040004D0207820B19520BDE832
:10851000F0815620FBE7A760A685E585268665865F
:10852000A4F81A80414604F11C001BF017F913202F
:10853000207000F037F80020E9E7000001490860EA
:10854000704700005C0000202DE9F04106461C4603
:1085500015460846069F17F06FFD20B1017821B13E
:108560009520BDE8F0815620FBE78660058784876B
:10857000002141871B210764017000F013F80020DF
:10858000EFE770B5044600780D46002808D0204675
:10859000FFF796FE29462046BDE87040FEF74CBB2B
:1085A00070BD00002DE9F04F002689B04FF01E0984
:1085B0004FF0040A4FF0020B37464FF00808CD4841
:1085C00050F82640002C6ED0A089FDF747F840B146
:1085D0002278217EC8A0FCF77EFA207E012862D195
:1085E00005E0A08909B0BDE8F04FFDF73AB894F86E
:1085F000510040B184F85170A0898DF8089000971F
:108600000123019789E02078172801D02B2818D161
:10861000204617F078FAA18FC01E884211DA204652
:1086200017F071FA0246A18FC1A0FCF754FA204658
:10863000FFF746FE09B02046BDE8F04F0D21FEF7DA
:10864000FBBA606D04F08AFA05462178C3A0FCF7F6
:1086500042FA2078362826D2DFE800F09E1B9E26BC
:108660009E469E499E519E649E709E749E769E7804
:108670009EA39EB69EB89EBC9EBE9EC19EC39ECB30
:108680009EED9ED39EDD9EE59EFE9EFC9EBA9EFBC9
:108690009EFA84F800B0E08D0090A38DA2894FF47B
:1086A0002051102047E077E084F800A0608B4FF461
:1086B000205530B1ADF81C00E18D07AA8DE8060801
:1086C00009E003A904F11C0017F0CAFDE08D102297
:1086D00003A98DE80700A38DA28929460620FDF78E
:1086E000F3F809B0BDE8F08F0620207001E084F8AF
:1086F000008009B02046BDE8F04F17F0E8BD84F8CF
:108700000080A089A18DE28D8DF808A0ADF8091038
:10871000ADF80B2000970523019702AA042104F06D
:108720007BF8DEE70C202070E08D0090A38DA289FD
:1087300042F602010820FDF70AFBD2E70E20207066
:10874000228E61E010205DE0122065E01420207090
:10875000618B204639B1C28D0092838DA289082099
:10876000FDF7F5FA18E000F11C028589818DE08D96
:108770008DF80880ADF80910ADF80B000DF10D0172
:10878000104617F06DFD0097152302AA0421284614
:10879000CDF8047004F040F8761C082EFFF40FAFFB
:1087A0009FE716202070A089B4F844100E23A26C15
:1087B0008DF808304FF6FF7303EA4101CDE900213F
:1087C000012302AA0421E5E718202DE01A2044E045
:1087D000322042E01C2040E084F8009046E0202057
:1087E00000E02220207009B02046BDE8F04F17F0CD
:1087F00069BD2420207009B02046BDE8F04F17F075
:10880000A6BD28202070228FA18909B00A20BDE8CA
:10881000F04FFDF7B1BA2A20207009B02046BDE81C
:10882000F04F17F07FBD2C20207009B02046BDE826
:10883000F04F17F097BD2620207004F14E000090F5
:10884000B4F84C20A18902231220FDF717FD48E758
:1088500026E011E008E0FFE72E20207009B0204656
:10886000BDE8F04F17F043BD3020207009B020461E
:10887000BDE8F04F17F036BD18F040FA00288FD051
:1088800034202070A86D216C01AB0091394A15C3CA
:10889000A38F228FD22105F1480018F039FA20E782
:1088A00036202070A96DB4F80C90228FB4F83C806B
:1088B000D223266C8DF81030ADF81120059104F10B
:1088C00058000DF1140A06A917F0D9FC0C20CDE9C7
:1088D00002A0CDE90068032304AA0421484603F05E
:1088E000E3FF27702046FFF7EBFCA86D401CA8654E
:1088F000F7E60000800400202D2068616E646C653E
:108900005F7065726970686572616C5F6C697374C1
:108910002C206D74752073746174652025752C206E
:10892000636C69656E7420737461746520257500CD
:10893000676174745F636C69656E745F72756E3ABB
:108940002076616C7565206C656E202575203E2053
:108950004D5455202575202D20330A00676174740D
:108960005F636C69656E745F7374617465202575EF
:1089700000000000B16100002DE9F04707461D46E8
:10898000164689460846DDF8208017F01BFB044692
:10899000007850B9484618F073FF014660650AA098
:1089A000FCF799F8606D002802DA9520BDE8F087A1
:1089B000A7602687A5873320C4F840802070FFF782
:1089C000F1FD0020F2E700006C655F646576696385
:1089D000655F6B6579206973203A307825780A00E5
:1089E00070B50A4E0546002456F82400A84207D167
:1089F000A98907A0FCF76FF87F212846FFF7C1FD82
:108A0000641CA4B2082CEFD370BD000080040020C9
:108A10004741545420636C69656E742074696D65B8
:108A20006F75742068616E646C652C2068616E647B
:108A30006C65203078253032780000002DE9F04157
:108A400006461C4615460846069F17F0F5FA20B163
:108A5000017821B19520BDE8F0815620FBE78660C2
:108A600005878487002141872B2107640170FFF768
:108A700099FD0020EFE770B506461D4614460846EE
:108A800017F0DAFA18B1017819B1952070BD5620A7
:108A900070BDE90704D0A179C90601D4982070BD42
:108AA000A90704D5A179890601D4992070BD8660F3
:108AB00061888185A188C185A0F84E50232101706D
:108AC000FFF770FD002070BD1CB5049CCDE900349B
:108AD000002300F001F81CBD2DE9F0410646DDE958
:108AE00006781C461546084617F0A6FA20B101780C
:108AF00021B19520BDE8F0815620FBE7866005870F
:108B0000878744872D21C0F840800170FFF74AFD18
:108B10000020EFE71CB5049CCDE90034002300F0F1
:108B200001F81CBD2DE9F0410646DDE906781C463A
:108B30001546084617F080FA20B1017821B195203A
:108B4000BDE8F0815620FBE786600587878744876C
:108B50001921C0F840800170FFF724FD0020EFE7E5
:108B60002DE9F04106461C4615460846069F17F0BB
:108B700063FA20B1017821B19520BDE8F08156203B
:108B8000FBE7866005878487172107640170FFF77C
:108B900009FD0020F1E7F8B51E4615460F4617F00F
:108BA00011FA040003D0207818B19520F8BD5620A2
:108BB000F8BD204616F0A7FFC01EA84201DA972094
:108BC000F8BD0096A1892B463A465220FDF756FB88
:108BD000C0B2F8BDF0B5002423460125C65C0022D2
:108BE00005FA02F73E4207D08C4203D102EBC300E4
:108BF000C0B2F0BD641CA4B2521CD2B2082AEFD39A
:108C00005B1CDBB2052BE9D3FF20F0BD10B580B2B1
:108C100016F0C4FF1AF0BEFA0028FBD1BDE81040E0
:108C20001AF0AABA082803D2024951F82000704766
:108C300000207047800400204278891A0844B0F868
:108C4000030070474FF496707047012070472D2045
:108C500070470000014890F86503704748070020FE
:108C6000012070472DE9FC41164C18271E46D4F808
:108C700008C0BCF1000F11D04978D9B12178002586
:108C800079B1FCF78FFC237862882570658002B08B
:108C900039463046BDE8F04117F0C4BB032300223B
:108CA000F5E7002300950195B0F806010222194668
:108CB000E04701E0FCF776FC192030700120BDE8A8
:108CC000FC810000300000202DE9FF4F87B01D46D9
:108CD000DDE914738946824600264FF0060B012415
:108CE000B0463A4629463248FBF7F2FEBD4204D868
:108CF0001DB1DAF82401009046E0012351E06846F6
:108D0000FCF706FFBDF8080008B1A8423CD3B84202
:108D10003DD8CEB158B14FF420516846FCF741FF21
:108D200028B942F601016846FCF73BFF60B14146B5
:108D300020A0FBF7CDFE29F80480A41CA4B2099959
:108D40000026201D884222D8BDF808005FEA0008EE
:108D50001AD068461599FCF724FFA8B1BDF8102079
:108D60001698824210D105991798FBF7A8FA58B9BE
:108D7000BDF8081016A0FBF7ABFEBDF8081029F8E7
:108D80000410A41CA4B2012600980028B7D1012C1D
:108D900006D0072189F8001020460BB0BDE8F08FFF
:108DA0000A232A465946484617F03CFBF5E70000DF
:108DB00030390200456E64206F662067726F7570EF
:108DC0002C2068616E646C65203078253034780022
:108DD000426567696E206F662067726F75702C2020
:108DE00068616E646C65203078253034780000004E
:108DF0002DE9F04F87B09346109F884681461E4666
:108E00004FF0040A012400253A46194628A0FBF732
:108E10005FFEBE4204D81EB1D9F82401009033E0B1
:108E200001233EE06846FCF773FEBDF8080070B30E
:108E3000B8422CD8B04227D3BDF80610880501D51A
:108E4000102000E00220012C02D9A84221D109E023
:108E500008D10546880501D5022100E0012188F8E6
:108E6000011002246019801C584510D8BDF8081064
:108E700028F80410A41CA4B208EB04002A460399A5
:108E8000FBF7E4F9601984B200980028CAD1012CDC
:108E900006D0052088F80000204607B0BDE8F08F16
:108EA0000A2332465146404617F0BCFAF5E7000067
:108EB0004154545F46494E445F494E464F524D41DE
:108EC00054494F4E5F524551554553543A206672AE
:108ED0006F6D202530345820746F202530345800B1
:108EE0002DE9F04F2C4C8346B1F80150B1F803A0A6
:108EF000A06889B0984691460E46162758B12A4672
:108F000002A95846FCF7F7FC38B1BDF80E0001077E
:108F100001D5C00503D403231DE001231BE002A9F2
:108F20005846FDF779F908B1034614E0A9F10500A8
:108F3000711D80B2CDE90010D4F808C0BBF806015D
:108F4000534601222946E04710F0FF0319D0072BB2
:108F500009D00D2B07D02A463946404617F062FA51
:108F600009B0BDE8F08F0D2B02D0072B06D008E02A
:108F700020780D2805D02370658002E02078002835
:108F8000F9D04A4631464046FBF760F9172188F888
:108F900000104846E4E70000300000202DE9F043CF
:108FA00087B016460E9D0C46074699464FF00C08B2
:108FB0002A46194625A0FBF78BFD4A4601A93846EB
:108FC000FCF799FC28B1BDF80A00800703D40223FE
:108FD00007E0012305E001A93846FDF71DF903006C
:108FE00007D04A464146204617F01CFA07B0BDE8B4
:108FF000F083B7F8061101A8FDF7F8F8BDF81400E2
:10900000A0F57F41FF3902D10020ADF8140080B2F5
:10901000A84201D20723E4E7401C401BB04203DD15
:109020007019401EADF81400B7F806010090BDF8A5
:109030001400621C401B83B2294601A8FCF7ECFA1D
:10904000401C0D2180B22170D0E700004154545FD4
:10905000524541445F424C4F425F52455155455342
:10906000543A2068616E646C6520253034782C2079
:109070006F66667365742025750000002DE9FF4F4B
:1090800089B00024DDF858901020CDE906041E4672
:109090008A460125A0460894A3464A4631464348DD
:1090A0000B9BFBF715FD4E4513D896B1DDE917076D
:1090B000022810D0384602F061F840B1B7F80C0031
:1090C0004FF42057B84208D0791C884205D01023AD
:1090D00066E0012364E03888F2E70998D0F82401BB
:1090E000009050E06846FCF713FDBDF8080008B199
:1090F000B04248D3484549D8B8F1000F23D050B109
:1091000039466846FCF74DFD28B942F6010168462C
:10911000FCF747FDB8B108992AF80510AD1CA8B2B4
:109120002AF800B0801C85B20AEB0500221F0799BF
:10913000FBF78CF82819001F85B20B9829194FF0FE
:109140000008814222D8BDF808005FEA000B1AD05F
:10915000DDE917216846FCF7FFFCA0B1BDF810005F
:10916000001D80B2012D02D9A04211D104E003D12B
:1091700004468AF801000225BDF808000890059809
:109180004FF00108079000980028ABD1012D06D0C0
:1091900011208AF8000028460DB0BDE8F08F0A23A0
:1091A00032465046069917F03DF9F5E77839020046
:1091B0002DE9FF4F87B08846149F81464FF0000A83
:1091C0001D464FF0080B012456463A4619463FA06B
:1091D000FBF77EFCBD4204D81DB1D9F824010190F3
:1091E0005CE0012366E001A8FCF792FCBDF80C00EE
:1091F000E8B3A84252D3B84253D8DDE9152101A8FB
:10920000FCF7AAFCA0B3BDF80A00800703D47EBB1C
:10921000BDF80C6042E001A94846FCF7FDFF0300E1
:1092200002D0012C3FD845E0B9F8061101A8FCF79F
:10923000DDFFBDF81400A0F57F41FF392ED0801C62
:1092400080B2012C02D982452DD104E003D182469F
:1092500088F801000224099804EB0A0181420AD926
:10926000022C20D8001FADF81400801C01E018E08B
:1092700014E088F80100BDF80C1028F80410B9F8C3
:109280000601A41C0090A4B2BDF8143008EB04023F
:10929000002101A8FCF7C0F9204484B201980028FD
:1092A000A1D1012C08D9092188F8001020460BB063
:1092B000BDE8F08F2A4602E036B102233246594615
:1092C000404617F0AFF8F2E70A23F3E74154545F42
:1092D000524541445F42595F545950455F52455190
:1092E000554553543A2066726F6D2025303458200E
:1092F000746F20253034582C20747970653A200022
:109300002DE9FF4F87B0884683461F464FF00E0970
:109310000124194628A0DDF850A0FBF7D9FB002551
:1093200043E000BF3AF815605EB1324601A95846E5
:10933000FCF7E1FA28B1BDF80A00800703D4022344
:1093400007E0012305E001A95846FCF765FF03008B
:1093500007D032464946404617F064F80BB0BDE8E6
:10936000F08FBBF8061101A8FCF740FFBDF8140010
:10937000A0F57F41FF3902D10020ADF8140080B282
:1093800001190998814202D9401EADF81400BBF8BA
:1093900006010090BDF8143008EB0402002101A87A
:1093A000FCF73AF9204484B26D1CBD42BADB0F21B0
:1093B00088F800102046D1E74154545F524541449B
:1093C0005F4D554C5449504C455F5245515545539E
:1093D000543A206E756D2068616E646C657320254B
:1093E000750000002DE9F04387B015460C4606468F
:1093F00099464FF00A081A4601A9FCF77CFA07467D
:1094000049461EA0FBF764FB2FB1BDF80A00800798
:1094100003D4022307E0012305E001A93046FCF74D
:10942000FBFE030007D04A464146204616F0FAFFED
:1094300007B0BDE8F083B6F8061101A8FCF7D6FE28
:10944000BDF814004FF6FF71884201D10846EFE7DE
:10945000401CA84202D96D1EADF81450B6F80601A2
:109460000090BDF81430621C002101A8FCF7D4F86C
:10947000401C0B2180B22170DAE700004154545F98
:10948000524541445F524551554553543A20686115
:109490006E646C6520253034780000002DE9F041C1
:1094A000154F8046B1F80150B86888B016460C4692
:1094B00000281ED02A4602A94046FCF71CFA0028C4
:1094C00017D0BDF80E00C10513D5400711D502A96C
:1094D0004046FCF7A1FE00280BD1F61EE41CB0B2FA
:1094E000CDE900400023BC68B8F806011A462946B9
:1094F000A04708B0BDE8F081300000202DE9F0471A
:10950000B1F8015088B090460C461E4681464FF097
:10951000120A2A4602A9FCF7EEF950B1164FB868B4
:1095200028B1BDF80E00010701D5C00503D40323FF
:1095300016E0012314E002A94846FCF76DFE030083
:109540000ED1A8F1030080B2E41CCDE90040BC6854
:10955000B9F806011A462946A04710F0FF0307D0C4
:109560002A465146304616F05DFF08B0BDE8F08748
:10957000132030700120F8E730000020AFF30080A6
:109580002DE9F0411E4F002600F1130497F8241036
:109590003546491C87F82410017CB9B1012923D034
:1095A000032917D0042925D040F2A11215A10020CB
:1095B000FBF7EEFF0E202070E81C607097F8240087
:1095C000A070A4F80360681DBDE8F08180681149AF
:1095D0001A3804E080681049A0F54030383801EBB3
:1095E000C00046884578E5E780680C49A0F58030E2
:1095F0001938F4E780680A49A0F58020801EEEE75C
:10960000500B0020626C655F686369635F6D736710
:109610002E630000A846020048470200604802008E
:10962000604902002DE9F0411F4F054600F1120488
:1096300097F824000026401C87F82400287CC0B13D
:10964000012820D0032817D0042824D04FF45772C3
:1096500016A10020FBF79CFF0F20207004206070F3
:10966000287EA07097F82400E070A6800620BDE850
:10967000F0811249A86801E01149A86801EBC00017
:1096800030F8CE6CE8E70F49A86801EBC000A0F500
:109690000020C63806E00C49A86801EBC000A0F520
:1096A00000100E380688D7E7500B0020626C655F0B
:1096B000686369635F6D73672E630000A8460200EC
:1096C0004847020060480200604902001A21017503
:1096D000012141750320704710B5837E4FF6FF745A
:1096E00004EA0333048B016AC4F30B04828B234323
:1096F0008B82808BC882101D10BD052282750422CA
:10970000C275428BA0F81920017FC17606207047F0
:1097100008230178002200F05DB8000010B504882D
:10972000A0F11801082C04D2012202EB0422CA6025
:1097300013E0084615F0CAFB06230122052109485B
:1097400015F0B0FC0849B1F8382191F83A1142EA15
:1097500081210180022181708480BDE8104015F0D4
:1097600013BE00002E000100500B0020FF21C1702D
:109770000021817115F008BE42F23401A0F85310A7
:109780000021017181717F21C17115F0FDBD42F28F
:109790005001A0F853107F228379C11D5A5415F04F
:1097A000F3BDFF21417000218170FFF7DFBF082367
:1097B0000188042200F00EB842F21E01A0F85310F6
:1097C0000121C1700021017181717F21C17115F0EA
:1097D000DBBD000070B5044618381546994207D223
:1097E00042EA0121C1602046BDE8704015F0CCBDC1
:1097F00015F06CFB06484222B0F8381190F83A0197
:1098000041EA802081B22846BDE8704000F034BBB8
:10981000500B0020082282750422C275428BA0F8EA
:109820001920017FC1760620704730218175032100
:10983000C17500F11901408B08800520704700F0C8
:10984000F6BB00F0F3BBF0B58FB0044610F8011B77
:109850008DF8001001788DF8011041788DF8021014
:1098600050F8021FCDF803108188ADF807100022D0
:109870008579C01D114601276B4607FA01F62E4275
:1098800005D002EB02161E44521C7172D2B2491C62
:10989000C9B20229F1D9002515E005EB05111944DB
:1098A00006884E8146888E818688CE81C6880E8243
:1098B00006894E8246898E828689CE82C68910307C
:1098C0006D1C0E83EDB29542E7D3032005E002EB59
:1098D00002111944521C4872D2B2032AF7D33C2217
:1098E00069462046FAF7B2FC204615F04DFD0FB050
:1098F000F0BD0000084A00F1130113785B1C1370DF
:109900000E23C3740423037512784275028BC2823E
:10991000807E487106207047740B00200A4A00F1CF
:10992000130113785B1C13700E23C3740623037595
:1099300012784275028BC282827E0276B0F81B00DA
:10994000C880082070470000740B0020084A00F10E
:10995000130113785B1C13700F23C3740423037566
:10996000837E437512788275008B8880062070474D
:10997000740B0020407E801C7047000070B50023EF
:109980000B4D04466722981800EBD070411001EB94
:10999000410005EB80000688A64208D002D9A1F15B
:1099A000010201E001F101039342ECDD002070BDF2
:1099B000C8410200B0F803108180B0F80510C180E2
:1099C00015F0E2BC30B401780BE000BF00EB81027F
:1099D00032F8034D20F81140538800EB4102491E34
:1099E00013820029F2DC30BC15F0CEBC1021817549
:1099F0000121C1750320704710B500220F490520D1
:109A000015F074F90E4C206808B9A06800B1012067
:109A100040F287520BA1FBF7BBFD0020E0620A2059
:109A200084F8240000F016F805481830FCF7D4FE3E
:109A3000BDE810400649042015F0D6BCB84102002C
:109A4000500B0020626C655F686369632E630000E1
:109A500035A0000003480021418001704171C160C0
:109A600070470000700B00202DE9F0418CB000F130
:109A700018063E2100F8161F451C041D022096F80A
:109A80000180287000272FE007EBC70000EB47108C
:109A90008119891C29226846FAF7D8FB9DF8000035
:109AA00020709DF801006070DDF8020044F8020F9C
:109AB000BDF80600A0809DF80810A171E41D0020EB
:109AC0006A4605E01318401C5B7A04F8013BC0B2FB
:109AD0008142F7D89DF8280004F8010B2878084443
