:020000040200F8
:10200000001F12401922000249220002252100026D
:102010004D2200024F220002512200020000000067
:102020000000000000000000000000003F2100024E
:102030005522000200000000992100023D310002FB
:102040005B2200025B22000211310002292D0002F6
:10205000192D000289310002793100026931000234
:10206000C9310002812F0002CD2C0002EB190020A3
:10207000E11700205B220002E12C0002F130000297
:1020800021310002452E0002A931000299310002DF
:10209000352E0002252E0002F12C0002752E0002C2
:1020A000512F00025B220002552E0002652E000215
:1020B000E1300002D1300002C1300002B93100022B
:1020C000B92E0002A92E000201310002A12F000248
:1020D000912F0002612F0002712F0002B12F000228
:1020E000C12F0002D12F0002E12F00025B2200026B
:1020F0005B2200025B220002BD2C00020200022BC8
:1021000000800202DFF810D000F08EF9004800478E
:1021100099C40102AFF300802468002030B58047E5
:1021200030BD00BF1EF0040F0CBFEFF30880EFF3CB
:10213000098081694DF28D22C0F2012210472C4B9B
:1021400019680868B0E8F04F80F30988BFF36F8F13
:102150004FF0000080F31188704700BF00000000BE
:1021600007480068006880F308884FF0000080F39B
:10217000148862B661B6BFF34F8FBFF36F8F00DF75
:1021800038320020DFF80C00016841F47001016072
:10219000704700BF88ED00E0EFF30980BFF36F8F59
:1021A000134B1A681EF0100F08BF20ED108A20E9AB
:1021B000F04F106009B44FF0080080F31188BFF3AE
:1021C0004F8FBFF36F8F1FF0E3FA4FF0000080F3E3
:1021D000118809BC19680868B0E8F04F1EF0100FAC
:1021E00008BFB0EC108A80F30988BFF36F8F704787
:1021F0006C320020EFF305807047000044F6206049
:1022000000BF401EFCD1284740BA704740BA704713
:10221000C0BA7047C0BA70471048016821F0020187
:1022200001600F48016811F0010F21F00101016008
:1022300004D00C4880470C48006800470B48804792
:102240000B4800470B480047FEE7FEE7FEE7FEE7C6
:10225000FEE7FEE7FEE7FEE7FEE7FEE708000040D8
:1022600010011040E9540002306600204154000281
:102270002924000299C401022DE9F0035FEA930CBE
:102280006FD000BF30F8024B31F8026B30F8025BC0
:1022900031F8027B14FB06F84FEA684815FB07F992
:1022A000A8EB694822F8028B14FB07F4641415FBB1
:1022B00006F504EB654422F8024B30F8024B31F886
:1022C000026B30F8025B31F8027B14FB06F84FEA30
:1022D000684815FB07F9A8EB694822F8028B14FB44
:1022E00007F4641415FB06F504EB654422F8024B71
:1022F00030F8024B31F8026B30F8025B31F8027BA8
:1023000014FB06F84FEA684815FB07F9A8EB694883
:1023100022F8028B14FB07F4641415FB06F504EB9A
:10232000654422F8024B30F8024B31F8026B30F86A
:10233000025B31F8027B14FB06F84FEA684815FB94
:1023400007F9A8EB694822F8028B14FB07F4641420
:1023500015FB06F504EB654422F8024BBCF1010CB9
:1023600090D113F0030304BFBDE8F003704700BF32
:1023700030F8024B31F802CB30F8025B31F8026BD7
:1023800014FB0CF77F1415FB06F8A7EB684722F83F
:10239000027B14FB06F4641415FB0CFC04EB6C4C80
:1023A00022F802CB5B1EE3D1BDE8F00370470000CA
:1023B00000F5005000B20028BCBF00F5004000B29C
:1023C00081090B4BA0EB8110400233F9112003EB84
:1023D000410100B2C0F5004349885A43121410FB72
:1023E00001F000EB02400014400000B27047000012
:1023F0006842020281090B4BA0EB8110400233F9C5
:10240000112003EB410100B2C0F5004349885A4353
:10241000121410FB01F000EB02400014400000B267
:102420007047000068420202064C074D06E0E06873
:1024300040F0010394E8070098471034AC42F6D30B
:10244000FFF764FE604C0202904C02022DE9F05F3F
:102450000546002092469B46884606468146402413
:102460001BE0284641464746224600F06BF853469B
:102470005A46C01A914110D311461846224600F020
:1024800052F82D1A67EB01084F4622460120002121
:1024900000F049F817EB00094E41201EA4F1010499
:1024A000DFDC484631462A464346BDE8F09FD2B2BB
:1024B00001E000F8012B491EFBD270470022F6E72D
:1024C00010B513460A4604461946FFF7F0FF2046AA
:1024D00010BD421C10F8011B0029FBD1801A704767
:1024E00030B504460020034600E05B1C934203D253
:1024F000E05CCD5C401BF8D030BD30B50B460146EA
:1025000000202022012409E021FA02F59D4205D392
:1025100003FA02F5491B04FA02F52844151EA2F13C
:102520000102F1DC30BD202A04DB203A00FA02F17E
:10253000002070479140C2F1200320FA03F31943B1
:1025400090407047202A04DB203A21FA02F0002153
:10255000704721FA02F3D040C2F1200291400843B3
:10256000194670472DE9FE4F804681EA0300C00FEF
:102570000C46009021F0004123F00045B8EB02002A
:10258000A94105D24046214690461C460B460246CC
:1025900023F00040104347D0270DC7F30A00C3F3D0
:1025A0000A510290401A019040286BDAC3F31300DD
:1025B00040F4801B0098924620B10023D2EB030A1E
:1025C00063EB0B0B01985946C0F140025046FFF7F0
:1025D000AAFF06460D4650465946019A00F07AF980
:1025E00010EB08006141002487EA115284EAE77386
:1025F0001A4340D0009A62B3019A012A4FEA075267
:1026000015DC001B61EB02014FF0004202EA0752A9
:10261000CDE90042001C41F5801132462B4600F006
:102620007AF903B0BDE8F08F40462146F9E7001B78
:1026300061EB0201001C41F5801300185B4120187A
:10264000A2F5001747EB030140EAD570B6196D41BA
:1026500011E06D084FEA360645EAC0754FEA0752A9
:10266000001B61EB0201001C41F5801149084FEA93
:1026700030000019514132462B4603B0BDE8F04FFF
:1026800000F03AB90098012240000023D0EB02028A
:1026900063EBE073009821464FEAE074B8EB00006A
:1026A00061EB0401E9E783F000435BE781F000415F
:1026B00058E72DE9FE4F81EA030404F0004421F0BD
:1026C000004100944FF0000B23F0004350EA010456
:1026D0005ED052EA03045BD0C3F30A54C1F30A5537
:1026E0002C44A4F2F3340194A0FB0254C1F313016F
:1026F00041F48011C3F3130343F4801301FB02443C
:1027000000FB034E840A970A44EA815447EA835740
:10271000A4FB076802958D0A05FB07854FEA932CF9
:1027200004FB0C542705029D4FEA065847EA16376A
:10273000B5EB08056EEB070C870E920E47EA811782
:1027400042EA8312A7FB0201B6EB0B0164EB000423
:102750002B0D43EA0C335E1844EB1C50DA4651460D
:10276000E7FB0201C5F313044FEA0B3343EA1453AA
:102770004FEA0432019C43EA0603A4F10C040294DC
:10278000009CCDE900B400F0C6F803B0BDE8F08FBE
:1027900000200146F9E72DE9F04D81EA030404F039
:1027A000004B21F0004514464FF0000A23F0004191
:1027B00050EA050220D054EA01021DD0C5F30A57A1
:1027C0000246C5F31303C1F31300C1F30A5640F4E4
:1027D000801543F48013A7EB0608101BD64608F2B9
:1027E000FD3873EB050002D308F1010801E09218EF
:1027F0005B41B8F1000F03DA00200146BDE8F08D1F
:1028000000204FF48011064684460EE0171B73EB40
:10281000050705D3121B63EB050306434CEA010CC5
:1028200049084FEA300092185B4150EA0107EDD1A8
:1028300052EA030012D082EA040083EA0501084349
:1028400005D0101BAB4106D20122002306E0002276
:102850004FF0004302E06FF0010253101AEB060044
:102860004CEB085110EB0A0041EB0B01BDE8F04DB9
:1028700000F042B8C1F30A52C1F3130140F2FF3332
:1028800041F480119A4202DA00200146704740F27A
:1028900033439A42A2F2334202DC5242FFF752BE65
:1028A000FFF741BE30B5041E71F1000404DB4FF0A8
:1028B0000044404264EB0101141E73F1000405DB87
:1028C0001C464FF00043524263EB0403994208BF99
:1028D000904230BD202A06DBCB17203A41FA02F0A5
:1028E00043EAE07306E041FA02F3D040C2F120026D
:1028F000914008431946704710B5141E73F1000447
:1029000008DA401C41F1000192185B411A4301D1E1
:1029100020F0010010BD2DE9F04D92469B4611B10B
:10292000B1FA81F202E0B0FA80F220329046FFF76D
:10293000FAFD04460F4640EA0A0041EA0B015346FD
:102940005A46084313D0114653EA010019D0C8F182
:1029500040025046FFF7F6FD05460E4650465946E2
:102960004246FFF7E0FD084305D0012004E0204681
:102970003946BDE8F08D0020054346EAE0762C4359
:1029800037430A986305E40AA0EB08000022FD0A19
:1029900044EA47540A3002D500200146E9E7010520
:1029A00010196941DDE9084500196941BDE8F04D9C
:1029B000A2E770B58C1810F8015B15F0070301D180
:1029C00010F8013B2A1106D110F8012B03E010F892
:1029D000016B01F8016B5B1EF9D12B0705D40023B5
:1029E000521E0DD401F8013BFAE710F8013BCB1A57
:1029F000921C03E013F8015B01F8015B521EF9D54C
:102A0000A142D8D3002070BD41F6ED5CC2F2000CAB
:102A1000604740F2A51CC2F2000C604740F2B56C62
:102A2000C2F2000C604740F2814CC2F2000C6047D9
:102A300042F6916CC2F2000C604740F2811CC2F277
:102A4000000C604741F68D5CC2F2000C604741F615
:102A5000A95CC2F2000C604741F6D95CC2F2000CDE
:102A6000604740F61D1CC2F2000C604740F2ED2C9E
:102A7000C2F2000C604740F2193CC2F2000C604701
:102A800041F6452CC2F2000C604741F6316CC2F2AF
:102A9000000C604741F6732CC2F2000C604740F610
:102AA000F30CC2F2000C604742F6916CC2F2000CCB
:102AB000604742F6916CC2F2000C604740F2CD6C68
:102AC000C2F2000C604742F22D2CC2F2000C6047AB
:102AD00041F6DD3CC2F2000C604742F2E90CC2F262
:102AE000000C604741F6CD2CC2F2000C604741F665
:102AF000555CC2F2000C604741F6CB5CC2F2000CA0
:102B0000604742F2A91CC2F2000C604742F66D6CAD
:102B1000C2F2000C604741F6CB3CC2F2000C6047A9
:102B200042F2790CC2F2000C604740F62D2CC2F242
:102B3000000C604742F6C91CC2F2000C604741F627
:102B4000C96CC2F2000C604742F2052CC2F2000CC4
:102B5000604740F6393CC2F2000C604740F6A12CB9
:102B6000C2F2000C604740F6811CC2F2000C6047C4
:102B700040F6472CC2F2000C604741F2911CC2F2B1
:102B8000000C604740F2ED6CC2F2000C604740F66A
:102B90006B4CC2F2000C604740F20D7CC2F2000C9C
:102BA000604740F65D2CC2F2000C604741F2DB1C2E
:102BB000C2F2000C604740F6E95CC2F2000C6047CC
:102BC00040F6ED6CC2F2000C604740F6656CC2F254
:102BD000000C604740F6417CC2F2000C604740F6B2
:102BE0000D7CC2F2000C604740F6697CC2F2000C1A
:102BF000604740F6DB7CC2F2000C604741F28F0C6C
:102C0000C2F2000C604740F6BF4CC2F2000C6047B5
:102C100040F6C94CC2F2000C604742F28F3CC2F24F
:102C2000000C604741F2952CC2F2000C604742F262
:102C3000E93CC2F2000C604742F69B1CC2F2000C59
:102C4000604742F2213CC2F2000C604742F6816CC0
:102C5000C2F2000C604742F2BF2CC2F2000C604787
:102C600040F2BF2CC2F2000C604740F2F92CC2F2D5
:102C7000000C604740F2EF5CC2F2000C604740F28B
:102C80003B5CC2F2000C604741F27D3CC2F2000C9A
:102C9000604741F2A77CC2F2000C604741F2857C9C
:102CA000C2F2000C604743F2A11CC2F2000C604764
:102CB00043F2C11CC2F2000C60470000024824210C
:102CC000806807F01DB80000243200200348016826
:102CD00041F0200101600120FFF796BE0000134083
:102CE00002480921806807F00BB800002432002058
:102CF00002481021806807F003B800002432002049
:102D0000044800680122C0F308010920891EFFF76A
:102D100080BE000004ED00E002480121806806F05A
:102D2000EFBF00002432002002480221806806F034
:102D3000E7BF00002432002010B5C368D9B2802953
:102D40000FD98468E06800B101204B2213A1FFF77E
:102D500065FEE16819B12069BDE81040084772B608
:102D6000FEE70446008A616982B2D8B2124B1B6842
:102D7000984706F0F7FB00280FD1E068022806D03C
:102D800004280AD1A069BDE8104006F0E5BBA08B7D
:102D9000A169BDE8104006F0DDBB10BD4863695F66
:102DA000696E7465726E616C5F7472616E73706F60
:102DB00072742E6300000000E83300201FB54168E4
:102DC0000A2914D007DC09B105291FD104B0BDE8D8
:102DD0001040FFF7B1BF0B2919D00C2916D1018A79
:102DE000C268406904B089B2BDE8104010470C4980
:102DF0001EC98DE81E00C168019141690291008AD7
:102E0000ADF80C001021684606F0E2F91FBD018AFA
:102E10008AB24169C06804B0BDE8104008F00AB841
:102E2000642C020202480E21806806F069BF00008F
:102E30002432002002480F21806806F061BF0000A4
:102E40002432002002480B21806806F059BF0000A0
:102E50002432002002481221806806F051BF000091
:102E60002432002002481321806806F049BF000088
:102E70002432002002481121806806F041BF000082
:102E800024320020074A131D5980116860F307019E
:102E90001160106840F40070106010688005FCD468
:102EA000704700000804114002481C21806806F0A9
:102EB00027BF00002432002002481B21806806F052
:102EC0001FBF00002432002000F01F0201219140AA
:102ED0004009800000F1E020C0F88012704700F047
:102EE0001F02012191404009800000F1E020C0F85C
:102EF00000117047C906090E002806DA00F00F001D
:102F000000F1E02080F8141D704700F1E02080F807
:102F100000147047024A11400143024801607047A3
:102F200080FFFF1F08ED00E000B589B01AF03CFDFE
:102F3000816803910021CDE9011004480B464A1E27
:102F4000694600681EF006FE09B000BD5032002040
:102F500002481421806806F0D3BE0000243200200D
:102F600002481521806806F0CBBE00002432002004
:102F700002481621806806F0C3BE000024320020FB
:102F800002480721806806F0BBBE00002432002002
:102F900002481E21806806F0B3BE000024320020E3
:102FA00002481D21806806F0ABBE000024320020DC
:102FB00002481F21806806F0A3BE000024320020D2
:102FC00002482021806806F09BBE000024320020C9
:102FD00002482121806806F093BE000024320020C0
:102FE00002482221806806F08BBE000024320020B7
:102FF0002F492E48C1F890012E48C1F894014FF492
:103000000040086342F2412048632B48826942F045
:1030100080428261026922F07F7202F54002026101
:10302000826922F4700202F580128261826942F4A0
:103030007022826182696FF30F02103282614A6AE4
:1030400022F4601202F500224A624A6A22F4F8521F
:1030500002F500724A62826922F07C5202F1C85283
:103060008261D1F8602122F4FC0202F5B402C1F8B9
:103070006021016801680E2262F31F71016081689E
:10308000C90D21F0F00141F03002816862F3DE5198
:103090008160C168C168022262F38A11C16001685F
:1030A0000168092262F344010160704707060204C7
:1030B000000010400103040500201040704700008C
:1030C00002481721806806F01BBE00002432002051
:1030D00002481821806806F013BE00002432002048
:1030E00002481921806806F00BBE0000243200203F
:1030F00002480821806806F003BE00002432002048
:1031000002482321806806F0FBBD00002432002025
:1031100002480021806806F0F3BD00002432002040
:1031200002480A21806806F0EBBD0000243200202E
:1031300001494872704700007C33002010B5082018
:1031400080F31188BFF34F8FBFF36F8FFFF76BFCD6
:1031500018B104494FF080500860002080F31188B6
:1031600010BD000004ED00E002480321806806F075
:10317000C7BD00002432002002480421806806F008
:10318000BFBD00002432002002480521806806F0FF
:10319000B7BD00002432002002480C21806806F0F0
:1031A000AFBD00002432002002480D21806806F0E7
:1031B000A7BD00002432002002481A21806806F0D2
:1031C0009FBD00002432002002480621806806F0DE
:1031D00097BD0000243200200FB4054B10B503A9A1
:1031E000044A029800F0FEF810BC5DF814FB0000E1
:1031F000195D0002403500200FB4084B10B504A93A
:1032000002AA039800F0EEF8044602A9002000F09C
:1032100097FE204610BC5DF814FB0000413F000201
:10322000014B024A00F0E0BA195D0002403500206F
:1032300070477047704770477047704770477047D6
:1032400002E008C8121F08C1002AFAD1704770476F
:10325000002001E001C1121F002AFBD170470000CD
:103260002DE9FF5F82B00021DDE90430020DDDF8B9
:1032700040B0034318D044F61050A2F2FF3242434C
:103280001514119801281FD0A5EB0B00401C5FEA14
:10329000000A4FF000064E4FDFF83891B046504616
:1032A00015D5CAF1000413E0119801244AA301289E
:1032B00001D16FEA0B010298119AC0E90031C0E90F
:1032C000024206B0BDE8F09FCBF10000DFE7044604
:1032D0000021404A491842EB0450CDE9001012E0A9
:1032E000E00707D032463B4640464946FFF7E1F942
:1032F0008046894632463B4610461946FFF7D9F9C3
:1033000006460F466410002CEAD1DDE90401DDE930
:103310000023BAF1000F06DAFFF7CBF942464B461D
:10332000FFF7C7F905E0FFF736FA42464B46FFF7CD
:1033300032FA04460E460022284BFFF7B3FA03D8B0
:103340004FF0FF30014607E00022254B2046314672
:10335000FFF708F9FFF78EFA102409E0002C0ADBCA
:103360000A220023FFF772F8039B30321A55641EBD
:1033700050EA0102F2D1641C039AC4F1110314440F
:10338000119A012A03D0012208430DD10AE0084313
:1033900004D000204FF0110B119072E7A3EB0B0546
:1033A0006D1E0DE05B4504DD4FF0000205F10105E7
:1033B00004E003DA4FF00002A5F10105002AECD089
:1033C00002981199C0E90231C0E9004579E700008F
:1033D000000014400000F03F300000000000F04307
:1033E0000000E03F2DE9FF4F8DB00F460546002657
:1033F00006E025280BD0DDE90F1290476D1C761CE6
:1034000028780028F5D111B03046BDE8F08F0024AF
:10341000A246A1460122E94900E0044315F8013F14
:10342000203B02FA03F00842F7D128782A2810D06E
:103430006FF02F022878A0F13001092914D80AEB87
:103440008A0102EB410144F0020400EB010A6D1C09
:10345000F0E701CF5FEA000A03D544F40054CAF153
:10346000000A44F002046D1C28782E2817D115F8A4
:10347000010F44F004042A280ED06FF02F022878A0
:10348000A0F1300109290AD809EB890102EB4101B9
:1034900000EB01096D1CF2E757F8049B6D1C2878BE
:1034A0006C280FD006DC4C2817D068280DD06A286D
:1034B00014D104E0742810D07A280FD10DE044F420
:1034C00000140AE044F4801401E044F440146978E4
:1034D000814202D104F580146D1C6D1C28786E2881
:1034E0001ED00CDC632830D004DC00288BD0582898
:1034F00011D19FE0642867D069280CD164E073285B
:103500002DD004DC6F2872D0702804D194E0752887
:103510006ED078286DD0DDE90F129047761C4BE114
:10352000C4F30250022806D0032809D0042801CF92
:1035300009D0066040E101CFF117C0E900613BE12D
:1035400001CF068038E1067036E117F8040B8DF8DC
:10355000000000208DF80100EB46012003E057F841
:1035600004BB4FF0FF3061074FF0000102D40DE0C3
:1035700008F10101884649450FDA8045F8DB1BF860
:1035800008100029F4D108E008F1010188468142C1
:10359000FADB1BF808100029F6D1DDE90F23AAEBAE
:1035A00008008146214600F09DFC304400EB0806EF
:1035B00004E0DDE90F121BF8010B9047B8F1010898
:1035C000F7D221464846F2E00A21C4F302524FF0F6
:1035D000000B0891022A04D001CFC117032A09D099
:1035E0000AE0FF1D27F00707F7E8020108E02CE0DA
:1035F0001EE01FE000B2C117042A01D140B2C1177A
:10360000021E71F1000206DA0023D0EB030063EB27
:1036100001012D2202E0220504D52B228DF8242061
:10362000012203E0E20701D02022F7E7904653E0B1
:103630000A210BE0102109E010214FF0000B44F0AB
:1036400004044FF00809089103E008214FF0000B33
:103650000891C4F30252022A04D001CF0021032AA8
:1036600006D006E0FF1D27F00707F7E8020103E098
:1036700080B2042A00D1C0B24FF0000822072BD537
:103680002A78702A07D0DDF820C08CF0100C5CEA94
:103690000B0C05D00EE040228DF82420012208E01A
:1036A00050EA010306D030238DF824308DF8252010
:1036B00002229046089B83F0080353EA0B030BD1C8
:1036C00050EA010201D1620706D530228DF824208C
:1036D0004FF00108A9F101092A78582A04D038A22C
:1036E0000B9208AA0A920BE03AA2F9E75B46089A05
:1036F000FEF7ACFE0B9B9B5C0A9A521E0A9213705B
:1037000050EA0102F2D10A98ADEB000000F1200B63
:10371000600702D524F4803401E04FF00109D94557
:1037200002DDA9EB0B0000E0002000EB0B0141449F
:103730000890AAEB010AE00306D4DDE90F23214635
:10374000504600F0CFFB06444FF0000908E009A9FD
:1037500011F80900DDE90F12904709F10109761C03
:10376000C145F4DBE0030CD5DDE90F2321465046CB
:1037700000F0B8FB064404E0DDE90F12302090476A
:10378000761C0899481E08900029F5DC08E00A9884
:103790000A990078491C0A91DDE90F129047761CBE
:1037A000BBF10001ABF1010BF1DC21465046DDE934
:1037B0000F2300F073FB06446D1C21E6092801006D
:1037C0003031323334353637383961626364656697
:1037D0000000000030313233343536373839414259
:1037E00043444546000000002DE9FF4F95B09A463E
:1037F000884606460025EEE1252877D10024274695
:10380000F94A0121039400E0044316F8013F203BEC
:1038100001FA03F01042F7D130782A2811D06FF066
:103820002F033078A0F13002092A16D8039A44F009
:10383000020402EB820203EB42021044761C039066
:10384000EFE758F8042B0392002A03DA504244F4BD
:103850000054039044F00204761C30782E2816D1D0
:1038600016F8010F44F004042A280DD06FF02F023F
:103870003078A0F13003092B09D807EB870302EB5E
:103880004303C718761CF3E758F8047B761C30789E
:103890006C280FD006DC4C2817D068280DD06A2879
:1038A00014D104E0742810D07A280FD10DE044F42C
:1038B00000140AE044F4801401E044F440147278E7
:1038C000824202D104F58014761C761C307866287A
:1038D0000BD013DC582877D009DC002875D0452898
:1038E000F6D04628F4D047281AD193E118E063288F
:1038F00035D0642879D0652812D18BE1702873D037
:1039000008DC6728F1D069286FD06E280DD06F28A9
:1039100006D1ACE073282CD0752874D0782853D009
:103920005246179990476D1C54E1C4F30250022887
:1039300009D003280DD0D8F8001004280DD00D6050
:1039400008F1040846E1D8F80010EA17C1E900526E
:10395000F6E7D8F800100D80F2E70D70F0E718F8E0
:10396000041B8DF8001000208DF80100EB460120AB
:1039700003E058F804BB4FF0FF3061074FF000013F
:1039800002D40DE009F101018946B9420FDA8145FF
:10399000F8DB1BF809100029F4D108E009F1010156
:1039A00089468142FADB1BF809100029F6D10398F9
:1039B0005346A0EB090721463846179A00F0A9FAAA
:1039C000284400EB090507E044E008E10DE01BF89E
:1039D000010B524617999047B9F10109F7D25346A6
:1039E00021463846179AF2E039E00A21C4F3025220
:1039F0004FF0000B0091022A06D058F8040BC117B3
:103A0000032A09D00AE023E008F1070020F00702AA
:103A1000F2E80201904605E000B2C117042A01D184
:103A200040B2C117002906DA0A460021404261EB84
:103A300002012D2202E0220504D52B228DF804205C
:103A4000012203E0E20701D02022F7E7914657E088
:103A50000A2100E010214FF0000B00910BE0102133
:103A60004FF0000B44F004040827009103E0082005
:103A70004FF0000B0090C4F30252022A05D058F810
:103A8000040B0021032A08D008E008F1070020F009
:103A90000702F2E80201904603E080B2042A00D156
:103AA000C0B24FF0000922072AD53278702A07D019
:103AB000DDF800C08CF0100C5CEA0B0C05D00EE0B9
:103AC00040228DF80420012208E050EA010306D0CC
:103AD00030238DF804308DF8052002229146009B9A
:103AE00083F0080353EA0B030AD150EA010201D123
:103AF000620705D530228DF804204FF001097F1EA2
:103B00003278582A04D039A20C920CAA02920BE007
:103B10003BA2F9E75B46009AFEF798FC0C9B9B5C86
:103B2000029A521E0292137050EA0102F2D10298D8
:103B300004A9081A00F1200B600702D524F4803490
:103B400000E001275F4502DDA7EB0B0000E000204D
:103B500000EB0B01009003984944401A0390E003E6
:103B600006D453462146179A039800F0D2F905442B
:103B7000002706E001A85246C05D179990476D1CCA
:103B80007F1C4F45F6DBE0030CD553462146179AC0
:103B9000039800F0BEF9054404E03020524617991E
:103BA00090476D1C0099481E00900029F5DC08E044
:103BB0000298029952460078491C02911799904741
:103BC0006D1CBBF10001ABF1010BF1DC5BE100F01E
:103BD00077F90544761C307800287FF40DAE19B0D3
:103BE0002846BDE8F08F000009280100303132334B
:103BF0003435363738396162636465660000000029
:103C00003031323334353637383941424344454612
:103C100000000000600700D4062708F1070020F02C
:103C20000700F0E80223804603F0004C5FEA0C0036
:103C300001D097A009E0200501D596A005E0E00796
:103C400001D095A001E0AFF24C001390307823F042
:103C5000004365280CD006DC452809D046281DD035
:103C600047287FD13BE0662818D067287AD136E014
:103C70000021112F01DB112000E0781CCDE90001AB
:103C800004A90CA8FFF7ECFADDE90D010C9A4FF03E
:103C9000000B07F10109109200914EE04FF0004037
:103CA0000097CDE9011004A90CA8FFF7D9FADDE9C6
:103CB0000D020C9B0F994FF0000B91461093009250
:103CC00011B9791C00EB0109B7EB090003D4C0F16D
:103CD000FF3B07F10109A9EB0700019042E0012F2A
:103CE00000DA01270021112F01DD112000E0384604
:103CF000CDE9000104A90CA8FFF7B2FADDE90D0136
:103D00000C9A00914FF0000BB946109221070FD486
:103D1000009A4A4503DA914601E0A9F10109B9F197
:103D2000010F05DD109AA9F10101515C3029F4D091
:103D3000B84202DA10F1040F03DA0121CDE90110D3
:103D400010E0002803DC8344A9EB000102E0411CE1
:103D5000494500DD8946A0EB0B00401C01904FF067
:103D600000400290200705D40198484502DB4FF03F
:103D7000FF30019000208DF84B0002980DF14B07A9
:103D8000B0F1004F25D002200C902B200D9002980E
:103D900000280CDA404202902D200D9007E00A2105
:103DA0000298FEF7AAFB3031029007F8011D0C992A
:103DB000481E0C900029F2DC02980028EFD1791EF1
:103DC0000D980870307800F0200040F0450007F8AA
:103DD000020D11A8C01BC01D02901398007800B1FD
:103DE000012000EB0901019801EBE0710298014408
:103DF0000398401A401E0390E00306D45346214620
:103E0000179A039800F085F805441398007818B1C4
:103E10005246179990476D1CE00323D5534621461F
:103E2000179A039800F075F805441BE0BBF1000FEA
:103E300007DB0098584504DD1098179910F80B001F
:103E400001E0179930205246904701980BF1010B81
:103E5000401E05F10105019004D12E20524617990C
:103E600090476D1CB9F10001A9F10109DEDC05E004
:103E700017F8010B5246179990476D1C0299481E7E
:103E800002900029F4DC53462146179A03989EE6D7
:103E90002D0000002B000000200000002DE9F04163
:103EA000044600251E461746880404D405E039461A
:103EB0002020B0476D1C641EF9D52846BDE8F0816E
:103EC0002DE9F041044600251E461746880404D417
:103ED00005E039462020B0476D1C641EF9D5284600
:103EE000BDE8F0812DE9F041044600251E469046CC
:103EF000C80301D5302700E02027880404D505E059
:103F000041463846B0476D1C641EF9D52846BDE8C9
:103F1000F0812DE9F041044600251E469046C80375
:103F200001D5302700E02027880404D505E041466C
:103F30003846B0476D1C641EF9D52846BDE8F081AF
:103F40000A68531C0B601070704700002DE9F05F89
:103F500006460088C0F30B00824605F0A9F804006D
:103F6000707875884FEA101709D005F10408884564
:103F700008D02A1DBDE8F05F3448FFF75DB951460F
:103F800033A01DE001F012F907F00301002740F211
:103F9000031B6063012903D002292BD03BA00FE053
:103FA000A08F58B14119B1F5827F0DD353465A46BF
:103FB0004648FFF741F9A787BDE8F09F514644A066
:103FC000BDE8F05FFFF738B9A16B2A460844311D00
:103FD0000E30FEF72DFDA08F284481B2A187E08F1F
:103FE000083081422ED3A06B0E3005F0CBF8E78766
:103FF000A78727E0A08F20B151464448FFF71CF95E
:10400000A787B788381D8146854205D31FFA88F1F6
:10401000304605F0B7F815E0FF2D07D953465A464C
:10402000291DBDE8F05F3A48FFF706B9A06B2A1DCD
:1040300031460E30FEF7FCFCA4F83C80E787A16B0C
:10404000A1F81090BDE8F05F05F0CABB2449020258
:104050006863692E633A2061636C5F68616E646CAB
:1040600065722063616C6C65642077697468206E8A
:104070006F6E2D726567697374657265642068611F
:104080006E646C6520257521000000006863692E50
:10409000633A2061636C5F68616E646C6572206373
:1040A000616C6C6564207769746820696E76616CF8
:1040B0006964207061636B657420626F756E646102
:1040C000727920666C61677320257500E0490202F1
:1040D00041434C20436F6E7420467261676D656E7C
:1040E0007420627574206E6F206669727374206626
:1040F0007261676D656E7420666F722068616E64B0
:104100006C6520307825303278000000D0480202FB
:10411000344A020270B5054607484469241D04EB81
:10412000C5004268002A05D14160880019F0BCFB37
:1041300044F8350070BD00002432002010B5054958
:104140004FF6FF7302E084788C54C01C02889A42B8
:10415000F9D110BD00001240704700001CB506499F
:104160008C68002C07D0002100910191B0F8060165
:104170000B460322A0471CBDD432002070B50D466B
:1041800000281FD1002D1DD10F4C4FF494762068CC
:1041900018B9304600F040FF2060040012D03146CC
:1041A0002046FEF78BF9A4F8065104F580712846E5
:1041B00002F0FAFE06F03CFEA4F802014FF0FF30D8
:1041C000A4F8080170BD0000E8320020F8B51646DA
:1041D000028A069F521A94B2C288D2050AD50B4AA7
:1041E00055683DB1009300890A460146334638467A
:1041F000A847F8BD9C4200D91C46406922460144AC
:104200003046FEF715FC2046F8BD0000D4320020F1
:10421000042105F00BBF042106F01ABF0249086013
:104220000421024806F08ABEE03200208D470002D9
:10423000024948600421024806F080BEE0320020B6
:104240008D470002042105F0F1BE042106F000BFF5
:1042500000B58BB0D0F82401009023E0684600F050
:1042600033FABDF8081000291ED0BDF806200FA0B3
:10427000FEF7DEFFBDF806008005039808D506A905
:1042800019F09CFC06A81CF089FE014611A001E073
:10429000018811A0FEF7CCFFBDF8101010A0FEF7AA
:1042A000C7FF00980028D9D10BB000BD48616E64EB
:1042B0006C653A203078253034782C20666C616744
:1042C000733A203078253034782C20757569643A3B
:1042D0002000000025730000253034780000000025
:1042E0002C2076616C75655F6C656E3A2025752CA7
:1042F0002076616C75653A2000000000064A30B4F3
:104300005468002C06D00B46A4460246002130BC5F
:104310000420604730BC7047E83200207CB514466A
:10432000042819D120783E283FD016DC052853D028
:10433000082801D030280FD1B2F80350284600F0E9
:10434000CBF8040008D028461AF067FB04F8FD0FEC
:1043500028461AF01DF860707CBDD72859D0D8289F
:1043600048D0DA28F8D1608800F0B6F80500F3D01C
:10437000B5F8060104F09CFE0600EDD02079317AF4
:104380008842E9D16946601D19F02AFC06223146AF
:104390006846FEF7A5F80028DED1E07A85F8FF0030
:1043A000B5F80601FFF751FF7CBDA078012801D0C8
:1043B0000A28F9D1D41C9188D078FFF7DFFEB4F831
:1043C000010000F089F80500EED0B4F801001AF001
:1043D0008DFFA5F808017CBDB2F80340204600F02F
:1043E0007BF80028F7D000F019FE1049002041F8B2
:1043F00024007CBD608800F06FF80500F9D0B4F8A7
:104400000B0001B2A5F8081109A0FEF712FF28461B
:1044100008E0508800F060F80028EAD04FF0FF3143
:10442000A0F8081100F094FA7CBD0000E8320020EA
:10443000534D5F4556454E545F4944454E5449548B
:10444000595F5245534F4C56494E475F535543436E
:104450004545444544206964202575003EB50C4619
:104460008DF8080000208DF80920009001900223AB
:1044700002AA0421204606F0E7FF3EBD7FB50DF1FC
:10448000200C14469CE864008DF80800ADF8093053
:10449000ADF80B20ADF80D10CDE90056072302AAA8
:1044A0000421204606F0D0FF7FBD70B515000C46F4
:1044B00003D0D0F82401206008E0002070BD204621
:1044C00000F002F92089A84203D020680028F6D124
:1044D00070BD012070BD000008B100207047014888
:1044E00000687047E83200202DE9FF410F7815463B
:1044F0000024B0F800214E1DBC460E2F74D00BDCFA
:10450000A7F102070B2F15D2DFE807F01C142E14B9
:1045100038144B145C146300182F6FD006DC102F76
:1045200070D0122F7FD0162F04D181E0522F68D087
:10453000D22F66D0614646A0FEF77AFE04B0204630
:10454000BDE8F081B1F80110B0F802218A4202D929
:10455000A0F8001101E0A0F8002103241C70B0F8BD
:104560000001A3F80100E9E71C46B1F8033000930D
:10457000B1F80130214603F0B1FA10E01C46ED1FFE
:10458000B1F80570B1F80360CB1DADB2CDE90253AF
:10459000CDE90067B1F80130214603F00BFA04467B
:1045A000CCE70C461946072D01D8022300E0102362
:1045B000B4F80350CDE900530296B4F8013003F08B
:1045C0006DFCECE71C46B1F80130214603F082FD9A
:1045D000E5E71C46B1F803300093B1F801302146FD
:1045E00003F052FBDBE7FFE71C46491C6D1E009100
:1045F000C5F34F03214603F0FBFCD0E71DE001E0CB
:1046000011E01FE00C461946072D01D8022300E0F7
:104610001023B4F80350CDE900530296B4F80130EA
:1046200003F0A2FBBBE700922A4603F0DFFDB6E7EA
:1046300000922A4603F0CAFAB1E700922A4603F034
:1046400087F9ACE700922A4603F0A0FD76E7000068
:10465000556E68616E646C65642041545420436FEC
:104660006D6D616E643A20253032582C20444154DF
:10467000413A20001CB50B4B5C68002C10D0B623CF
:104680008DF8003005238DF801308DF80200ADF86B
:104690000310ADF80520072300216A460420A04737
:1046A0001CBD0000E832002010B580B2FFF714FFF7
:1046B000002808D0B0F80A21B0F80611BDE8104073
:1046C0009120FFF7D7BF10BD10B501680A8882801E
:1046D0006AB14B88C3808C8804818C1DC4609B05A3
:1046E0000CD5A2F11603038201F116030BE00021A1
:1046F000C1800181C1600182416106E0A2F108032D
:10470000038201F1080311444361016010BD70B5DB
:10471000044600890D4600281BD0022A08D0E088F4
:1047200080050BD51022E068FDF7DAFE80B111E0BC
:1047300009882046BDE8704000F00EB8084605F034
:1047400033FB002805D0E168A8890988884201D197
:10475000012070BD002070BD70B5044600890D4673
:10476000002810D0E0888005E06808D505F01CFB23
:10477000002808D0E0688089A84203D004E00088BF
:10478000884201D1012070BD002070BD2DE9F041AB
:10479000194C06461F4615468846042809D0082E9F
:1047A00028D12878C00720D0D4F800C01FE03046B8
:1047B000E047287878281DD1D4F804C0BCF1000F58
:1047C00008D03B462A4641463046E04704F06CFBA1
:1047D00000280FD02468002C0CD03B462A464146C6
:1047E0003046A446BDE8F0416047D4F804C0BCF1AF
:1047F000000FDCD1BDE8F081E03200202DE9F0416E
:104800000F461546044601461E46127828A0FEF7BC
:1048100010FD042C0CD0082C48D13846FFF75CFE64
:10482000040043D029781E2909D0522919D01FE04D
:10483000287878283AD1BDE8F04100F011B9B4F8F1
:104840000A01A8B104F5867000F0B2FCB4F80A21A0
:104850000020A4F80A01B4F80611BDE8F041FFF702
:1048600009BF32462946BDE8F0410023FFF73CBEB0
:10487000FB2E06D93246BDE8F041FB231948FEF76E
:10488000D8BC227822B1BDE8F0411748FEF7D1BC70
:1048900001202070A4F8046132462946A01CFEF7CE
:1048A000C7F82046BDE8F04100F052B8BDE8F081FD
:1048B0006174745F7061636B65745F68616E646C72
:1048C00065723A2074797065203078253032782C02
:1048D000207061636B65745B305D20307825303209
:1048E00078000000BC4702027047020210B5B0F821
:1048F0000001029CC01E80B21970A3F801208442FE
:1049000000D8204610BD1FB514468DF80800069A41
:10491000ADF80930ADF80B20ADF80D100020009077
:104920000190072302AA0421204606F08DFD1FBD39
:104930003EB50C468DF80800ADF809200020009027
:104940000190032302AA0421204606F07DFD3EBD0E
:104950002DE9FF410446017824A0FEF76AFC207887
:1049600001282DD1A078D22808D003202070B4F8D7
:10497000060104B0BDE8F041FFF767BC19F0F8FE8E
:104980000027E0B1B4F804010F2818D3B4F80601E9
:104990001AF0E4FA002813D1B4F9080106F0FEFE7B
:1049A00005000CD0B4F80411A4F10A000E58696C8B
:1049B000324611A0FEF73DFC686CB04202D9277068
:1049C000BDE8FF8102202070B4F803201749601D64
:1049D000CDE90006CDE90214B4F80401A1780F383E
:1049E00083B205F1340019F0CDFEE9E76174745F1C
:1049F00072756E3A20256400415454205369676EE5
:104A000065642057726974652C20444220636F7579
:104A10006E7465722025752C207061636B6574203F
:104A2000636F756E7465722025750000E54C000299
:104A3000FFF708BC0EB50B21CDE900238DF8081057
:104A4000012302AA042106F0FFFC0EBD00B5FFF70A
:104A500043FD10B1B0F8000100BD172000BD0000FB
:104A600038B513480468002C20D0207803280CD1D6
:104A7000204600F0A5F840B16078002816D0B4F8C0
:104A80000601BDE83840FFF7E0BB607800280DD094
:104A90000020607007A00068009005484468002C62
:104AA00004D0022300216A460420A04738BD00003C
:104AB000E8320020B70000002DE9FE431F461646ED
:104AC0000D468046FFF708FD040005D0B4F80A0142
:104AD00020B19020BDE8FE835920FBE74046FFF758
:104AE000B1FB88B102AB2A461D2120460097FFF793
:104AF000FDFECDE90060032302AA0421404606F032
:104B0000A3FC060002D014E05720E3E7A4F80A5102
:104B100004F5867042460849044600F07FFB47F2E0
:104B2000305240F28241204600F060FB204600F007
:104B30002FFB3046CEE70000A946000270B50546BF
:104B40000B480A4C0E46446004F092F908480830BD
:104B5000446019F0B3F90748FFF76AFB284600F0F4
:104B6000B5F83046BDE8704000F0B6B81D4300020D
:104B7000F0320020FD4700022DE9FE431E46154697
:104B80000F468046FFF7A8FC040014D04046FFF70C
:104B900059FB90B102AB3A461B2120460096FFF725
:104BA000A5FECDE90050032302AA0421404606F0E9
:104BB0004BFCBDE8FE835920FBE75720F9E70000D6
:104BC0002DE9FC412F4E002707700446B0F8042160
:104BD0003346811CFFF788FC0546A0F57F40FF386F
:104BE00023D0042D0FD3307801280CD13079082838
:104BF00009D194F8FE0030B1B4F8060119F0EFFBCA
:104C000078B1012811D085B100970197B4F8060159
:104C10002B463246042106F017FC3078032807D0D3
:104C20002DE0B4F806011AF051FE0020BDE8FC8129
:104C3000154AB4F80611B4F80001556875B1B522EB
:104C40008DF8002004228DF80120ADF80210ADF897
:104C50000400062300216A460420A847B4F8060190
:104C600000F084F809480078C00708D0B4F80001C3
:104C70000022001D81B2B4F8060101F0C3FB01203F
:104C8000D4E70000DC610020E8320020003300207F
:104C90000149486070470000E832002010B5024624
:104CA000FFF71AFC002806D001214170BDE8104032
:104CB0001046FFF7CABA10BD10B50C46FFF70CFC42
:104CC000002801D0C0F8244110BD0000014948600F
:104CD00070470000D432002001498860704700000E
:104CE000D43200207CB5044600780A4602280ED152
:104CF0006946104618F071FFB4F80411A01F014472
:104D000008226846FDF7ECFB10B1002020707CBD46
:104D1000B4F80411A4F10A000E58B4F9080106F021
:104D20003DFD050001D0012000E00020ED2207A19B
:104D3000FDF774FE45B1761C6E6403202070B4F854
:104D40000601FFF782FA7CBD72B6FEE76174745FFC
:104D50007365727665722E63000000000A688265D2
:104D60004968C1653521017002F0B0BA70B50546D9
:104D700002F0E0FD04000BD02846FFF7ADFB002851
:104D800006D0E28AB0F800118A4202D9A0F80021C8
:104D900070BDE18270BD0000F8B50446C0880E46C3
:104DA000C0050BD506484568002D07D000200090AF
:104DB0000346024621893046A8472082F8BD0000FC
:104DC000D43200207CB50E46C98804460D0B00D0B5
:104DD0006D1C94F8FD2094F8FE00CDE9000294F8D3
:104DE000FF302A461048FEF723FAF088410502D525
:104DF00094F8FE1079B1000502D594F8FF0060B177
:104E0000002D02DD94F8FD0048B194F8FD00A842A1
:104E100007DA0C207CBD05207CBD08207CBD0F205E
:104E20007CBD00207CBD0000004702023EB50C4660
:104E30008DF808000699ADF80920CDE90013032389
:104E400002AA0421204606F0FFFA3EBD2DE9F047F4
:104E5000994617460E460546DFF84C8011E0A81922
:104E600000EBD070441049462046B847404502D177
:104E7000A0B2BDE8F08702D904F1010501E0A4F178
:104E80000106B542EBDD49463046B8474446A042EC
:104E900001D3B0B2EDE749462846B847A04200D258
:104EA0006D1CA8B2E5E7000080841E000622FDF715
:104EB00017BB0A68026089888180704710B50C4969
:104EC000002203463A24985C000900F072FA087048
:104ED000985C00F00F0000F06CFA48708C70C91CF0
:104EE000521C062AEFDB002001F8010C004810BD1F
:104EF000D16000200844008840BA70474218405CE6
:104F00005378528852BA63F31F4242EA00607047F6
:104F1000130A4354491C89B242547047130E435438
:104F2000491C89B2130C4354491C89B2130A4354D7
:104F3000491C89B24254704710B5012100F08AFB28
:104F4000BDE81040FDF779BD0149086070470000D9
:104F5000003300200268134602E08A4204D012683F
:104F6000002AFAD10B600160704702E08A4205D046
:104F700010460268002AF9D10A6001607047006893
:104F800008B1002070470120704704E0884201D139
:104F90000120704700680028F8D1704702688168D6
:104FA00032B140680068884200D1086808B970478B
:104FB00009B101207047002070470022C0E900219C
:104FC000096881607047016851B141680A68816869
:104FD0008A4203D141600968816003E0826001E098
:104FE00001210160806870478168096881604268BA
:104FF00011600021016070474FF0FF3351B107E0AD
:1050000002688A4203D10968016000207047104697
:105010000028F5D11846704718F046BC1CF0EEB8D1
:10502000FFF7FCBF7820FFF7F7BF10B50446806B91
:1050300006F053FC2046BDE81040FFF7EFBF70B507
:105040009820FFF7E9FF04000CD040F2111006F0A1
:1050500077FC050008D098212046FDF72FFA20465E
:10506000A56370BD002070BD2046FFF7D7FFF9E7AC
:105070007047FFF7D3BF5420FFF7CEBFFFF7CEBF77
:105080001420FFF7C9BF2DE9F041064600209846DD
:1050900017460C460546306005E02146304600F0D4
:1050A00007F844446D1CBD42F7DBBDE8F081000009
:1050B00030B40268134607E08B4204D1024630BC8C
:1050C00004A0FEF7B7B81B68002BF5D10A60016099
:1050D00030BC70476274737461636B5F6D656D6F34
:1050E00072795F706F6F6C5F667265653A20626C93
:1050F0006F636B2025702066726565642074776924
:10510000636520666F7220706F6F6C2025700000E1
:10511000016819B10A6802600846704700207047AC
:10512000FFF77CBF0C20FFF777BF000000B589B008
:105130000DF1080C01900E48006805928CE80B00F8
:105140000C4800684FF00003C005029804D000220C
:1051500069461CF0B5FD04E04FF0FF3269461CF0D3
:10516000F9FC012802D0012009B000BD0020FBE7B6
:105170005032002004ED00E013460A4601460A20A2
:10518000FFF7D4BF13460A4601460C20FFF7CEBFF7
:1051900038B504461DF0E4F902464FF0FF300090A8
:1051A0000023012160691DF06FFB38BD00207047AE
:1051B00038B50446406948B14FF0FF3100230091F3
:1051C0001A4605211DF060FB00206061002038BDFB
:1051D00038B504461DF0C4F902464FF0FF30009088
:1051E0000023022160691DF04FFB38BD38B504462D
:1051F000816090024FF47A71B0FBF1F104480090A5
:105200002346002203A01DF0D3FA606138BD0000E0
:10521000292F00026800000001617047C0E90312F5
:10522000704708B54FF0FF310091002340691A46DE
:1052300003211DF029FB08BD2DE9F0410746114867
:1052400015460E46046898463888B4F8C02034F8ED
:10525000BE1F00F061F9388062882188308800F034
:105260005BF93080E288A188288800F055F9288011
:1052700062892189B8F8000000F04EF9A8F8000012
:10528000BDE8F081242A020270B50C00054601D069
:10529000012000E000206A2206A1FDF7BFFB28469E
:1052A00000F014F810B100206C60206028682060C5
:1052B0002C6070BD6C6973745F62617369632E6387
:1052C000000000000021016041607047006808B1E3
:1052D0000020704701207047006808B10020704727
:1052E0000120704770B5054600680C4600B10120EA
:1052F000C32209A1FDF792FB206800B10120C4225E
:1053000005A1FDF78BFB696820680860606868602C
:1053100000202060606070BD6C6973745F626173AF
:1053200069632E630000000070B50346002002464A
:10533000012513F80240002105FA01F6344201D09C
:10534000401C80B2491CC9B20829F5D3521CD2B204
:10535000052AEED370BD70B50446008918F05CFCD8
:105360002521B0FBF1F201FB1201CA0801F007058B
:10537000A25C0123AB401A4201D0084670BDE1880F
:1053800041432046BDE87040C1F3074102F0A2BA94
:1053900030B504461068206010790D4600F01F00FB
:1053A00020712046FFF7C0FFE08085EA154020818C
:1053B00030BD0A2801DA303003E00A38062802DA64
:1053C0004130C0B270473F20704770B50446C08E70
:1053D00088B0002822D0258F94F83430A2268DF88A
:1053E00000601A268DF80160A6890A46ADF804000F
:1053F000ADF8082004F11C01ADF80260ADF80650CC
:10540000ADF80A30102203A8FDF712FBA1891C2376
:105410006A46A06800F076F90020E08608B070BD0A
:1054200006481144006800F2FF10814203D90120B0
:1054300018600320704700207047000014330020DC
:10544000234810B5016841F470010160214CD4F883
:10545000A80120F4C050C4F8A801D4F800018007C6
:105460002FD5FDF7C5FD1C4881681C4A21F4F04189
:1054700011438160016921F080010161816921F09E
:1054800000418161C16841F00401C160D4F800119C
:105490008907FBD44169124A01F0C04111434161BF
:1054A000016921F078410161BFF34F8F08487C38D2
:1054B00001680C4A01F4E06111430160BFF34F8FB2
:1054C000FEE7D4F82C0140F08000C4F82C0110BD98
:1054D00088ED00E00000104000201040002800800F
:1054E000C7E8948A0400FA050948016841F470018C
:1054F00001600848D0F8A81121F4C051C0F8A811E3
:10550000D0F82C1141F08001C0F82C117047000038
:1055100088ED00E00000104019B1884201D2084631
:105520007047002AFCD09042FAD91046704700001C
:105530003EB5144D0022202140206C691CF06AFA0F
:10554000E8620322002101201CF064FA28610E4A5F
:105550000E2061688DE8070000230CA10C48A268AA
:105560001CF0B2FF084A286354320220E1688DE83B
:105570000700002307A1084822691CF0A5FF686303
:105580003EBD000024320020903500206300000062
:10559000FD00002070000000A9CE010270B51D467C
:1055A00006460C46012809D120782968884205D191
:1055B0000622211D6868FCF793FF08B1002070BD2A
:1055C000C5E90264032070BD0248417A491C41725A
:1055D000704700007C33002010B5044603F09AF8B1
:1055E000002010F0E9FC11F0B3F810F0D7FB08F040
:1055F00047FB0CF0CDFD12F017FB16F00FF9002C55
:1056000003D0BDE8104011F064BC10BD70B5044675
:10561000B0F1A53F19D0B4F1C33F16D001231A024F
:1056200005211D20FDF70EFA0546B4F1F23F09D021
:10563000922206A10020FDF7F1F92846BDE870404E
:10564000FDF705BA07202870F7E770BD6474626C37
:10565000652E6300F8B505461B480E460021018003
:1056600010F0BCFC1BF0BEF816F0ECFF684610F022
:10567000CDFC0446009840F68C114FF4A567884293
:1056800001D3012000E00020842210A1FDF7C6F91B
:105690003A462146002017F00BF8009804F5A56162
:1056A000A0F5A56082B2012017F002F81BF026F8E1
:1056B0003046FFF791FF002D04D02846BDE8F840A2
:1056C000FFF7A4BFF8BD0000B8340020647469700F
:1056D0002E63000009490120096809B100207047C4
:1056E0000749CA69002AF9D1044A28321268896830
:1056F000491E8A42F3D1022070470000343A00204C
:105700006C32002030B4040003D0A44630BC042026
:10571000604730BC7047FEB51E4617460C4605462E
:1057200002F008F9002816D0011D6846FFF745FC75
:105730000CE06846FFF747FC0189A14206D1D0F88A
:1057400004C033463A4629460420E0476846FFF73E
:1057500025FC0028EDD1FEBD1CB5A0228DF800204F
:1057600003228DF801208289ADF802208DF8041003
:105770008189806805236A46FFF7C4FF1CBD30B5E8
:1057800087B00446A3250A988DF8005018258DF897
:105790000150A589ADF80410ADF806200146ADF81A
:1057A0000250ADF8083010220DF10A00FDF740F963
:1057B000A1891A236A46A068FFF7A4FF07B030BD8D
:1057C00010B586B00446A1208DF8000016208DF893
:1057D0000100A089ADF80410ADF80200ADF8062074
:1057E0001022194602A8FDF723F9A18918236A4659
:1057F000A068FFF787FF06B010BD00002DE9F05F3D
:1058000000249246894605462746264626E000BFE4
:1058100005EB8400B0F9021035F9240018F02AFADB
:10582000834605EB8800B0F9021035F9280018F01E
:1058300021FAABEB000043F6FF71884203DBA0F5D1
:10584000FE40FF3806E043F6FF71C84202DC47F62F
:10585000FF710844074404EB4904761C04EB090873
:10586000D045D5DB97FBF6F0BDE8F09F2DE9F0437E
:1058700042780446901C89B00E46814206D009B099
:10588000E348BDE8F043921CFDF7D6BC2178E1A0C7
:10589000FDF7D2FC2078DFF88C834FF00009122846
:1058A00068D00CDC0E2811D004DC05287ED0082836
:1058B00045D16BE00F2827D0102840D18BE013286A
:1058C00044D03E2873D0572839D182E1D8F800005F
:1058D000A278454690F84610D3A0FDF7ADFC61795B
:1058E000DAA0FDF7A9FC2968A07881F846002968AC
:1058F000B4F80300B1F87A10884218D12868C26A57
:10590000AAB1016B601D11E0D8F80020E178404693
:1059100082F84610D8F80020A188B2F87A20914287
:1059200005D10168CA6A12B1096B601C9047D8F8AA
:105930000020A2F87A90D8F80010C1F82C90D8F87E
:10594000000090F85C0001287BD04EE10325002781
:1059500018E0615BAD1C625B0846AD1C03F0A8FB60
:1059600038B190F84010914209D3891A80F840105C
:1059700007E000E034E0BAA0FDF75EFC01E080F84B
:1059800040907F1CA078B842E3DCD8E7B4F803501D
:10599000284603F08DFB0028D1D0A17859B9617950
:1059A0000029816904D041F4004103E00AE023E0CA
:1059B00021F40041816100F009FC0146284603F012
:1059C00059FCBCE7B4F8030003F072FB0028B6D022
:1059D00007214174B3E703F087FE03F099FEAEE7B9
:1059E000A0780028ABD1B4F8030003F061FB0028D5
:1059F000A5D0617A0174A2E7A07806287CD012DCD9
:105A000001281FD004289AD1E078002875D1A088F9
:105A100003F04EFB002870D0A17980F88910012195
:105A200080F888108BE70A280CD0122887D12079BB
:105A3000082884D2E178002972D097A0FDF7FCFBFA
:105A40007DE7CEE0E07800289FD1A7884FBBD8F84B
:105A500000004546406918B9FFF7F1FA2968486126
:105A60002868A8464569E5B1EF800220C5F818907E
:105A7000A8742A46914905F11C00FFF7CFFBFFF7F8
:105A800095FB6863E0792872294604F1080018F054
:105A9000A7F805206874A0792874A0780A2804D093
:105AA00012E0A08800F08CF949E7D4F80E10C5F890
:105AB0008A10618AA5F88E106169C5F89010218B53
:105AC00005F18000A5F89410E089A5F85200287C23
:105AD00060B9D8F8001091F84410E973D8F80000C4
:105AE00005F1090190F8440000F01CFA2846FFF780
:105AF000E5F90246E98801E013E06FE070A0FDF7E8
:105B00009BFB03F08DFBD8F8000090F85200C00614
:105B100088D5E98840F6B832714803F0FDFB0EE7FE
:105B20002DE034F8037F384603F0C2FA05006088A0
:105B3000ADF81400A088ADF81000E088ADF81800AA
:105B40002089ADF81C00A4F10304ADD007AB06AA70
:105B500004A905A8FFF770FBBDF81800B5F856308A
:105B6000B5F85420BDF81C108DE80F00BDF81030BA
:105B7000BDF8142039465B4803F0CEFBDFE6B4F8ED
:105B80000520104603F094FA0546217956A0FDF74A
:105B900053FB2079D8F80020C0EBC001114491F8E4
:105BA0008510E97369B12179D8F80000C1EBC10112
:105BB000014401F18000D1F8861045F8091F4089A1
:105BC00005E0D8F80000816B45F8091F808FA88098
:105BD000B5E6608803F06CFA0028A0D109B0BDE8F2
:105BE000F083B1B2204603F041FCB1B2204603F08D
:105BF000EFFA2078052806D1B4F8030003F058FA2C
:105C000008B103F01DFF09B0BDE8F04303F0E8BDA3
:105C1000804902024843493A4556454E543A253098
:105C200032780000242A0202434D445F434F4D5016
:105C30004C45544520636D6473206F6C642025755A
:105C4000202D206E6577202575000000636D645F50
:105C5000636F6D7020737461747573202575000017
:105C60006863695F6E756D6265725F636F6D706C9E
:105C7000657465645F7061636B6574206C697374CF
:105C80007320756E7573656420636F6E2068616E36
:105C9000646C65202575000061647620736574204E
:105CA0007465726D696E61742064756520746F200F
:105CB000636175736520307825780A00C59000020D
:105CC0004E657720636F6E6E656374696F6E3A2000
:105CD00068616E646C652025752C202573000000BA
:105CE000142B02029C2B02026164762068616E64B0
:105CF0006C6572203078257820636F6E6E656374F2
:105D0000656420746F20636F6E2068616E646C65DB
:105D100020307825780A000010B5044604F018F801
:105D2000204610BD13460A460146014803F0F4BA66
:105D3000442C02020246014803F0EEBA442B020250
:105D400030B50C46054689B01946104600F066FA93
:105D500000280CD16946284617F030FF04A92046D8
:105D600017F02CFF04AA6946024803F0D5FA09B0DF
:105D700030BD0000742B0202014803F0CDBA0000D0
:105D80003C2B0202014803F0C7BA0000F42B0202C8
:105D9000014803F0C1BA0000542C0202014803F08C
:105DA000BBBA0000342B020208B5009313460A4622
:105DB0000146024803F0B0FA08BD0000882A02023A
:105DC00010B5034603F074F940B106214174132263
:105DD0001946054803F0A0FA002010BD002118461E
:105DE00003F0E2F9F8E70000FC2A020238B54FF0B0
:105DF000FF30ADF80200ADF8000006250DE0684662
:105E000003F0A4F90446407C062806D0E18813225A
:105E1000054803F081FA00B96574684603F076F925
:105E20000028ECD138BD0000FC2A02022DE9FF4F0A
:105E3000DFF8A8A085B00024DAF80020DDE91269B7
:105E40001268DFF894808B460A2000EB0611536934
:105E50002746B8F8000003AA9847050001D00121A1
:105E60000FE0562009B0BDE8F08F00BF04EBC4027C
:105E700019F81220521E01FA02F03843641CC7B20E
:105E8000E4B2B442F2D3DDE907018DE883005B465A
:105E9000D8F804102846059A03F001F9C7B2002487
:105EA0000DE000BF04EBC40109EB4101E819102229
:105EB000891CFCF7BDFD1037641CFFB2E4B2B4428C
:105EC000F0D3DAF80010404681F844B02946039A2E
:105ED00003F070FD0020C5E7242C0202242A0202F0
:105EE00010B500F09BF9002804D1BDE8104002482D
:105EF00003F012BA10BD00007C2B020202480068B9
:105F000090F87C0070470000242A020204490968C6
:105F100051F8BE2F02604A6842608968816070470C
:105F2000242A0202064A0028106804D050F83E2FA6
:105F30000A60808802E0826B0A60808F88807047E8
:105F4000242A02020146014803F0E6B9642B02024A
:105F5000034909688A6B0260898F8180704700005D
:105F6000242A020210B50446014604A0FDF764F994
:105F7000022C01D9012010BD002010BD6761705FA7
:105F80006D69746D5F70726F74656374696F6E5F55
:105F900072657175697265645F666F725F73656360
:105FA00075726974795F6C6576656C202575000083
:105FB0007FB50DF1200C9CE870008DE87800134649
:105FC0000A460146024803F0A7F904B070BD00007C
:105FD0002C2C0202014803F09FB90000342C02026D
:105FE00013460A460146014803F096B9782A020290
:105FF00013460A460146014803F08EB9702A020290
:106000001CB5049CCDE9003413460A4601460248FB
:1060100003F082F91CBD0000802A020201460148FB
:1060200003F07AB93C2C02020448817A012903D199
:106030000221817219F0F4BC704700007C3300200B
:10604000074810B5426C40F282210648FFF7CEF8AF
:106050000448FFF79DF8BDE81040FFF7E5BF0000DA
:106060007C3300202863002010B50022074908482F
:10607000FFF7D4F8074840F28221426C0448FFF74A
:10608000B5F8BDE810400248FFF782B84160000251
:10609000286300207C330020014803F03DB9000054
:1060A0002C2B0202014803F037B90000602A0202DB
:1060B000014803F031B900005C2C0202014601489E
:1060C00003F02AB9AC2B02020146014803F024B9BF
:1060D0006C2B02020146014803F01EB9042B020298
:1060E0000146014803F018B91C2B02020246014880
:1060F00003F012B94C2B02022DE9F0410E4607467F
:1061000002F0D6FF050010D0384600F055F80446DE
:106110000246314608A0FDF78FF8B44207D3214666
:106120003846BDE8F04103F0A5B80121F8E7AE74A8
:10613000BDE8F04103F054BB6761705F7265717533
:106140006573745F73656375726974795F6C657686
:10615000656C2025752C2063757272656E74206CD9
:106160006576656C202575000146014803F0D4B8BA
:10617000EC2B020213460A460146014803F0CCB854
:106180004C2C020213460A460146014803F0C4B8EB
:10619000982A0202F0B585B00DF1280C9CE8F000B9
:1061A0008DE8F80013460A460146024803F0B4F8A9
:1061B00005B0F0BDA82A020210B502F079FF18B1AF
:1061C000BDE8104000F002B8012010BD10B1008BF6
:1061D000000401D40120704702207047022070475C
:1061E000074BC0EBC0021B681A440B6842F8863F9D
:1061F0008B8893800A460146024803F08DB8000060
:10620000242A0202C42B020200B1012002490968BB
:1062100081F87C0070470000242A0202034A1368B8
:10622000586210688162002070470000242A020230
:106230000149096848637047242A02021CB5049C7E
:10624000CDE9003413460A460146024803F064F8DB
:106250001CBD0000502A02020A460146014803F014
:106260005BB80000582A02022DE9FE4F144E884602
:10627000A6F11C011D460968174681460968308849
:10628000DDF830A04B6902AA691D9847040014D0BC
:10629000CDE9007543464A46716802F000FFC0B27E
:1062A00020442A465146FCF7C3FB21463046029A59
:1062B00003F080FB0020BDE8FE8F5620FBE70000C6
:1062C000402A02022DE9FC47124D0F46A5F1240198
:1062D00099460968164680460968288801AA4B69CC
:1062E000311D9847040013D000963B46424669682A
:1062F00002F0D5FEC0B2204432464946FCF798FB76
:1063000021462846019A03F055FB0020BDE8FC8792
:106310005620FBE7482A020204490268096841F84E
:10632000BE2F42684A60806888607047242A020253
:106330000A460146014802F0EFBF0000302A02027F
:106340002DE9FF5F154D8946291FDDE90E6B0968B0
:106350001F4690460968824628884B6903AA711D2A
:106360009847040018D0CDF80080CDE901764B465F
:1063700052462046696802F092FEC0B2204432467E
:106380005946FCF755FB21462846039A03F012FBB9
:10639000002004B0BDE8F09F5620FAE7282A020248
:1063A0002DE9FF5F164D8946A5F11401DDE90E6B5D
:1063B00009681F4690460968824628884B6903AAE7
:1063C000B11D9847040018D0CDF80080CDE90176C2
:1063D0004B4652462046696802F061FEC0B2204436
:1063E00032465946FCF724FB21462846039A03F01F
:1063F000E1FA002004B0BDE8F09F5620FAE7000063
:10640000382A02020AB944F2902213460A4601468B
:10641000014802F081BF0000A42B020213460A4685
:106420000146014802F078BFB42B020208B50B46C2
:10643000009202460021024800F070F808BD0000FA
:10644000D42B02022DE9FC4791461B4A194F88467E
:10645000126804460221126801EB880138885369EA
:1064600001AA9847060007D043462246796802F001
:1064700016FEC5B2002414E05620BDE8FC8700BF1C
:1064800004EB440009EB40010A7900924B8819F8AB
:106490001020701909A102F002FE2D1D641CEDB23E
:1064A000E4B24445ECD331463846019A03F082FA0F
:1064B0000020E2E7E42B0202242A020231323100FA
:1064C0002DE9F04F8DB01AAFDFF848C097E8604F64
:1064D000DCF800C0C0EBC0076744179C87F8854014
:1064E00008AF87E8004EDDF864C005AFCDF810C0F6
:1064F00087E86001169E189DCDE9003613460A46CE
:1065000001460548CDE9024502F006FF0DB0BDE8A1
:10651000F08F0000242A0202CC2B02022DE9FC4756
:106520001C460A9D174688468146F72B26D9F72038
:10653000CDE900050B4601223946484602F0ECFE43
:10654000002823D1F73CA4B2F73515E0F72C01D38E
:10655000F72600E02646A01BCDE900650404240CC4
:1065600001D0002200E0022243463946484602F0AC
:10657000D3FE00280AD13544002CE7D1434603223C
:1065800039464846CDE9004502F0C6FEBDE8FC8725
:1065900008B5009313460A460146024802F0BCFEC5
:1065A00008BD00001C2C02022DE9FC4716460F46D0
:1065B00002EB8601244ADFF88C80994612688246F5
:1065C00000241268B8F80000C91C536901AA984752
:1065D000050002D0002001220DE05620BDE8FC8716
:1065E00000EB400319F813305B1E02FA03F121435C
:1065F000401CCCB2C0B2B042F2D300943B465246EB
:106600002846D8F8041002F04AFDC7B200240FE073
:1066100004EB440109EB41008188009143884278F2
:10662000E8190AA102F03BFD7F1D641CFFB2E4B231
:10663000B442EDD329464046019A03F0BBF900204D
:10664000CCE70000142C0202242A0202313232006C
:1066500008B50B460092024600210248FFF75EFF94
:1066600008BD0000DC2B02020A460146014802F088
:1066700053BE00005C2B02022DE9F843194F15466A
:106680000C468046F82923D90146F82301223846D2
:10669000009502F041FE002821D1F83CA4B2F83563
:1066A00014E0F82C01D3F82600E02646A01B0404D1
:1066B000240C009501D0002200E00222334641461E
:1066C000384602F029FE002809D13544002CE8D1D3
:1066D0002346032241463846009502F01DFEBDE8E0
:1066E000F8830000042C02020A460146014802F029
:1066F00013BE00000C2C020208B5009313460A4694
:106700000146024802F008FE08BD0000FC2B020210
:106710000A460146014802F0FFBD0000682A020255
:106720001CB5049CCDE9003413460A4601460248D4
:1067300002F0F2FD1CBD0000BC2B020205490268FC
:10674000096841F83E2F82888A800146024802F09B
:10675000E3BD0000242A0202242B02020249096838
:1067600081F8450070470000242A02022DE9FF4FFE
:1067700087B01C46DDE91A01DDE91865DDE91687F9
:10678000DDE914A99346FFF749FD00280DD1CDE9B5
:10679000004ACDE90259CDF81080CDE90576DDE952
:1067A00007125B46024802F0B7FD0BB0BDE8F08F60
:1067B000902A0202014802F0AFBD0000B82A02028E
:1067C00008B5009313460A460146024802F0A4FDAC
:1067D00008BD0000A02A0202F0B587B00DF1300E0E
:1067E0009EE8F0108DE8F81013460A46014602486C
:1067F00002F092FD07B0F0BDB02A02022DE9FF4180
:106800000446DDE90A570C9E02F052FC002805D030
:10681000007C30B12046009504F039FC04B0BDE89E
:10682000F08103968DE8A80013460A4621460248E7
:1068300002F072FDF2E70000542B020208B592004C
:10684000921C0B46009201460722024802F064FDAA
:1068500008BD0000C02A02022DE9F047DFF88CA431
:106860008AB01E461546884604280AD008287DD1DD
:1068700028781B280FD01D2808461FD001F05AF891
:106880001EE02978782971D1DAF80040002C50D028
:106890004146A0474DE0B5F801700C46DE1E394672
:1068A000A720D21C17F0F2FA0246F61C0AB0B3B2C7
:1068B00039462046BDE8F047FEF72DBF16F030FB05
:1068C000040053D02978771E4FF001090D2973D0A9
:1068D00009DC0C2915D2DFE801F014EF143114EEB5
:1068E00014ED148614F0172967D006DC0F2978D030
:1068F000112952D0132904D167E1192972D01D2919
:106900005CD0FBA0FCF797FC28788DF808908DF8F8
:106910000900002006218DF80A008DF80C108DF872
:106920000B0000900190A089052302AA042104F025
:106930008BFD0AB0BDE8F04700F0C8BCB5F80150C7
:1069400004F076FA854200D22846E08284F8189056
:10695000DAF8005095B1AB208DF8000004208DF8D6
:106960000100A089ADF80200E08A00E0F7E1ADF88F
:1069700004000623A1896A460420A8474046FEF782
:10698000F5F9E64800788007D3D4E08A0022001D9C
:1069900081B2A089FFF736FDCBE720780228C8D165
:1069A00032462946204617F0CBF869782046711AFE
:1069B000294401224988A7E00FE13CE14746B5F8A8
:1069C0000180EA1C4146A820F61E17F05FFAF61C6B
:1069D0000246B3B241463846FEF79DFE84F8519018
:1069E000A7E76AE15BE120780C281BD011DC0628C0
:1069F00001D008289DD132462946204617F053F889
:106A00003146284600F09EFF014620461AF00CF958
:106A10008FE7142833D024288BD16888A4F84C0041
:106A200025203AE195F80180B8F1070F07D2688870
:106A3000A085A8882086E88860860D202DE10227A1
:106A400016E000BFE91935F807904A8822868A883F
:106A50006286C98801A81AF0CDFA01A80090638E59
:106A6000228E49462046FEF78AFE07EB080087B2D1
:106A7000B742E7D369782046711A695A43E095F81E
:106A8000018000210227A8F1020A0DE035F80790E5
:106A9000EA191FFA8AF349462046921C16F0F4FFC1
:106AA00007EB0800494687B2B742EFD320461322CE
:106AB0002AE002E035E04CE009E120780E2814D00D
:106AC000102824D028288BD1204600F07DFA218F71
:106AD0006A1CA92017F0DAF902460837BBB2A1896F
:106AE000A068FEF70FFE002135E101A9681C17F030
:106AF00065F8A18D01AA00922046638E228EFEF7D2
:106B00003EFEA18D20460B221AF0AEF811E720467A
:106B100000F05AFABBB2218F6A1C204616F0B4FF6F
:106B2000E1E74FF004094FF6FF78012704F11C0A52
:106B300009E0E819E95B4088534680460246204652
:106B4000FEF73EFE4F44B742F3DB204641460322A8
:106B5000DAE768780427022800D11227F01BB61E56
:106B60001FFA86F835F800A00026AD1C22E000BF11
:106B700035F80690042F05EB060021D006A9801CED
:106B800017F01CF8A4228DF8002014228DF80120A3
:106B9000A289ADF8022006A9ADF8049010220DF1EB
:106BA0000600FBF745FFA18916236A46A068FEF799
:106BB000A9FD3E444645DBDB204651460922A3E7BA
:106BC000418806A81AF016FADCE72078182803D0C6
:106BD000262801D02C2899D1ACE0761E2078B6B2B8
:106BE000761DBFB2122815D02A288FD1218F628F2F
:106BF0006B1CAA20009717F057F9020004D0B3B21B
:106C0000A189A068FEF77EFD3A462921204619F0A9
:106C1000F3FF8EE6218F628F6B1CA620009717F082
:106C200043F9020004D0B3B2A189A068FEF76AFD5F
:106C30003A461121EAE720781A2812D01C281CD0E5
:106C40002E2814D03228E4D1204600F0BDF9324677
:106C50002946204603F0BEF800287FF461AF7E216C
:106C600079E0B5F803001D226087192110E0B5F81E
:106C700003002F2260872D210AE032462946204654
:106C800003F0A8F840B1B5F803001D2260871B216E
:106C9000204619F0D8FF4CE62120207049E62078E4
:106CA0001E2847D0202845D0222802D03028B0D135
:106CB00040E0204600F088F9D1E720781628A8D1D6
:106CC000BBB26A1C0021204616F0DEFE32E02979B4
:106CD0000A292BD12078082830D021DC022829D09D
:106CE000042827D0062821D128E000000433002002
:106CF0004154542048616E646C65722C20756E6836
:106D0000616E646C656420726573706F6E7365206C
:106D10007479706520307825303278000033002097
:106D20000A2807D00C2805D014280CD0204600F0E3
:106D3000BCFAFEE5204600F047F9D4E6E18D204696
:106D4000FEF743FBF6E7204600F03EF9A08D218ECA
:106D50008842F2D10A212046FEF7FEFCE9E50AB09E
:106D6000BDE8F08710B50446084616F00FF918B1D3
:106D7000017819B1952010BD562010BD1F218460E7
:106D8000017000F0A3FA002010BD70B5054614464E
:106D9000084616F0FBF818B1017819B1952070BDBE
:106DA000562070BD85606188A288914203D1002180
:106DB000FEF7D2FC07E0491C8185A188C185092125
:106DC000017000F083FA002070BD2DE9F041074604
:106DD0001D4616460846DDF8188016F0D7F8040060
:106DE00004D0207820B19520BDE8F0815620FBE743
:106DF000A760A685E585012084F8500000256583FD
:106E00001022414604F11C00FBF712FEE586072024
:106E1000207000F05BFA0020E6E72DE9F04107461C
:106E20001D4616460846DDF8188016F0AFF8040037
:106E300004D0207820B19520BDE8F0815620FBE7F2
:106E4000A760A685E585012084F85000A4F81A8083
:106E5000414604F11C001AF0CDF80020E08607201E
:106E6000207000F033FA0020E6E770B506461C46B5
:106E70001546084616F08AF818B1017819B1952020
:106E800070BD562070BD86608585C485002180F860
:106E90005010C1860521017000F018FA002070BD65
:106EA00010B50446084616F071F818B1017819B10A
:106EB000952010BD562010BD0121846081854FF6BC
:106EC000FF72C28501700021418300F0FFF90020AC
:106ED00010BD70B505461646084616F057F8040072
:106EE00003D0207818B1952070BD562070BD0120C8
:106EF000A560A0854FF6FF70E0850020608310221A
:106F0000314604F11C00FBF793FD0320207000F0D4
:106F1000DDF9002070BD70B505461446084616F030
:106F200035F818B1017819B1952070BD562070BDA3
:106F30000121856081854FF6FF71C185032100F82D
:106F40001A1B214620F8024B1AF054F800F0BEF943
:106F5000002070BD10B50446084616F017F818B1A9
:106F6000017819B1952010BD562010BD1D218460F7
:106F7000017000F0ABF9002010BD70B506461C464C
:106F80001546084616F002F818B1017819B1952097
:106F900070BD562070BD86608585C4850B2101704B
:106FA00000F094F9002070BD00B500F0C3FC10B1F2
:106FB000027E012A03D017200880952000BDC08AD8
:106FC0000880002000BD000010B5002101700446BB
:106FD000818904A0FCF72FF904F16000BDE810409E
:106FE000FEF7E6B84741545420636C69656E74201F
:106FF00074696D656F75742073746F702C2068618F
:107000006E646C65203078253032780070B50428C5
:1070100017D11078052810D1B2F80350284600F097
:1070200089FC040009D01F2100F03FF90549002028
:1070300041F825002046FDF7F3FFBDE8704000F061
:1070400045B970BD08330020064910B504484860B2
:10705000084601F00DFFBDE810400348FDF7DEB81B
:107060000D7000020C3300205968000210B515F0B5
:1070700057FF002802D0007808B1002010BD012081
:1070800010BD10B50C460146104600F053FC002818
:1070900006D04C600B81BDE81040001DFDF75ABFC3
:1070A00010BD2DE9F0410646DDE906781C4615467F
:1070B000084615F06BFF20B1017821B19520BDE89D
:1070C000F0815620FBE7866005878787448731215A
:1070D000C0F84080017000F0F9F80020EFE770B5CB
:1070E00005461446084615F051FF18B1017819B14C
:1070F000952070BD562070BD8560048727210170E2
:1071000000F0E4F8002070BD0023AFF3008070B5FC
:1071100006461C461546084615F038FF18B101789A
:1071200019B1952070BD562070BD866005874487D3
:107130002921017000F0CAF8002070BD0023AFF3D0
:10714000008070B506461C461546084615F01EFF21
:1071500018B1017819B1952070BD562070BD8660B8
:10716000058744871121017000F0B0F8002070BD40
:1071700070B506461D461446084615F007FF18B1BF
:10718000017819B1952070BD562070BD8660A0F8B9
:10719000444015218564017000F098F8002070BD0E
:1071A00070B505461446084615F0F0FE18B1017892
:1071B00019B1952070BD562070BD856004870021EF
:1071C00041870F21017000F081F8002070BD2DE98A
:1071D000F04107461D4616460846DDF8188015F0B2
:1071E000D5FE040004D0207820B19520BDE8F081C0
:1071F0005620FBE7A760A685E585268665860020E4
:1072000060831022414604F11C00FBF711FC13209F
:10721000207000F05BF80020E8E72DE9F041074618
:107220001D4616460846DDF8188015F0AFFE04002E
:1072300004D0207820B19520BDE8F0815620FBE7EE
:10724000A760A685E58526866586A4F81A8041464E
:1072500004F11C0019F0CEFE1320207000F036F867
:107260000020E9E70149086070470000043300206E
:107270002DE9F04106461C4615460846069F15F0C6
:1072800085FE20B1017821B19520BDE8F08156201E
:10729000FBE7866005878487002141871B210764FF
:1072A000017000F013F80020EFE770B50446007895
:1072B0000D46002808D02046FFF786FE29462046C6
:1072C000BDE87040FEF748BA70BD00002DE9F04FF0
:1072D000C84889B00468002C79D0A089FCF798FFD1
:1072E000B0B12278217EC4A0FBF7A5FF207E012843
:1072F0006DD194F8510000254FF01E0970B184F84B
:107300005150A0898DF8089000950123019594E0D3
:10731000A08909B0BDE8F04FFCF77DBF20781728A1
:1073200001D02B2818D1204615F0D5FAA18FC01E08
:10733000884211DA204615F0CEFA0246A18FBCA091
:10734000FBF779FF2046FFF73FFE09B02046BDE876
:10735000F04F0D21FEF700BA606D04F01FFA0646EB
:107360002178BEA0FBF767FF94F800C00423022039
:1073700008220E274FF420514FF0100A4FF00C0B4B
:10738000BCF1360F3FD2DFE80CF03E1B3E233E41FE
:107390003E443E4B3E5B3E643E673E6A3E6C3E91E1
:1073A0003EA43EA63EAA3EAC3EAF3EB13EB93EDB59
:1073B0003EC13ECB3ED33EE83EF03EA83EF83EFD09
:1073C0002070E08D0090A38DA289102052E01AE079
:1073D00023700D46618B39B1ADF81C10E18D07AA01
:1073E0000091CDE9012008E003A904F11C0016F08A
:1073F000E5FBE18D03AA8DE80604A38DA289294649
:107400000620FDF73BF809B0BDE8F08F062020709C
:1074100000E0227009B02046BDE8F04F16F0C1BC74
:107420002270A089A18DE28D8DF80830ADF8091089
:10743000ADF80B2000950523019502AA042132E046
:1074400084F800B0E08D0090A38DA28942F602017D
:107450000FE02770228E5CE084F800A058E0122034
:107460005FE014202070618B39B1E08D0090A38D16
:10747000A2890820FDF747FAC5E7A689A18DE08D0E
:107480008DF80820ADF8091004F11C03ADF80B00CD
:107490000DF10D01184616F091FB0095152302AA77
:1074A00004213046019503F0CFFFACE71620207091
:1074B000B4F844104FF6FF72A589A06C02EA4101AE
:1074C000CDE9000101238DF8087002AA04212846A5
:1074D000E9E718202DE01A2040E032203EE01C2091
:1074E0003CE084F8009042E0202000E02220207060
:1074F00009B02046BDE8F04F16F04EBC24202070A5
:1075000009B02046BDE8F04F16F08BBC2820207053
:10751000228FA18909B00A20BDE8F04FFDF708BA13
:107520002A20207009B02046BDE8F04F16F064BC58
:107530002C20207009B02046BDE8F04F16F07CBC2E
:107540002620207004F14E000090B4F84C20A18950
:1075500002231220FDF76AFC55E72E20207009B0A7
:107560002046BDE8F04F16F02CBC3020207009B04A
:107570002046BDE8F04F16F01FBC17F0F9F80028C0
:1075800093D000E010E034202070B06D216C01AB8E
:107590000091384A83E81500A38F228FD22106F18B
:1075A000480017F0EFF82EE736202070B16DB4F8E0
:1075B0000C90228FB4F83C80D223276C8DF81030C9
:1075C000ADF81120059104F158000DF1140A06A937
:1075D00016F003FB8DE8800D032304AA042148461E
:1075E00003F07AFF25702046FFF7EEFCB06D401CDB
:1075F000B06508E7083300202D2068616E646C6573
:107600005F7065726970686572616C5F6C697374D4
:107610002C206D74752073746174652025752C2081
:10762000636C69656E7420737461746520257500E0
:10763000676174745F636C69656E745F72756E3ACE
:107640002076616C7565206C656E202575203E2066
:107650004D5455202575202D20330A006761747420
:107660005F636C69656E745F737461746520257502
:10767000000000005D4D00022DE9F04707461D4661
:10768000164689460846DDF8208015F049FC044678
:10769000007850B9484617F029FE014660650AA0F7
:1076A000FBF7C9FD606D002802DA9520BDE8F08780
:1076B000A7602687A5873320C4F840802070FFF795
:1076C00005FE0020F2E700006C655F646576696383
:1076D000655F6B6579206973203A307825780A00F8
:1076E00070B50A4E0546002456F82400A84207D17A
:1076F000A98907A0FBF79FFD7F212846FFF7D5FD4D
:10770000641C2404240CEFD070BD0000083300205A
:107710004741545420636C69656E742074696D65CB
:107720006F75742068616E646C652C2068616E648E
:107730006C65203078253032780000002DE9F0416A
:1077400006461C4615460846069F15F01FFC20B14C
:10775000017821B19520BDE8F0815620FBE78660D5
:1077600005878487002141872B2107640170FFF77B
:10777000ADFD0020EFE770B506461D4614460846ED
:1077800015F004FC18B1017819B1952070BD562090
:1077900070BDE90704D0A179C90601D4982070BD55
:1077A000A90704D5A179890601D4992070BD866006
:1077B00061888185A188C185A0F84E502321017080
:1077C000FFF784FD002070BD1CB5049CCDE900349A
:1077D000002300F001F81CBD2DE9F0410646DDE96B
:1077E00006781C461546084615F0D0FB20B10178F6
:1077F00021B19520BDE8F0815620FBE78660058722
:10780000878744872D21C0F840800170FFF75EFD17
:107810000020EFE71CB5049CCDE90034002300F004
:1078200001F81CBD2DE9F0410646DDE906781C464D
:107830001546084615F0AAFB20B1017821B1952024
:10784000BDE8F0815620FBE786600587878744877F
:107850001921C0F840800170FFF738FD0020EFE7E4
:107860002DE9F04106461C4615460846069F15F0D0
:107870008DFB20B1017821B19520BDE8F081562023
:10788000FBE7866005878487172107640170FFF78F
:107890001DFD0020F1E7F8B51E4615460F4615F010
:1078A0003FFB040003D0207818B19520F8BD562086
:1078B000F8BD204615F00FF8C01EA84201DA972047
:1078C000F8BD0096A1892B463A465220FDF7AEFA44
:1078D000C0B2F8BDF0B5002423460125C65C0022E5
:1078E00005FA02F73E4207D08C4203D102EBC300F7
:1078F000C0B2F0BD641CA4B2521CD2B2082AEFD3AD
:107900005B1CDBB2052BE9D3FF20F0BD10B50021D5
:107910004FF4FA5200BF491C9142FBDB80B215F0D4
:107920000DF800BF18F0A2FF0028FBD1BDE8104001
:1079300018F08EBF08B100207047014800687047FA
:10794000083300204278891A0844B0F803007047D1
:107950002DE9FC41164C18271E46D4F808C0BCF18E
:10796000000F11D04978D9B12178002579B1FCF701
:10797000F5FB237862882570658002B03946304671
:10798000BDE8F04116F088BA03230022F5E7002392
:1079900000950195B0F8060102221946E04701E082
:1079A000FCF7DCFB192030700120BDE8FC810000F1
:1079B000D43200202DE9FF4F87B01D46DDE9147356
:1079C0008946824600264FF0060B0124B0463A460F
:1079D00029463248FBF72CFCBD4204D81DB1DAF829
:1079E0002401009046E0012351E06846FCF76CFE5C
:1079F000BDF8080008B1A8423CD3B8423DD8CEB18A
:107A000058B14FF420516846FCF7A6FE28B942F65B
:107A100001016846FCF7A0FE60B1414620A0FBF7DB
:107A200007FC29F80480A41CA4B209990026201D93
:107A3000884222D8BDF80800B0F100081AD0684684
:107A40001599FCF789FEA8B1BDF81020169882425E
:107A500010D105991798FAF743FD58B9BDF80810E9
:107A600016A0FBF7E5FBBDF8081029F80410A41CCC
:107A7000A4B2012600980028B7D1012C06D0072116
:107A800089F8001020460BB0BDE8F08F0A232A4683
:107A90005946484616F000FAF5E70000B8460202DB
:107AA000456E64206F662067726F75702C20686168
:107AB0006E646C65203078253034780042656769E3
:107AC0006E206F662067726F75702C2068616E641F
:107AD0006C65203078253034780000002DE9F04FB7
