:020000040000FA
:10400000001F0A408D41000059490000D5400000C2
:1040100059490000594900005949000000000000BA
:10402000000000000000000000000000854B0000C0
:10403000AF410000000000004D4B0000914B00001C
:104040005DE0010095E001005DE20100B541000086
:104050006DE201007DE201008DE20100B54100004A
:10406000B54100009DE20100B5410000B5410000EE
:10407000B5410000B5410000ADE20100BDE2010024
:10408000CDE20100DDE20100EDE20100FDE2010010
:10409000B5410000B5410000B5410000B541000048
:1040A000B5410000B541000011E30100B541000039
:1040B0000100092400400200DFF80CD000F088FB6A
:1040C000004800470DD40100001F0A4030B580476A
:1040D00030BD00BF1EF0040F0CBFEFF30880EFF3FC
:1040E000098081694EF63512C0F2010210470000C6
:1040F0002DE9FF5FEFF31080EFF31181EFF31282F0
:10410000EFF313830FB440F60000C2F200001A4927
:104110000160EFF30881EFF30982EFF31483EFF30B
:10412000038441608260C36004611448016841F007
:104130000101016044F6206000BF401EFCD1104820
:1041400041688268C368046981F3088882F309883A
:1041500083F3148884F30388BFF34F8FBFF36F8F0B
:104160000FBC80F3108881F3118882F3128883F3E7
:104170001388BDE8FF5F70473F410000040309401A
:104180000008002040BA7047C0BA70470A4801686A
:1041900011F0010F1CBF21F00101016002D007489E
:1041A0000068004706480047FEE7FEE7FEE7FEE737
:1041B000FEE7FEE7FEE7000064010440000800207F
:1041C000B94000002DE9F0035FEA930C67D000BF0F
:1041D00030F9024B31F9026B30F9025B31F9027BA5
:1041E00004FB06F805FB07F94FEA6848A8EB6948A5
:1041F0007C4322F8028B6414754304EB654422F877
:10420000024B30F9024B31F9026B30F9025B31F9A4
:10421000027B04FB06F805FB07F94FEA6848A8EBA8
:1042200069487C4322F8028B6414754304EB6544AF
:1042300022F8024B30F9024B31F9026B30F9025B84
:1042400031F9027B04FB06F805FB07F94FEA6848E1
:10425000A8EB69487C4322F8028B6414754304EB95
:10426000654422F8024B30F9024B31F9026B30F908
:10427000025B31F9027B04FB06F805FB07F94FEA04
:1042800068487C43A8EB69486414754322F8028BA4
:1042900004EB654422F8024BBCF1010C98D113F0F9
:1042A000030304BFBDE8F003704700BF30F9024BC1
:1042B00031F902CB30F9025B31F9026B04FB0CF7E8
:1042C0007F1405FB06F87443A7EB6847641422F8D3
:1042D000027B05FB0CFC04EB6C4C22F802CB5B1E52
:1042E000E4D1BDE8F00370472DE9F05F05460020FA
:1042F00092469B4688460646814640241BE0284657
:1043000041464746224600F09EF853465A46C01A98
:10431000914110D311461846224600F085F82D1A17
:1043200067EB01084F4622460120002100F07CF88F
:1043300017EB00094E41201EA4F10104DFDC4846C2
:1043400031462A464346BDE8F09F00000649074A29
:104350000868504343F2390210440860400870472F
:104360000149086070470000900200206D4EC64170
:1043700010B5431A934209D28318881803E010F845
:10438000011D03F8011D521EF9D210BD40EA0103C0
:104390009B0703D009E008C9121F08C0042AFAD2FB
:1043A00003E011F8013B00F8013B521EF9D210BDA9
:1043B000D2B201E000F8012B491EFBD27047002267
:1043C000F6E710B513460A4604461946FFF7F0FF14
:1043D000204610BD421C10F8011B0029FBD1801A99
:1043E000704730B504460020034600E05B1C934252
:1043F00003D2E05CCD5C401BF8D030BD30B50B463D
:10440000014600202022012409E021FA02F59D4204
:1044100005D303FA02F5491B04FA02F52844151ED8
:10442000A2F10102F1DC30BD202A04DB203A00FABF
:1044300002F1002070479140C2F1200320FA03F3FB
:10444000194390407047202A04DB203A21FA02F0F9
:104450000021704721FA02F3D040C2F120029140BE
:104460000843194670472DE9FE4F804681EA030054
:10447000C00F0C46009021F0004123F00045B8EB3E
:104480000200A94105D24046214690461C460B46F3
:10449000024623F00040104304D14046214603B0B9
:1044A000BDE8F08F270DC7F30A00C3F30A5102904D
:1044B000401A0190402866DAC3F3130040F4801BD1
:1044C0000098924620B10023D2EB030A63EB0B0B5A
:1044D00001985946C0F140025046FFF7A5FF064635
:1044E0000D4650465946019A00F084F910EB080039
:1044F0006141002487EA115284EAE7731A433BD0F2
:10450000009A3AB3019A012A4FEA075210DC001BC5
:1045100061EB02014FF0004202EA0752CDE900428E
:10452000001C41F5801132462B4600F082F9B6E7B7
:10453000001B61EB0201001C41F5801300185B4178
:104540002018A2F5001747EB030140EAD570B61911
:104550006D4111E06D084FEA360645EAC0754FEA35
:104560000752001B61EB0201001C41F58011490854
:104570004FEA30000019514132462B4603B0BDE8E6
:10458000F04F00F049B90098012240000023D0EB21
:10459000020263EBE073009821464FEAE074B8EB47
:1045A000000061EB0401E9E783F000435BE781F081
:1045B000004158E72DE9FE4F81EA030404F000446E
:1045C00021F0004100944FF0000B23F0004350EA2B
:1045D000010402D052EA030404D10020014603B0D2
:1045E000BDE8F08FC3F30A54C1F30A552C44A4F27A
:1045F000F3340194A0FB0254C1F3130141F4801180
:10460000C3F3130343F4801301FB024400FB034E86
:10461000840A970A44EA815447EA8357A4FB07684F
:1046200002958D0A05FB07854FEA932C04FB0C5479
:104630002705029D4FEA065847EA1637B5EB0805ED
:104640006EEB070C870E920E47EA811742EA83123F
:10465000A7FB0201B6EB0B0164EB00042B0D43EA50
:104660000C335E1844EB1C50DA465146E7FB02015E
:10467000C5F313044FEA0B3343EA14534FEA0432F1
:10468000019C43EA0603A4F10C040294009CCDE9CA
:1046900000B400F0CEF8A2E72DE9F04D81EA030462
:1046A00004F0004B21F0004514464FF0000A23F0BF
:1046B000004150EA050220D054EA01021DD0C5F3A2
:1046C0000A570246C5F31303C1F31300C1F30A5698
:1046D00040F4801543F48013A7EB0608101BD64660
:1046E00008F2FD3873EB050002D308F1010801E080
:1046F00092185B41B8F1000F03DA00200146BDE8D3
:10470000F08D00204FF48011064684460EE0171B02
:1047100073EB050705D3121B63EB050306434CEA55
:10472000010C49084FEA300092185B4150EA01073A
:10473000EDD152EA030012D082EA040083EA0501B7
:10474000084303D100224FF0004308E0101BAB41A7
:1047500002D20122002302E06FF0010253101AEB93
:1047600006004CEB085110EB0A0041EB0B01BDE8D1
:10477000F04D00F051B8C1F30A52C1F3130140F2F9
:10478000FF3341F480119A4202DA0020014670475B
:1047900040F233439A42A2F2334202DC5242FFF724
:1047A00052BEFFF741BE000030B5002904DB4FF0D8
:1047B0000044404264EB0101002B04DB4FF0004455
:1047C000524264EB0303994208BF904230BD00009F
:1047D000064C074D06E0E06840F0010394E807004E
:1047E00098471034AC42F6D3FFF76AFC303C020025
:1047F000503C0200202A06DBCB17203A41FA02F097
:1048000043EAE07306E041FA02F3D040C2F120022D
:10481000914008431946704710B5002B08DA401C38
:1048200041F1000192185B411A4301D120F00100CF
:1048300010BD2DE9F04D92469B4611B1B1FA81F2BF
:1048400002E0B0FA80F220329046FFF7EDFD044618
:104850000F4640EA0A0041EA0B0153465A46084314
:1048600003D120463946BDE8F08D114653EA0100D8
:1048700015D0C8F140025046FFF7E5FD05460E464B
:10488000504659464246FFF7CFFD084301D001206C
:1048900000E00020054346EAE0762C4337430A98BF
:1048A0004FEA4453A0EB08004FEAD4240A304FF0FB
:1048B000000244EA47544FEAD72502D500200146BA
:1048C000D1E7010510196941DDE908450019694181
:1048D000BDE8F04DA0E770B501EB020410F8015BF4
:1048E00015F0070301D110F8013B2A1106D110F889
:1048F000012B03E010F8016B01F8016B5B1EF9D18D
:104900002B0705D40023521E0FD401F8013BFAE710
:1049100010F8013B02F10202A1EB030303E013F8DC
:10492000015B01F8015B521EF9D5A142D6D30020EC
:1049300070BD000019F070FE054C064D2068416AFC
:10494000286888470028F9D119F00EFEF6E7000024
:104950000400002010000020044800680122C0F379
:104960000801891E092006F0A7BC000004ED00E044
:1049700004480068C00503D103484068406B004705
:104980007047000004ED00E00000002004480068CB
:10499000C00503D103484068806B004770470000A2
:1049A00004ED00E00000002010B5C368D9B28029F2
:1049B0000FD98468E06800B101204B2213A100F0F8
:1049C00077FEE16819B12069BDE81040084772B66A
:1049D000FEE70446008A616982B2D8B2124B1B68B6
:1049E000984706F02BF800280FD1E068022806D07F
:1049F00004280AD1A069BDE8104006F019B8A08BC0
:104A0000A169BDE8104006F011B810BD4863695FA8
:104A1000696E7465726E616C5F7472616E73706FD3
:104A200072742E6300000000440100201FB541682D
:104A30000A2914D007DC09B1052923D104B0BDE847
:104A40001040FFF7B1BF0B291DD00C291AD1018AE4
:104A5000C268406904B089B2BDE8104010470E49F1
:104A600091E81C00C968CDE90023CDE90241C16885
:104A7000019141690291008AADF80C00102168464D
:104A800005F01CFE1FBD018A8AB24169C06804B0EE
:104A9000BDE8104007F0B4BCC8290200074A131D46
:104AA0005980116860F307011160106840F40070CC
:104AB000106010688005FCD47047000008040940AD
:104AC00000F01F020121914040094FF0E02202EB6B
:104AD0008000C0F88012704700F01F020121914051
:104AE00040094FF0E02202EB8000C0F8001170474F
:104AF0004907090E002803DA00F00F00024A00E01F
:104B0000024A81547047000014ED00E000E400E028
:104B1000024A1140014302480160704780FFFF1FB5
:104B200008ED00E000B589B0816803910021CDE96E
:104B3000011004486946006882690348006890478C
:104B400009B000BD040000201400002001484068A6
:104B5000806C004700000020014800F003B800000E
:104B600068010440014608680A688242FBD10A686D
:104B70008242F8D170470000014948727047000036
:104B8000D800002001484068406C00470000002029
:104B900001484068006C0047000000200FB4054B3E
:104BA00010B503A9044A029800F0EAF810BC5DF8B9
:104BB00014FB0000C5720000940200200FB4084BE3
:104BC00010B504A902AA039800F0DAF8044602A975
:104BD000002000F078FC204610BC5DF814FB0000BB
:104BE000C7540000014B024A00F0CAB8C572000069
:104BF00094020020704770477047704770477047B5
:104C00007047704702E008C8121F08C1002AFAD195
:104C100070477047002001E001C1121F002AFBD13C
:104C2000704700002DE9FF5FDDE90220010DDDF88E
:104C300038B0024310D10F9801244CA2012808D0AB
:104C4000002100980F9BC0E90021C0E90243BDE8A4
:104C5000FF9F6FEA0B01F4E7A1F2FF3144F6105019
:104C600041430D140F9801280ED0A5EB0B00401CFA
:104C70004FF000043E4EDFF8FC90B0F1000AA04671
:104C800005DACAF1000717E0CBF10000F0E70746AC
:104C900012E0F80707D02246334640464946FFF760
:104CA00089FC804689462246334610461946FFF75E
:104CB00081FC04460E467F10002FEAD1DDE9020197
:104CC000BAF1000F42464B4602DAFFF773FC01E0EF
:104CD000FFF7E2FC04460E460022274BFFF764FD77
:104CE00003D84FF0FF30014607E00022234B204657
:104CF0003146FFF7B8FBFFF73EFD102409E0002C1A
:104D00000ADB0A220023FFF7EFFA019B30321A5523
:104D1000641E50EA0102F2D1641C019AC4F111032D
:104D200014440F9A012A09D00122084301D15B459E
:104D30000FDD4FF0000205F101050DE0084303D13E
:104D4000A3EB0B056D1E09E000204FF0110B0F9037
:104D500088E701DA00226D1E002A83D000980F999F
:104D6000C0E90231C0E9004571E7000030000000F1
:104D7000000024400000F03F0000F0430000E03F4E
:104D80002DE9FF4F95B09B4689460646002512E265
:104D9000252878D10024761CF94A2746012105945C
:104DA0003378203B01FA03F0104202D00443761C12
:104DB000F6E730782A2811D06FF02F033078A0F171
:104DC0003002092A16D8059A44F0020402EB820246
:104DD00003EB42021044761C0590EFE759F8042BD0
:104DE0000592002A03DA504244F40054059044F03E
:104DF0000204761C30782E2816D116F8010F44F0E4
:104E000004042A280DD06FF02F023078A0F130036F
:104E1000092B09D807EB870302EB4303C718761C5D
:104E2000F3E759F8047B761C30786C280FD006DC49
:104E30004C2817D068280DD06A2814D104E07428B3
:104E400010D07A280FD10DE044F400140AE044F4A5
:104E5000801401E044F440147278824202D1761C3E
:104E600004F58014761C307866280BD013DC5828A3
:104E700077D009DC002875D04528F6D04628F4D034
:104E800047281AD19FE118E0632835D0642879D0EB
:104E9000652812D197E1702873D008DC6728F1D01B
:104EA00069286FD06E280DD06F2806D1B5E0732821
:104EB0002CD0752875D0782874D05A461799904709
:104EC0006D1C76E1C4F30250022809D003280DD0EE
:104ED000D9F8001004280DD00D6009F1040968E12B
:104EE000D9F80010EA17C1E90052F6E7D9F8001026
:104EF0000D80F2E70D70F0E719F8041B8DF8001033
:104F000000208DF80100EA46012003E059F804ABC7
:104F10004FF0FF3061074FF0000102D40DE008F1BF
:104F200001018846B9420FDA8045F8DB1AF808100B
:104F30000029F4D108E008F1010188468142FADB3A
:104F40001AF808100029F6D105985B46A0EB08076F
:104F500021463846179A00F09EFA284400EB0805CF
:104F600007E04DE02BE10DE01AF8010B5A461799C6
:104F70009047B8F10108F7D25B4621463846179AA8
:104F800014E142E00A220092C4F302524FF0000AF8
:104F9000022A08D059F804CB032A4FEAEC710AD050
:104FA0000DE029E02AE009F1070121F00702F2E80B
:104FB00002C1914609E00FFA8CFC4FEAEC71042A19
:104FC00003D14FFA8CFC4FEAEC71002907DA0A464C
:104FD0000021DCF1000C61EB02012D2202E0220530
:104FE00004D52B228DF80420012203E0E20701D032
:104FF0002022F7E7904653E00A2102E010220DE05C
:1050000010214FF0000A00910BE010224FF0000A2F
:1050100044F004040827009203E008224FF0000A3D
:105020000092C4F30252022A05D059F804CB0021A1
:10503000032A08D009E009F1070121F00702F2E88C
:1050400002C1914605E01FFA8CFC042A01D10CF044
:10505000FF0C4FF00008220722D5702827D0009BB4
:1050600083F0100353EA0A0309D15CEA010206D077
:1050700030228DF804208DF8050002229046009B16
:1050800083F0080353EA0A030AD15CEA010201D162
:10509000620705D530228DF804204FF001087F1EED
:1050A000582809D037A003900EA8029013E04022A0
:1050B0008DF804200122E1E737A0F4E7534660466B
:1050C000009AFFF711F984460398825C0298A0F1D8
:1050D0000100029002705CEA0100EFD1029806A97B
:1050E000A1EB000000F1200A600702D524F480340F
:1050F00000E00127574502DDA7EB0A0000E0002091
:1051000000EB0A01009005984144A0EB01000590D6
:10511000E00306D45B462146179A059800F0BBF9D8
:105120000544002706E001A85A46C05D179990473C
:105130006D1C7F1C4745F6DBE0030CD55B46214622
:10514000179A059800F0A7F9054404E030205A4664
:10515000179990476D1C0099481E00900029F5DCB6
:1051600008E0029802995A460078491C0291179962
:1051700090476D1CBAF10001AAF1010AF1DC6BE164
:10518000092801003031323334353637383961621D
:1051900063646566000000003031323334353637E1
:1051A00038394142434445460000000000F060F9B0
:1051B000054406F10106307800287FF4E9AD19B006
:1051C0002846BDE8F08F620700D4062709F10702E0
:1051D00022F0070CFCE80223E14603F000485FEAF6
:1051E000080C02D00FF27C2C0DE05FEA045C02D5C3
:1051F0000FF2742C07E05FEAC47C02D00FF26C2C33
:1052000001E0AFF2700C4FF0FF3823F00043CDF80F
:1052100050C065280CD006DC452809D046281DD092
:1052200047283ED13EE0662818D0672839D139E0BA
:105230000021112F01DB112000E0781CCDE90001D5
:1052400006A90EA8FFF7EEFCDDE90F010E9A039107
:105250000021009207F1010A04914EE04FF0004056
:105260000097CDE9011006A90EA8FFF7DBFCDDE9E8
:105270000F0203920E9B11990022DDF80CA00093FF
:10528000049219B907F1010100EB010AB7EB0A001A
:1052900004D4C0F1FF3007F1010A0490AAEB070023
:1052A000019046E0012F00DA01270021112F01DDD6
:1052B000112000E03846CDE9000106A90EA8FFF74D
:1052C000B1FCDDE90F010E9A0391002104910092D7
:1052D000BA4621070CD40399514500DA8A46BAF13F
:1052E000010F05DD009AAAF10101515C302908D0B7
:1052F000B84202DA10F1040F06DA0121CDE90110FB
:1053000017E0AAF10101E9E7002805DC049901444E
:105310000491AAEB000102E0411C514500DD8A46E0
:105320000499A0EB010000F1010001904FF0004052
:105330000290200704D40198504501DBCDF8048089
:1053400000208DF84F0002980DF14F07B0F1004F8B
:1053500025D02B200E9002984FF0020800280CDA7E
:10536000404202902D200E9007E00A210298FFF79C
:1053700045F83031029007F8011DB8F10001A8F19D
:105380000108F2DC02980028EFD1791E0E9808700F
:10539000307800F0200040F0450007F8020D12A818
:1053A000A0EB070000F107081498007800B1012075
:1053B00000EB0A01019801EBE07105984144A0EB74
:1053C0000100A0F101000590E00306D45B462146F0
:1053D000179A059800F05FF805441498007820B1FA
:1053E0005A461799904705F10105E00323D55B461E
:1053F0002146179A059800F04EF805441BE00498E2
:10540000002807DBDDE90301884203DD0098405CEA
:10541000179901E0179930205A46904704986D1C5F
:10542000401C04900198401E019004D12E205A4641
:10543000179990476D1CBAF10001AAF1010ADEDC50
:1054400005E017F8010B5A46179990476D1CB8F103
:105450000001A8F10108F4DC5B462146179A059883
:10546000A4E600002D0000002B000000200000003A
:105470002DE9F041044600251E461746880405D450
:1054800006E039462020B04705F10105641EF8D535
:105490002846BDE8F0812DE9F041044600251E466E
:1054A0009046C80301D5302700E02027880405D5A1
:1054B00006E041463846B04705F10105641EF8D5BF
:1054C0002846BDE8F0810A68531C0B6010707047D5
:1054D0002DE9F05F06460088C0F30B00824605F018
:1054E0005DF80400707875884FEA101709D005F14F
:1054F0000408884508D02A1DBDE8F05F3548FFF74D
:105500007DBB514634A01EE001F046F907F00301CF
:10551000002740F2031B6063012903D002292CD02D
:105520003CA010E0A08F60B14119B1F5827F0ED38D
:10553000284853465A465C30FFF760FBA787BDE812
:10554000F09F514643A0BDE8F05FFFF757BBA16B4A
:105550002A4608440E30311DFEF70AFFA08F28446A
:1055600081B2A187E08F083081422FD3A06B0E302B
:1055700005F07EF8E787A78728E0A08F28B11548B7
:105580005146B030FFF73AFBA787B788381D8146F0
:10559000854205D31FFA88F1304605F069F815E019
:1055A000FF2D07D953465A46291DBDE8F05F3848FC
:1055B000FFF724BBA06B2A1D0E303146FEF7D8FE44
:1055C000A4F83C80E787A16BA1F81090BDE8F05FDC
:1055D00005F072BB902602006863692E633A206171
:1055E000636C5F68616E646C65722063616C6C658E
:1055F000642077697468206E6F6E2D7265676973B9
:1056000074657265642068616E646C65202575211F
:10561000000000006863692E633A2061636C5F6874
:10562000616E646C65722063616C6C65642077697F
:10563000746820696E76616C6964207061636B6563
:105640007420626F756E6461727920666C61677335
:105650002025750041434C20436F6E7420467261D3
:10566000676D656E7420627574206E6F2066697256
:10567000737420667261676D656E7420666F722048
:1056800068616E646C6520307825303278000000E7
:105690009427020010B505494FF6FF7302E08478A5
:1056A0008C54C01C02889A42F9D110BD00000A40F7
:1056B00010B50B46002803D11146184607F0C2FC6E
:1056C00010BD70471CB506498C68002C07D000211E
:1056D00000910191B0F806010B460322A0471CBDC2
:1056E0003000002070B50D4600281FD1002D1DD1BF
:1056F0000F4C4FF49476206818B9304600F090FFB4
:105700002060040012D031462046FEF758FEA4F86F
:10571000065104F58071284602F01FFF06F06EFE68
:10572000A4F802014FF0FF30A4F8080170BD00009A
:1057300044000020F8B51646028A069FA2EB01023B
:1057400094B2C288D2050AD50A4A55683DB1009381
:1057500000890A46014633463846A847F8BD9C42B0
:1057600000D91C464069224601443046FEF700FE3F
:105770002046F8BD30000020042105F049BF042177
:1057800006F04CBF024908600421024806F0BCBE86
:105790003C000020F15C00000249486004210248FE
:1057A00006F0B2BE3C000020F15C0000042105F0D0
:1057B0002FBF042106F032BF00B58BB0D0F8240112
:1057C000009023E0684600F02FFABDF80810002989
:1057D0001ED0BDF806200FA0FFF70CFABDF806009A
:1057E0008005039808D506A919F09AF906A81CF0B7
:1057F000E5FC014611A001E0018811A0FFF7FAF9CC
:10580000BDF8101010A0FFF7F5F900980028D9D1C5
:105810000BB000BD48616E646C653A20307825306D
:1058200034782C20666C6167733A203078253034E8
:10583000782C20757569643A2000000025730000FB
:1058400025303478000000002C2076616C75655F8F
:105850006C656E3A2025752C2076616C75653A2052
:1058600000000000064A30B45468002C06D00B46F5
:10587000A4460246002130BC0420604730BC70477B
:10588000440000207CB51446042819D120783E2815
:105890003FD016DC052853D0082801D030280FD17E
:1058A000B2F80350284600F0CBF8040008D0284690
:1058B0001AF05DF804F8FD0F284619F00FFD60702E
:1058C0007CBDD72859D0D82848D0DA28F8D16088AC
:1058D00000F0B6F80500F3D0B5F8060104F05EFE5E
:1058E0000600EDD02079317A8842E9D16946601D01
:1058F00019F028F9062231466846FEF772FD0028A5
:10590000DED1E07A85F8FF00B5F80601FFF751FF18
:105910007CBDA078012801D00A28F9D1D41C918837
:10592000D078FFF7DFFEB4F8010000F089F8050039
:10593000EED0B4F801001AF083FCA5F808017CBD94
:10594000B2F80340204600F07BF80028F7D000F0C2
:105950006DFE1049002041F824007CBD608800F0F5
:105960006FF80500F9D0B4F80B0001B2A5F80811E2
:1059700009A0FFF740F9284608E0508800F060F8D9
:105980000028EAD04FF0FF31A0F8081100F090FA9B
:105990007CBD000044000020534D5F4556454E54E9
:1059A0005F4944454E544954595F5245534F4C56F4
:1059B000494E475F53554343454544454420696438
:1059C000202575003EB50C468DF8080000208DF8A6
:1059D000092000900190022302AA0421204607F02A
:1059E00015F83EBD7FB50DF1200C1446BCE86400EF
:1059F0008DF80800ADF80930ADF80B20ADF80D10AA
:105A0000CDE90056072302AA0421204606F0FEFF36
:105A10007FBD70B515000C4603D0D0F8240120607E
:105A200008E0002070BD204600F0FEF82089A84262
:105A300003D020680028F6D170BD012070BD0000A1
:105A400008B10020704701480068704744000020FA
:105A50002DE9FF41164691F800C00024B0F800215E
:105A60004F1D1D46BCF10E0F72D00CDCACF1020EC6
:105A7000BEF10B0F1BD2DFE80EF0221A341A3C1ACB
:105A80004C1A5C1A6200BCF1180F70D009DCBCF132
:105A9000100F66D0BCF1120F76D0BCF1160F06D1F4
:105AA00077E0BCF1520F7ED0BCF1D20F7BD06146C3
:105AB0003FA0FFF79FF804B02046BDE8F081B1F8A1
:105AC0000110B0F802218A4202D9A0F8001101E0C9
:105AD000A0F8002103242C70B0F80001A5F8010003
:105AE000E9E7491C4B8800930B88294603F0B2FA7A
:105AF0000DE0CB1D491CF61FB4B28F884E88CDE94E
:105B00000243CDE900670B88294603F00FFA0446EB
:105B1000D1E70C462946072E01D8022300E01023C6
:105B2000641C6588CDE900530297238803F072FC5A
:105B3000EDE7B1F80130294603F086FDE7E7491C9F
:105B40004B8800930B88294603F05AFBDFE7FFE7F9
:105B5000491C761E0091C6F34F03294603F002FD4F
:105B6000D5E70C461946072E03D8022302E015E0BC
:105B70000AE01023641C6588CDE90053029723884E
:105B800003F0AEFBC3E70EE00092324603F0E8FDFF
:105B9000BDE70092324603F0D5FAB8E700923246EC
:105BA00003F092F9B3E70092324603F0A9FD82E7D1
:105BB000556E68616E646C65642041545420436F77
:105BC0006D6D616E643A20253032582C204441546A
:105BD000413A20001CB50B4B5C68002C10D0B6235A
:105BE0008DF8003005238DF801308DF80200ADF8F6
:105BF0000310ADF80520072300216A460420A047C2
:105C00001CBD00004400002010B580B2FFF718FF53
:105C1000002808D0B0F80A21B0F80611BDE81040FD
:105C20009120FFF7D7BF10BD10B501680A888280A8
:105C300072B14B88C3808C88048101F10604C46072
:105C40009B050CD5A2F11603038201F116030BE0AC
:105C50000021C1800181C1600182416106E0A2F1A1
:105C60000803038201F1080311444361016010BD80
:105C700070B5044600890D4600281BD0022A08D0C2
:105C8000E08880050BD51022E068FEF7AAFB80B102
:105C900011E009882046BDE8704000F00EB80846C3
:105CA00005F068FB002805D0E168A88909888842CA
:105CB00001D1012070BD002070BD70B5044600897F
:105CC0000D46002810D0E0888005E06808D505F072
:105CD00051FB002808D0E0688089A84203D004E086
:105CE0000088884201D1012070BD002070BD0000F5
:105CF0002DE9F041194C06461F46154688460428F2
:105D000009D0082E28D12878C00720D0D4F800C0A8
:105D10001FE03046E047287878281DD1D4F804C029
:105D2000BCF1000F08D03B462A4641463046E047CA
:105D300004F02CFB00280FD02468002C0CD03B462C
:105D40002A4641463046A446BDE8F0416047D4F8B3
:105D500004C0BCF1000FDCD1BDE8F0813C000020A4
:105D60002DE9F0410F461546044601461E461278BD
:105D700028A0FEF740FF042C0CD0082C48D1384650
:105D8000FFF75EFE040043D029781E2909D052296E
:105D900018D01EE0287878283AD1BDE8F04100F00C
:105DA0000FB9B4F80A01A0B104F5867000F0F6FC52
:105DB00004F583740020A288A0802188BDE8F0410A
:105DC000FFF708BF32462946BDE8F0410023FFF740
:105DD0003FBEFB2E06D93246BDE8F041FB231A48F0
:105DE000FEF709BF22782AB1BDE8F04116485030CD
:105DF000FEF701BF01202070A4F804613246294655
:105E0000A01CFEF7B5FA2046BDE8F04100F050B8FE
:105E1000BDE8F0816174745F7061636B65745F6885
:105E2000616E646C65723A207479706520307825F3
:105E30003032782C207061636B65745B305D20308C
:105E400078253032780000007824020010B5B0F8D0
:105E50000001029CC01E80B21970A3F80120844288
:105E600000D8204610BD1FB514468DF80800069ACC
:105E7000ADF80930ADF80B20ADF80D100020009002
:105E80000190072302AA0421204606F0BFFD1FBD92
:105E90003EB50C468DF80800ADF8092000200090B2
:105EA0000190032302AA0421204606F0AFFD3EBD67
:105EB0002DE9FF410446017824A0FEF79CFE2078DE
:105EC00001282DD1A078D22808D003202070B4F862
:105ED000060104B0BDE8F041FFF76BBC19F0EEFB22
:105EE0000027E0B1B4F804010F2818D3B4F8060174
:105EF00019F0DEFF002813D1B4F9080106F020FFE5
:105F000005000CD0B4F80411A4F10A000E58696C15
:105F1000324611A0FEF76FFE686CB04202D92770BE
:105F2000BDE8FF8102202070B4F803201749601DEE
:105F3000CDE90006CDE90214B4F80401A1780F38C8
:105F400083B205F1340019F0C3FBE9E76174745FB3
:105F500072756E3A20256400415454205369676E6F
:105F600065642057726974652C20444220636F7504
:105F70006E7465722025752C207061636B657420CA
:105F8000636F756E746572202575000045620000B0
:105F9000FFF70CBC0EB50B21CDE900238DF80810DE
:105FA000012302AA042106F031FD0EBD00B5FFF762
:105FB00047FD10B1B0F8000100BD172000BD000082
:105FC00038B513480468002C20D0207803280CD161
:105FD000204600F0A5F840B16078002816D0B4F84B
:105FE0000601BDE83840FFF7E4BB607800280DD01B
:105FF0000020607007A00068009005484468002CED
:1060000004D0022300216A460420A04738BD0000C6
:1060100044000020B70000002DE9FE431F4616464D
:106020000D468046FFF70CFD040005D0B4F80A01C8
:1060300020B19020BDE8FE835920FBE74046FFF7E2
:10604000B5FB88B102AB2A461D2120460097FFF719
:10605000FDFECDE90060032302AA0421404606F0BC
:10606000D5FC060002D014E05720E3E7A4F80A515B
:1060700004F5867042460849044600F0C1FB47F229
:10608000305240F28241204600F0A6FB204600F04C
:106090007BFB3046CEE70000095C000070B505468A
:1060A0000B480A4C0E46446004F054F90848083086
:1060B000446018F0A9FE0748FFF76EFB284600F081
:1060C000B5F83046BDE8704000F0B6B8855800001D
:1060D0004C000020615D00002DE9FE431E46154680
:1060E0000F468046FFF7ACFC040014D04046FFF793
:1060F0005DFB90B102AB3A461B2120460096FFF7AC
:10610000A5FECDE90050032302AA0421404606F073
:106110007DFCBDE8FE835920FBE75720F9E700002E
:106120002DE9FC412F4E002707700446B0F80421EA
:106130003346811CFFF78CFC0546A0F57F40FF38F5
:1061400023D0042D0FD3307801280CD130790828C2
:1061500009D194F8FE0030B1B4F8060119F0E5F861
:1061600078B1012811D085B100970197B4F80601E4
:106170002B463246042106F049FC3078032807D02C
:106180002DE0B4F806011AF04BFB0020BDE8FC81BD
:10619000154AB4F80611B4F80001556875B1B52276
:1061A0008DF8002004228DF80120ADF80210ADF822
:1061B0000400062300216A460420A847B4F806011B
:1061C00000F084F809480078C00708D0B4F800014E
:1061D0000022001D81B2B4F8060101F0E9FB0120A4
:1061E000D4E7000014040020440000205C000020DC
:1061F00001494860704700004400002010B5024685
:10620000FFF71EFC002806D001214170BDE81040B8
:106210001046FFF7CEBA10BD10B50C46FFF710FCC4
:10622000002801D0C0F8244110BD00000149486099
:10623000704700003000002001498860704700006E
:10624000300000207CB5044600780A4602280ED1B2
:106250006946104618F073FCB4F80411A01F0144FD
:1062600008226846FEF7BDF810B1002020707CBD02
:10627000B4F80411A4F10A000E58B4F9080106F0AC
:106280005FFD050001D0012000E00020ED2207A104
:10629000FFF70EFA45B1761C6E6403202070B4F847
:1062A0000601FFF786FA7CBD72B6FEE76174745F83
:1062B0007365727665722E63000000000A6882655D
:1062C0004968C1653521017002F0C6BA70B505464E
:1062D00002F0ECFD04000BD02846FFF7B1FB0028CC
:1062E00006D0E28AB0F800118A4202D9A0F8002153
:1062F00070BDE18270BD0000F8B50446C0880E464E
:10630000C0050BD506484568002D07D00020009039
:106310000346024621893046A8472082F8BD000086
:10632000300000207CB50E46C98804460D0B00D015
:106330006D1C14F8FD2F6078CDE90002A378FD3CB8
:106340002A461048FEF756FCF088410502D594F81D
:10635000FE1079B1000502D594F8FF0060B1002D60
:1063600002DD94F8FD0048B194F8FD00A84207DA78
:106370000C207CBD05207CBD08207CBD0F207CBD91
:1063800000207CBD742302003EB50C468DF8080049
:106390000699ADF80920CDE90013032302AA0421D0
:1063A000204606F033FB3EBD0622FEF71AB80A6807
:1063B000026089888180704710B50C49002203462D
:1063C0003A24985C000900F011FB0870985C00F01A
:1063D0000F0000F00BFB48708C70C91C521C062A81
:1063E000EFDB002001F8010C004810BD090300207C
:1063F0000844008840BA70474218405C537852887D
:1064000052BA63F31F4242EA00607047130A4354D2
:10641000491C89B242547047130E4354491C89B237
:10642000C2F307434354491C89B2C2F307234354C0
:10643000491C89B24254704710B50446FEF798FAD9
:1064400003480188A1430180BDE81040FEF79EBAD1
:106450001402002010B503F020FBBDE8104001201D
:1064600000F010B810B506490A68C2F30312022AF8
:10647000FAD1012100F0DEFBBDE8104004F0D4BEEB
:106480000400044010B50446FEF772FA0348018880
:1064900021430180BDE81040FEF778BA14020020C5
:1064A00003480078C00701D117F0F4BA7047000024
:1064B0001402002002480068816A02480068084708
:1064C000040000201000002010B504460E4800789B
:1064D000C00718D0FEF74CFA4CB103210B4817F057
:1064E0002FF803F0DCFA0FF0B5FE0CF065F8012090
:1064F000FFF7A2FF10F0D0FE032017F0FDFBBDE870
:106500001040FEF743BA10BD1402002050000300F3
:1065100070B50D480088A0B910F0D2FD40F2E245F8
:106520000446A8420DD30948406D50B917F0C2FC8B
:1065300038B117F0C7FCA84203D3A04200D32046CD
:1065400070BD002070BD0000140200200000094052
:1065500001490860704700005C0000200268134693
:1065600002E08A4204D01268002AFAD10B6001606E
:10657000704702E08A4205D010460268002AF9D12D
:106580000A6001607047006808B100207047012070
:10659000704704E0884201D101207047006800285C
:1065A000F8D170470268816832B14068006888425B
:1065B00000D1086808B9704709B101207047002070
:1065C00070470022C0E900210968816070470168B6
:1065D00051B141680A6881688A4203D14160096803
:1065E000816003E0826001E0012101608068704702
:1065F000816809688160426811600021016070470C
:106600004FF0FF3351B107E002688A4203D10968B5
:1066100001600020704710460028F5D118467047E9
:1066200001490968C96A084704000020014909684E
:10663000096B084704000020FFF7F8BF7820FFF738
:10664000EFBF10B50446806B06F009FC2046BDE89C
:106650001040FFF7EBBF70B59820FFF7E1FF040093
:106660000CD040F2111006F02DFC050008D0982146
:106670002046FDF7A4FE2046A56370BD002070BD36
:106680002046FFF7D3FFF9E77047FFF7CFBF54204D
:10669000FFF7C6BFFFF7CABF1420FFF7C1BF2DE940
:1066A000F04106460020984617460C4605463060E5
:1066B00005E02146304600F007F844446D1CBD4219
:1066C000F7DBBDE8F081000030B40268134607E054
:1066D0008B4204D1024630BC04A0FEF78DBA1B6881
:1066E000002BF5D10A60016030BC7047627473748E
:1066F00061636B5F6D656D6F72795F706F6F6C5FFB
:10670000667265653A20626C6F636B202570206647
:106710007265656420747769636520666F722070A6
:106720006F6F6C2025700000016819B10A68026063
:106730000846704700207047FFF778BF0C20FFF72E
:106740006FBF000000B589B00DF1080C019006483C
:1067500000680592ACE80B00044909688A6969463B
:10676000904709B000BD0000140000200400002084
:1067700013460A4601460A20FFF7E4BF13460A46BD
:1067800001460C20FFF7DEBF0249406909684968ED
:1067900008470000040000200020704710B50446A0
:1067A000406928B103490968C968884700206061C9
:1067B000002010BD0400002070B5064D044640695D
:1067C000296889688847296860694968BDE8704018
:1067D000084700000400002070B5044681600548A9
:1067E0001546054A006821460368284698476061B7
:1067F00070BD000004000020254B000001617047BF
:10680000C0E90312704700000249406909688968BD
:1068100008470000040000202DE9F0410746114818
:1068200015460E4604689846BE343888628821882A
:1068300000F024F9388062882188308800F01EF941
:106840003080E288A188288800F018F928806289C1
:106850002189B8F8000000F011F9A8F80000BDE89F
:10686000F0810000B825020070B50C00054601D08B
:10687000012000E000206A2206A1FEF719FF284649
:1068800000F034F810B100206C60206028682060AF
:106890002C6070BD6C6973745F62617369632E6391
:1068A0000000000070B50C00054601D0012000E09A
:1068B0000020532207A1FEF7FBFE284600F016F841
:1068C00008B12C6001E06868046000206C60206002
:1068D00070BD00006C6973745F62617369632E63DD
:1068E000000000000021016041607047006808B1AD
:1068F0000020704701207047006808B100207047F1
:1069000001207047016819B10A68026012B103E002
:106910000022FAE7002242600846704770B505463B
:1069200000680C4600B10120C32209A1FEF7C0FE99
:10693000206800B10120C42205A1FEF7B9FE6968F4
:10694000206808606068686000202060606070BD3A
:106950006C6973745F62617369632E630000000089
:1069600070B5034600200246012513F802400021BD
:1069700005FA01F6344201D0401C80B2491CC9B26C
:106980000829F5D3521CD2B2052AEED370BD70B5DA
:106990000446008942F6554290472521B0FBF1F2AA
:1069A00001FB1201CA0801F00705A25C0123AB40FC
:1069B0001A4201D0084670BDE18841432046BDE837
:1069C0007040C1F3074102F049BA30B5044610687F
:1069D000206010790D4600F01F0020712046FFF75F
:1069E000BFFFE08085EA1540208130BD0A2801DA2A
:1069F000303003E00A38062802DA4130C0B270476E
:106A00003F20704770B50446C08E88B0002822D061
:106A1000258F94F83430A2268DF800601A268DF860
:106A20000160A6890A46ADF80400ADF8082004F11B
:106A30001C01ADF80260ADF80650ADF80A30102226
:106A400003A8FDF795FCA1891C236A46A06800F005
:106A500031F90020E08608B070BD000006481144FE
:106A6000006800F2FF10814203D901201860032062
:106A700070470020704700007000002019B1884264
:106A800001D208467047002AFCD09042FAD910463D
:106A9000704700000249CA6D82430243CA657047CD
:106AA0000000094043688B4204D18068904201D1C4
:106AB0000120704700207047F8B5114C2021606814
:106AC00042694020904760616068006A80472061A9
:106AD0000120009060684FF480663346056900220B
:106AE000084909A0A847A0610020009060683346CB
:106AF00000220569064907A0A847E061F8BD00002B
:106B000000000020354900006374726C0000000032
:106B1000E5E70100686F73740000000010B50878A5
:106B20000C4648B10848007800070AD50022BDE8A5
:106B30001040022004F0C0BB04F0F9FB0022214603
:106B4000F5E7002010BD00000000002070B51D46D4
:106B500006460C46012809D120782968884205D1CB
:106B60000622211D6868FDF73CFC08B1002070BDBD
:106B7000C5E90264032070BD0248417A491C417294
:106B800070470000D800002010B5044603F05EF8FE
:106B900000200FF04DFB10F0A3F90FF095F908F06D
:106BA000D3F90CF085F811F081FE15F0F5FD002CFD
:106BB00003D0BDE8104010F02CBF10BD70B50446E6
:106BC000B0F1A53F19D0B4F1C33F16D001231A028A
:106BD00005211C2016F0CCFE0546B4F1F23F09D089
:106BE000922206A10020FEF763FD2846BDE8704012
:106BF00017F030B807202870F7E770BD6474626C36
:106C0000652E630070B50A4C4FF42020074DE064F8
:106C10001AF074FD800602D54FF4803001E04FF485
:106C200000402844C0F31300A06470BD00000A4077
:106C300000000940F8B505461B480E4600210180BA
:106C40000FF0DAFB1AF078FD16F03AFE68460FF006
:106C500015FC0446009840F68C114FF4A567884255
:106C600001D3012000E00020852210A1FEF720FDC5
:106C70003A462146002016F08FFE009804F5A561E3
:106C8000A0F5A56082B2012016F086FE1AF0E0FCA5
:106C90003046FFF779FF002D04D02846BDE8F840C4
:106CA000FFF78CBFF8BD0000140200206474697007
:106CB0002E63000030B4040003D0A44630BC04208E
:106CC000604730BC7047FEB51E4617460C46054669
:106CD00002F0ECF8002816D0011D6846FFF771FCA1
:106CE0000CE06846FFF773FC0189A14206D1D0F899
:106CF00004C033463A4629460420E0476846FFF779
:106D000051FC0028EDD1FEBD1CB5A0228DF800205D
:106D100003228DF801208289ADF802208DF804103D
:106D20008189806805236A46FFF7C4FF1CBD30B522
:106D300087B00446A3250A988DF8005018258DF8D1
:106D40000150A589ADF80410ADF806200146ADF854
:106D50000250ADF8083010220DF10A00FDF708FBD3
:106D6000A1891A236A46A068FFF7A4FF07B030BDC7
:106D700010B586B00446A1208DF8000016208DF8CD
:106D80000100A089ADF80410ADF80200ADF80620AE
:106D90001022194602A8FDF7EBFAA18918236A46CA
:106DA000A068FFF787FF06B010BD00002DE9F05F77
:106DB00000249246894605462746264624E000BF21
:106DC00005EB8400B0F9021035F9240017F0F0FE4D
:106DD000834605EB8800B0F9021035F9280017F05A
:106DE000E7FEABEB000043F6FF71884203DBA0F542
:106DF000FE40FF3804E00849884201DC490C0844A1
:106E0000074404EB4904761C04EB0908D045D7DBA2
:106E100097FBF6F0BDE8F09F01C0FFFF2DE9F043BE
:106E200042780446901C89B00E46814206D009B0D3
:106E3000921CBDE8F043E148FDF7E0BE2178E0A0F8
:106E4000FDF7DCFE2078DFF888834FF00009122878
:106E500068D00CDC0E2811D004DC05287ED0082870
:106E600045D16BE00F2827D0102840D18BE01328A4
:106E700044D03E2873D0572839D180E1D8F800009B
:106E8000A278454690F84610D2A0FDF7B7FE61798A
:106E9000D9A0FDF7B3FE2968A07881F846002968DB
:106EA000B4F80300B1F87A10884218D12868C26A91
:106EB000AAB1016B601D11E0D8F80020E1784046CE
:106EC00082F84610D8F80020A188B2F87A209142C2
:106ED00005D10168CA6A12B1096B601C9047D8F8E5
:106EE0000020A2F87A90D8F80010C1F82C90D8F8B9
:106EF000000090F85C0001287AD04CE103250027BF
:106F000018E0615BAD1C625BAD1C084603F046FBFC
:106F100038B190F84010914209D3891A80F8401096
:106F200007E000E034E0B9A0FDF768FE01E080F87A
:106F300040907F1CA078B842E3DCD8E7B4F8035057
:106F4000284603F02BFB0028D1D0A17859B96179EC
:106F50000029816904D041F4004103E00AE023E004
:106F600021F40041816100F007FC0146284603F04E
:106F7000F7FBBCE7B4F8030003F010FB0028B6D021
:106F800007214174B3E703F01BFE03F02DFEAEE7CB
:106F9000A0780028ABD1B4F8030003F0FFFA002872
:106FA000A5D0617A0174A2E7A07806287BD011DC15
:106FB00001281ED004289AD1E078002874D1A08836
:106FC00003F0ECFA00286FD08830A17941700121DC
:106FD00001708CE70A280CD0122888D12079082863
:106FE00085D2E178002972D096A0FDF707FE7EE7F2
:106FF000CDE0E0780028A0D1A7884FBBD8F80000EA
:107000004546406918B9FFF726FB2968486128689A
:10701000A8464569E5B1EF800220C5F81890A8742C
:107020002A46914905F11C00FFF7EAFBFFF7B4FB84
:107030006863E0792872294604F1080017F082FDA0
:1070400005206874A0792874A0780A2804D012E07A
:10705000A08800F08BF94AE7D4F80E10C5F88A1022
:10706000618AA5F88E106169C5F89010218B05F131
:107070008000A5F89410E089A5F85200287C60B93A
:10708000D8F8001091F84410E973D8F8000005F121
:10709000090190F8440000F01BFA2846FFF78CF92C
:1070A0000246E98801E013E06EE070A0FDF7A6FD5E
:1070B00003F02CFBD8F8000090F85200C00688D5E9
:1070C000E98840F6B832714803F09CFB0FE72CE0EA
:1070D00034F8037F384603F061FA05006088ADF8A4
:1070E0001400A088ADF81000E088ADF818002089E1
:1070F000A4F10304ADF81C00ADD007AB06AA04A9A7
:1071000005A8FFF789FB5435BDF818006B882A885D
:10711000BDF81C108DE80F00BDF81030BDF814202C
:1071200039465B4803F06EFBE1E6B4F805201046F3
:1071300003F034FA0546217956A0FDF75FFD20796A
:10714000D8F80020C0EBC001114491F88510E97314
:1071500069B12179D8F80000C1EBC101014401F106
:107160008000D1F8861045F8091F408905E0D8F85D
:107170000000816B45F8091F808FA880B7E6608802
:1071800003F00CFA0028A1D109B0BDE8F083B1B238
:10719000204603F0D7FBB1B2204603F08FFA2078E7
:1071A000052806D1B4F8030003F0F8F908B103F09C
:1071B000B3FE09B0BDE8F04303F07EBD0028020035
:1071C0004843493A4556454E543A253032780000F6
:1071D000B8250200434D445F434F4D504C45544544
:1071E00020636D6473206F6C64202575202D206EE4
:1071F0006577202575000000636D645F636F6D70B7
:107200002073746174757320257500006863695F6D
:107210006E756D6265725F636F6D706C65746564C9
:107220005F7061636B6574206C6973747320756E35
:107230007573656420636F6E2068616E646C652091
:107240002575000061647620736574207465726D25
:10725000696E61742064756520746F206361757355
:107260006520307825780A00B1A500004E657720AA
:10727000636F6E6E656374696F6E3A2068616E64E9
:107280006C652025752C20257300000078280200ED
:10729000002902006164762068616E646C6572206A
:1072A0003078257820636F6E6E6563746564207432
:1072B0006F20636F6E2068616E646C652030782586
:1072C000780A000010B5044604F02AF8204610BDE4
:1072D00013460A460146014803F094BAA829020061
:1072E0000246014803F08EBAA828020030B50C46C9
:1072F000054689B01946104600F066FA00280CD100
:107300006946284617F00CFC04A9204617F008FC33
:1073100004AA6946024803F075FA09B030BD0000BE
:10732000D8280200014803F06DBA0000A02802002E
:10733000014803F067BA000058290200014803F031
:1073400061BA0000B8290200014803F05BBA0000EE
:107350009828020008B5009313460A4601460248E1
:1073600003F050FA08BD00001C26020010B50346C9
:1073700003F014F940B1062141741322194605485F
:1073800003F040FA002010BD0021184603F082F9F6
:10739000F8E700006028020038B54FF0FF30ADF884
:1073A0000200ADF8000006250DE0684603F044F940
:1073B0000446407C062806D0E1881322054803F0E5
:1073C00021FA00B96574684603F016F90028ECD17B
:1073D00038BD0000602802002DE9FF4FDFF8A8A0AB
:1073E00085B00024DAF80020DDE912691268DFF8C0
:1073F00094808B460A2000EB061153692746B8F8A3
:10740000000003AA9847050001D001210FE0562093
:1074100009B0BDE8F08F00BF04EBC40219F81220D8
:10742000521E01FA02F03843641CC7B2E4B2B442FF
:10743000F2D3DDE907018DE883005B46D8F804103C
:107440002846059A03F0A0F8C7B200240DE000BF5B
:1074500004EBC40109EB4101891CE8191022FCF777
:1074600087FF1037641CFFB2E4B2B442F0D3DAF8FD
:107470000010404681F844B02946039A03F006FD07
:107480000020C5E788290200B825020010B500F0E9
:107490009BF9002804D1BDE81040024803F0B2B9BE
:1074A00010BD0000E02802000248006890F87C004F
:1074B00070470000B82502000449096851F8BE2F42
:1074C00002604A684260896881607047B82502009E
:1074D000064A0028106804D050F83E2F0A608088C1
:1074E00002E0826B0A60808F88807047B8250200B6
:1074F0000146014803F086B9C8280200034909681B
:107500008A6B0260898F818070470000B825020075
:1075100010B50446014604A0FDF770FB022C01D90A
:10752000012010BD002010BD6761705F6D69746D32
:107530005F70726F74656374696F6E5F7265717589
:10754000697265645F666F725F7365637572697493
:10755000795F6C6576656C20257500007FB50DF14F
:10756000200CBCE870008DE8780013460A460146FE
:10757000024803F047F904B070BD000090290200F2
:10758000014803F03FB900009829020013460A465B
:107590000146014803F036B90C26020013460A469C
:1075A0000146014803F02EB9042602001CB5049CD4
:1075B000CDE9003413460A460146024803F022F999
:1075C0001CBD0000142602000146014803F01AB950
:1075D000A02902000448817A012903D10221817285
:1075E00019F0C8B970470000D8000020074810B54E
:1075F000426C40F282210648FFF7EEF80448FFF79C
:10760000C3F8BDE81040FFF7E5BF0000D800002038
:107610006005002010B5002207490848FFF7F0F880
:10762000074840F28221426C0448FFF7D5F8BDE8D4
:1076300010400248FFF7A8B8ED7500006005002073
:10764000D8000020014803F0DDB8000090280200B7
:10765000014803F0D7B80000F4250200014803F008
:10766000D1B80000C02902000146014803F0CAB8A1
:10767000102902000146014803F0C4B8D0280200D6
:107680000146014803F0BEB86828020001460148DF
:1076900003F0B8B8802802000246014803F0B2B8EF
:1076A000B02802002DE9F0410E46074602F076FFB1
:1076B000050010D0384600F055F804460246314621
:1076C00008A0FDF79BFAB44207D321463846BDE82F
:1076D000F04103F045B80121F8E7AE74BDE8F04190
:1076E00003F0EABA6761705F726571756573745F04
:1076F00073656375726974795F6C6576656C202556
:10770000752C2063757272656E74206C6576656C7D
:10771000202575000146014803F074B85029020085
:1077200013460A460146014803F06CB8B02902002E
:1077300013460A460146014803F064B82C260200AD
:10774000F0B585B00DF1280CBCE8F0008DE8F8002C
:1077500013460A460146024803F054F805B0F0BD4E
:107760003C26020010B502F019FF18B1BDE8104028
:1077700000F002B8012010BD10B1008B000401D44C
:10778000012070470220704702207047074BC0EB72
:10779000C0021B681A440B6842F8863F8B889380AE
:1077A0000A460146024803F02DB80000B825020041
:1077B0002829020000B101200249096881F87C00F3
:1077C00070470000B8250200034A13685862106829
:1077D0008162002070470000B82502000149096855
:1077E00048637047B82502001CB5049CCDE90034FD
:1077F00013460A460146024803F004F81CBD000087
:10780000E42502000A460146014802F0FBBF0000E1
:10781000EC2502002DE9FE4F144E8846A6F11C010E
:107820001D4609681746814609683088DDF830A092
:107830004B6902AA691D9847040014D0CDE9007570
:1078400043464A46716802F09FFEC0B220442A4671
:107850005146FCF78DFD21463046029A03F016FB97
:107860000020BDE8FE8F5620FBE70000D425020073
:107870002DE9FC47124D0F46A5F1240199460968F0
:10788000164680460968288801AA4B69311D984729
:10789000040013D000963B464246696802F074FE2D
:1078A000C0B2204432464946FCF762FD21462846D4
:1078B000019A03F0EBFA0020BDE8FC875620FBE7B5
:1078C000DC25020004490268096841F8BE2F4268BD
:1078D0004A60806888607047B82502000A46014601
:1078E000014802F08FBF0000C42502002DE9FF5FB0
:1078F000154D8946291FDDE90E6B09681F46904624
:107900000968824628884B6903AA711D98470400BC
:1079100018D0CDF80080CDE901764B46524620467E
:10792000696802F031FEC0B2204432465946FCF785
:107930001FFD21462846039A03F0A8FA002004B050
:10794000BDE8F09F5620FAE7BC2502002DE9FF5F55
:10795000164D8946A5F11401DDE90E6B09681F4635
:1079600090460968824628884B6903AAB11D98474A
:10797000040018D0CDF80080CDE901764B46524680
:107980002046696802F000FEC0B2204432465946E3
:10799000FCF7EEFC21462846039A03F077FA002014
:1079A00004B0BDE8F09F5620FAE70000CC250200A5
:1079B0000AB944F2902213460A460146014802F0F1
:1079C00021BF00000829020013460A46014601486B
:1079D00002F018BF1829020008B50B4600920246B3
:1079E0000021024800F074F808BD000038290200A8
:1079F0002DE9FC4791461B4A194F884612680446F8
:107A00000221126801EB88013888536901AA98475E
:107A1000060007D043462246796802F0B5FDC5B29C
:107A2000002414E05620BDE8FC8700BF04EB4400AE
:107A300009EB40010A7900924B8819F8102070195F
:107A400009A102F0A1FD2D1D641CEDB2E4B2444574
:107A5000ECD331463846019A03F018FA0020E2E7E9
:107A600048290200B8250200313231002DE9F04FDB
:107A70008DB0DFF854C0DDE91F89DDE91BBADCF801
:107A800000C0DDE91D56C0EBC0076744DDF868E0C3
:107A9000179C87F8854008AFA7E86003DDF864C04D
:107AA000CDE906BACDE904CE169E189DCDE9003683
:107AB00013460A4601460548CDE9024502F0A2FEFA
:107AC0000DB0BDE8F08F0000B8250200302902009B
:107AD0002DE9FC471C460A9D174688468146F72B30
:107AE00026D9F720CDE900050B4601223946484644
:107AF00002F088FE002823D1F73CA4B2F73515E048
:107B0000F72C01D3F72600E02646A01BCDE900653F
:107B10000404240C01D0002200E00222434639462E
:107B2000484602F06FFE00280AD13544002CE7D108
:107B30004346032239464846CDE9004502F062FE3D
:107B4000BDE8FC8708B5009313460A460146024883
:107B500002F058FE08BD0000802902002DE9FC4714
:107B600016460F4602EB8601244ADFF88C809946C0
:107B70001268824600241268C91CB8F800005369D4
:107B800001AA9847050002D0002001220DE05620EE
:107B9000BDE8FC8700EB400319F813305B1E02FAC6
:107BA00003F12143401CCCB2C0B2B042F2D30094E6
:107BB0003B4652462846D8F8041002F0E5FCC7B20E
:107BC00000240FE004EB440109EB4100818800919F
:107BD00043884278E8190AA102F0D6FC7F1D641C94
:107BE000FFB2E4B2B442EDD329464046019A03F015
:107BF0004DF90020CCE7000078290200B8250200EA
:107C00003132320008B50B4600920246002102488C
:107C1000FFF75EFF08BD0000402902000A4601464A
:107C2000014802F0EFBD0000C02802002DE9F84332
:107C3000194F15460C468046F82923D90146F823EA
:107C400001223846009502F0DDFD002821D1F83CE4
:107C5000A4B2F83514E0F82C01D3F82600E026464B
:107C6000A01B0404240C009501D0002200E0022295
:107C700033464146384602F0C5FD002809D1354457
:107C8000002CE8D12346032241463846009502F0F5
:107C9000B9FDBDE8F8830000682902000A460146E4
:107CA000014802F0AFBD00007029020008B5009342
:107CB00013460A460146024802F0A4FD08BD000032
:107CC000602902000A460146014802F09BBD0000FF
:107CD000FC2502001CB5049CCDE9003413460A467D
:107CE0000146024802F08EFD1CBD00002029020062
:107CF00005490268096841F83E2F82888A8001465A
:107D0000024802F07FBD0000B8250200882802006A
:107D10000249096881F8450070470000B825020053
:107D20002DE9FF4F87B01C46DDE91A01DDE9186532
:107D3000DDE91687DDE914A99346FFF745FD002824
:107D40000DD1CDE9004ACDE90259CDF81080CDE939
:107D50000576DDE907125B46024802F053FD0BB0E1
:107D6000BDE8F08F24260200014802F04BBD000060
:107D70004C26020008B5009313460A460146024805
:107D800002F040FD08BD000034260200F0B587B0C7
:107D90000DF1300EBEE8F0108DE8F81013460A46DB
:107DA0000146024802F02EFD07B0F0BD4426020055
:107DB0002DE9FF410446DDE90A570C9E02F0EEFB77
:107DC000002805D0007C30B12046009504F045FC29
:107DD00004B0BDE8F08103968DE8A80013460A467A
:107DE0002146024802F00EFDF2E70000B82802002A
:107DF00008B59200921C0B460092014607220248E9
:107E000002F000FD08BD0000542602002DE9F047F5
:107E1000DFF88CA48AB01E461546884604280AD08E
:107E200008287DD128781B280FD01D2808461FD090
:107E300001F03CF81EE02978782971D1DAF8004089
:107E4000002C50D04146A0474DE0B5F801700C46DB
:107E5000D21CDE1E3946A72016F0BEFFF61C0246D5
:107E60000AB0B3B239462046BDE8F047FEF72BBF53
:107E700016F0F0FC040053D02978771E4FF001096A
:107E80000D2973D009DC0C2915D2DFE801F014EFBD
:107E9000143114EE14ED148614F0172967D006DCA3
:107EA0000F2978D0112952D0132904D167E119295B
:107EB00072D01D295CD0FBA0FCF79FFE28788DF8BE
:107EC00008908DF80900002006218DF80A008DF831
:107ED0000C108DF80B0000900190A089052302AAD8
:107EE000042104F093FD0AB0BDE8F04700F0B4BCF3
:107EF000B5F8015004F082FA854200D22846E082AB
:107F000084F81890DAF8005095B1AB208DF8000095
:107F100004208DF80100A089ADF80200E08A00E09D
:107F2000F7E1ADF804000623A1896A460420A847BA
:107F30004046FEF7CBF9E64800788007D3D4E08AC4
:107F40000022001D81B2A089FFF732FDCBE7207827
:107F50000228C8D132462946204616F0A3FD69788A
:107F60002046711A294401224988A7E00FE13CE12B
:107F70004746B5F80180EA1CF61E4146A82016F0D7
:107F80002BFF0246F61CB3B241463846FEF79BFE75
:107F900084F85190A7E76AE15BE120780C281BD0B8
:107FA00011DC062801D008289DD1324629462046FA
:107FB00016F02BFD3146284600F080FF0146204692
:107FC00019F07EFF8FE7142833D024288BD16888DE
:107FD000A4F84C0025203AE195F80180B8F1070F8C
:107FE00007D26888A085A8882086E88860860D204A
:107FF0002DE1022716E000BFE91935F807904A88FD
:1080000022868A886286C98801A81AF003F901A825
:108010000090638E228E49462046FEF788FE07EBCD
:10802000080087B2B742E7D369782046711A695AC7
:1080300043E095F8018000210227A8F1020A0DE033
:1080400035F80790EA191FFA8AF3921C4946204630
:1080500016F0CCFC07EB0800494687B2B742EFD3D5
:10806000204613222AE002E035E04CE009E12078C6
:108070000E2814D0102824D028288BD1204600F0B8
:108080007BFA218F6A1CA92016F0A6FE024608374B
:10809000BBB2A189A068FEF70DFE002135E101A960
:1080A000681C16F03DFDA18D01AA00922046638E4A
:1080B000228EFEF73CFEA18D20460B2219F020FFF8
:1080C00011E7204600F058FABBB2218F6A1C204607
:1080D00016F08CFCE1E74FF004094FF6FF7801271A
:1080E00004F11C0A09E0E819E95B40885346804620
:1080F00002462046FEF73CFE4F44B742F3DB2046E3
:1081000041460322DAE768780427022800D11227C3
:10811000F01B35F800A0AD1CB61E1FFA86F800262D
:1081200022E000BF35F80690042F05EB060021D0B1
:10813000801C06A916F0F4FCA4228DF8002014225D
:108140008DF80120A289ADF8022006A9ADF80490AF
:1081500010220DF10600FCF70BF9A18916236A46DF
:10816000A068FEF7A7FD3E444645DBDB20465146AE
:108170000922A3E7418806A81AF04CF8DCE720782A
:10818000182803D0262801D02C2899D1ACE0761EDF
:108190002078B6B2761DBFB2122815D02A288FD10A
:1081A000218F628F6B1CAA20009716F023FE02001D
:1081B00004D0B3B2A189A068FEF77CFD3A4629211C
:1081C000204619F065FE8EE6218F628F6B1CA6207B
:1081D000009716F00FFE020004D0B3B2A189A06888
:1081E000FEF768FD3A461121EAE720781A2812D0F6
:1081F0001C281CD02E2814D03228E4D1204600F0B0
:10820000BBF932462946204603F0D6F800287FF411
:1082100061AF7E2179E0B5F803001D226087192146
:1082200010E0B5F803002F2260872D210AE03246C6
:108230002946204603F0C0F840B1B5F803001D22DE
:1082400060871B21204619F04AFE4CE62120207051
:1082500049E620781E2847D0202845D0222802D081
:108260003028B0D140E0204600F086F9D1E72078F0
:108270001628A8D1BBB26A1C0021204616F0B6FB16
:1082800032E029790A292BD12078082830D021DC46
:10829000022829D0042827D0062821D128E0000070
:1082A000600000204154542048616E646C65722C5B
:1082B00020756E68616E646C656420726573706FA2
:1082C0006E736520747970652030782530327800BF
:1082D0005C0000200A2807D00C2805D014280CD0F8
:1082E000204600F0A8FAFEE5204600F045F9D4E665
:1082F000E18D2046FEF786FBF6E7204600F03CF9CC
:10830000A08D218E8842F2D10A212046FEF7FCFC86
:10831000E9E50AB0BDE8F08710B50446084616F056
:10832000CFFA18B1017819B1952010BD562010BDB3
:108330001F218460017000F08FFA002010BD70B51D
:1083400005461446084616F0BBFA18B1017819B173
:10835000952070BD562070BD85606188A2889142CD
:1083600003D10021FEF7D0FC07E0491C8185A188DC
:10837000C1850921017000F06FFA002070BD2DE960
:10838000F04107461D4616460846DDF8188016F0EF
:1083900097FA040004D0207820B19520BDE8F08140
:1083A0005620FBE7A760A685E585012084F85000EC
:1083B000002565831022414604F11C00FBF7D8FF1D
:1083C000E5860720207000F047FA0020E6E72DE957
:1083D000F04107461D4616460846DDF8188016F09F
:1083E0006FFA040004D0207820B19520BDE8F08118
:1083F0005620FBE7A760A685E585012084F850009C
:10840000A4F81A80414604F11C0019F003FF002073
:10841000E0860720207000F01FFA0020E6E770B524
:1084200006461C461546084616F04AFA18B1017869
:1084300019B1952070BD562070BD86608585C485B4
:10844000002180F85010C1860521017000F004FA67
:10845000002070BD10B50446084616F031FA18B178
:10846000017819B1952010BD562010BD01218460FE
:1084700081854FF6FF72C28501700021418300F0B3
:10848000EBF9002010BD70B505461646084616F0FB
:1084900017FA040003D0207818B1952070BD56203B
:1084A00070BD0120A560A0854FF6FF70E08500201B
:1084B00060831022314604F11C00FBF759FF0320B2
:1084C000207000F0C9F9002070BD70B50546144653
:1084D000084616F0F5F918B1017819B1952070BD6C
:1084E000562070BD0121856081854FF6FF71C185E1
:1084F00003210170448321461C3019F08BFE00F0EB
:10850000ABF9002070BD10B50446084616F0D8F946
:1085100018B1017819B1952010BD562010BD1D214C
:108520008460017000F098F9002010BD70B5064617
:108530001C461546084616F0C3F918B1017819B162
:10854000952070BD562070BD86608585C4850B2141
:10855000017000F081F9002070BD00B500F0A6FCAC
:1085600010B1027E012A03D017200880952000BD9B
:10857000C08A0880002000BD10B5002101700446AB
:1085800081890448FCF739FB04F16000BDE8104024
:10859000FEF704B99025020070B5042817D11078B1
:1085A000052810D1B2F80350284600F07FFC0400E3
:1085B00009D01F2100F03FF90549002041F82500AE
:1085C0002046FEF739F8BDE8704000F045B970BDAF
:1085D00064000020064910B504484860084601F0D0
:1085E000B9FEBDE810400348FDF7CCB899850000FE
:1085F000680000200D7E000010B516F02BF9002851
:1086000002D0007808B1002010BD012010BD10B5C7
:108610000C460146104600F049FC002806D04C608C
:108620000B81BDE81040001DFDF798BF10BD2DE97E
:10863000F0410646DDE906781C461546084616F068
:108640003FF920B1017821B19520BDE8F081562095
:10865000FBE786600587878744873121C0F8408023
:10866000017000F0F9F80020EFE770B505461446F8
:10867000084616F025F918B1017819B1952070BD9A
:10868000562070BD856004872721017000F0E4F852
:10869000002070BD0023AFF3008070B506461C4675
:1086A0001546084616F00CF918B1017819B1952055
:1086B00070BD562070BD86600587448729210170F2
:1086C00000F0CAF8002070BD0023AFF3008070B541
:1086D00006461C461546084616F0F2F818B1017811
:1086E00019B1952070BD562070BD866005874487FE
:1086F0001121017000F0B0F8002070BD70B5064681
:108700001D461446084616F0DBF818B1017819B179
:10871000952070BD562070BD8660A0F8444015219C
:108720008564017000F098F8002070BD70B50546B2
:108730001446084616F0C4F818B1017819B195200E
:1087400070BD562070BD85600487002141870F21D0
:10875000017000F081F8002070BD2DE9F04107465E
:108760001D4616460846DDF8188016F0A9F80400E4
:1087700004D0207820B19520BDE8F0815620FBE799
:10878000A760A685E5852686658600206083102281
:10879000414604F11C00FBF7EBFD1320207000F0B4
:1087A0005BF80020E8E72DE9F04107461D46164634
:1087B0000846DDF8188016F083F8040004D020780D
:1087C00020B19520BDE8F0815620FBE7A760A68583
:1087D000E58526866586A4F81A80414604F11C00CA
:1087E00019F018FD1320207000F036F80020E9E79A
:1087F0000149086070470000600000202DE9F04149
:1088000006461C4615460846069F16F059F820B144
:10881000017821B19520BDE8F0815620FBE7866004
:1088200005878487002141871B210764017000F0C0
:1088300013F80020EFE770B5044600780D460028D5
:1088400008D02046FFF798FE29462046BDE8704034
:10885000FEF75ABA70BD00002DE9F04FC74889B045
:108860000468002C7AD0A089FCF786FFB0B122788A
:10887000217EC3A0FCF7C1F9207E01286ED194F8B7
:10888000510000254FF01E0970B184F85150A089A5
:108890008DF8089000950123019595E0A08909B015
:1088A000BDE8F04FFCF76BBF2078172801D02B28CC
:1088B00018D1204615F06EFDA18FC01E884211DA36
:1088C000204615F067FD0246A18FBBA0FCF795F985
:1088D0002046FFF751FE09B02046BDE8F04F0D21BC
:1088E000FEF712BA606D04F02BFA06462178BDA09F
:1088F000FCF783F994F800800427022008224FF443
:1089000020514FF0100A4FF00C0B4FF00E0CB8F145
:10891000360F3FD2DFE808F03E1B3E233E413E4487
:108920003E4B3E5B3E643E683E6B3E6D3E923EA2D9
:108930003EA43EA83EAA3EAD3EAF3EB73ED93EBFA6
:108940003EC93ED13EE63EEE3EA63EF63EFE2070DD
:10895000E08D0090A38DA289102053E01AE02770CB
:108960000D46618B39B1ADF81C10E18D07AA00915D
:10897000CDE9012008E003A904F11C0016F0D0F8AD
:10898000E18D03AA8DE80604A38DA289294606205D
:10899000FDF728F809B0BDE8F08F0620207000E050
:1089A000227009B02046BDE8F04F16F098B9227049
:1089B000A089A18DE28D8DF80870ADF80910ADF891
:1089C0000B2000950523019502AA042133E084F8C9
:1089D00000B0E08D0090A38DA28942F6020110E064
:1089E00084F800C0228E59E084F800A055E01220DF
:1089F0005CE014202070618B39B1E08D0090A38D74
:108A0000A2890820FDF72FFAC4E7A689A08DE18D81
:108A10008DF80820ADF8090004F11C03ADF80B1027
:108A20000DF10D01184616F07BF80095152302AAEA
:108A300004213046019503F0E9FFABE716202070D2
:108A4000B4F844104FF6FF73A089A26C03EA410109
:108A5000CDE900218DF808C00123B5E718202DE0ED
:108A60001A2040E032203EE01C203CE084F80090D8
:108A700042E0202000E02220207009B02046BDE81E
:108A8000F04F16F027B92420207009B02046BDE829
:108A9000F04F16F064B928202070228FA18909B008
:108AA0000A20BDE8F04FFDF7F3B92A20207009B085
:108AB0002046BDE8F04F16F03DB92C20207009B0DB
:108AC0002046BDE8F04F16F055B92620207004F17D
:108AD0004E000090B4F84C20A18902231220FDF72B
:108AE00053FC57E72E20207009B02046BDE8F04F18
:108AF00016F005B93020207009B02046BDE8F04FCF
:108B000016F0F8B816F0DAFD002896D03420207060
:108B10003A4A00E00CE0B06D216C01AB009115C346
:108B2000A38F228FD22106F1480016F0D1FD31E744
:108B300036202070B16DB4F80C90228FB4F83C80D0
:108B4000D223276C8DF81030ADF81120059104F177
:108B500058000DF1140A06A915F0F1FF8DE8800DFB
:108B6000032304AA0421484603F098FF25702046F9
:108B7000FFF702FDB06D401CB0650BE764000020FC
:108B80002D2068616E646C655F70657269706865E0
:108B900072616C5F6C6973742C206D7475207374D2
:108BA0006174652025752C20636C69656E74207373
:108BB0007461746520257500676174745F636C6906
:108BC000656E745F72756E3A2076616C7565206CA7
:108BD000656E202575203E204D5455202575202D8D
:108BE00020330A00676174745F636C69656E745F3B
:108BF000737461746520257500000000BD6200007B
:108C00002DE9F04707461D46164689460846DDF819
:108C1000208015F01FFE0446007850B9484617F032
:108C20000FFB014660650AA0FBF7E7FF606D0028B7
:108C300002DA9520BDE8F087A7602687A587332054
:108C4000C4F840802070FFF707FE0020F2E7000024
:108C50006C655F6465766963655F6B6579206973D0
:108C6000203A307825780A0070B50A4E054600246F
:108C700056F82400A84207D1A98907A0FBF7BDFF39
:108C80007F212846FFF7D7FD641C2404240CEFD075
:108C900070BD0000640000204741545420636C699B
:108CA000656E742074696D656F75742068616E649B
:108CB0006C652C2068616E646C65203078253032DC
:108CC000780000002DE9F04106461C46154608468E
:108CD000069F15F0F5FD20B1017821B19520BDE882
:108CE000F0815620FBE78660058784870021418755
:108CF0002B2107640170FFF7AFFD0020EFE770B58F
:108D000006461D461446084615F0DAFD18B10178EE
:108D100019B1952070BD562070BDE90704D0A17926
:108D2000C90601D4982070BDA90704D5A179890688
:108D300001D4992070BD866061888185A188C18534
:108D4000A0F84E5023210170FFF786FD002070BD72
:108D50001CB5049CCDE90034002300F001F81CBDD3
:108D60002DE9F0410646DDE906781C461546084621
:108D700015F0A6FD20B1017821B19520BDE8F08164
:108D80005620FBE786600587878744872D21C0F83A
:108D900040800170FFF760FD0020EFE71CB5049CE8
:108DA000CDE90034002300F001F81CBD2DE9F041AD
:108DB0000646DDE906781C461546084615F080FD96
:108DC00020B1017821B19520BDE8F0815620FBE764
:108DD00086600587878744871921C0F84080017025
:108DE000FFF73AFD0020EFE72DE9F04106461C466B
:108DF00015460846069F15F063FD20B1017821B1A4
:108E00009520BDE8F0815620FBE7866005878487C2
:108E1000172107640170FFF71FFD0020F1E7F8B587
:108E20001E4615460F4615F015FD040003D02078A8
:108E300018B19520F8BD5620F8BD204615F0AAFAC5
:108E4000C01EA84201DA9720F8BD0096A1892B46E2
:108E50003A465220FDF798FAC0B2F8BDF0B50024AA
:108E600023460125C65C002205FA02F73E4207D0E0
:108E70008C4203D102EBC300C0B2F0BD641CA4B2AB
:108E8000521CD2B2082AEFD35B1CDBB2052BE9D30C
:108E9000FF20F0BD10B580B215F0C8FA18F020FE22
:108EA0000028FBD1BDE8104018F00CBE08B100202E
:108EB0007047014800687047640000204278891AB2
:108EC0000844B0F8030070472DE9FC41164C182700
:108ED0001E46D4F808C0BCF1000F11D04978D9B1B2
:108EE0002178002579B1FCF7EDFB237862882570A5
:108EF000658002B039463046BDE8F04115F072BFDA
:108F000003230022F5E7002300950195B0F8060140
:108F100002221946E04701E0FCF7D4FB192030702B
:108F20000120BDE8FC810000300000202DE9FF4F4A
:108F300087B01D46DDE914738946824600264FF04E
:108F4000060B0124B0463A4629463248FBF752FE4A
:108F5000BD4204D81DB1DAF82401009046E0012397
:108F600051E06846FCF760FEBDF8080008B1A84271
:108F70003CD3B8423DD8CEB158B14FF420516846E9
:108F8000FCF79BFE28B942F601016846FCF795FE06
:108F900060B1414620A0FBF72DFE29F80480A41CF7
:108FA000A4B209990026201D884222D8BDF80800E5
:108FB0005FEA00081AD068461599FCF77EFEA8B152
:108FC000BDF810201698824210D105991798FBF72A
:108FD00008FA58B9BDF8081016A0FBF70BFEBDF84B
:108FE000081029F80410A41CA4B201260098002837
:108FF000B7D1012C06D0072189F8001020460BB00C
:10900000BDE8F08F0A232A465946484615F0EAFE85
:10901000F5E70000E4230200456E64206F662067D8
:10902000726F75702C2068616E646C6520307825D5
:1090300030347800426567696E206F662067726F12
:1090400075702C2068616E646C6520307825303432
:10905000780000002DE9F04F87B09346109F8846B6
:1090600081461E464FF0040A012400253A4619465F
:1090700028A0FBF7BFFDBE4204D81EB1D9F82401D9
:10908000009033E001233EE06846FCF7CDFDBDF8DB
:10909000080070B3B8422CD8B04227D3BDF80610F0
:1090A000880501D5102000E00220012C02D9A84239
:1090B00021D109E008D10546880501D5022100E04B
:1090C000012188F8011002246019801C584510D82D
:1090D000BDF8081028F80410A41CA4B208EB040082
:1090E0002A460399FBF744F9601984B200980028D6
:1090F000CAD1012C06D0052088F80000204607B010
:10910000BDE8F08F0A2332465146404615F06AFE0C
:10911000F5E700004154545F46494E445F494E46CE
:109120004F524D4154494F4E5F524551554553544E
:109130003A2066726F6D202530345820746F2025D8
:10914000303458002DE9F04F2C4C8346B1F80150D3
:10915000B1F803A0A06889B0984691460E4616273C
:1091600058B12A4602A95846FCF753FC38B1BDF85D
:109170000E00010701D5C00503D403231DE0012320
:109180001BE002A95846FDF7CDF808B1034614E0EC
:10919000A9F10500711D80B2CDE90010D4F808C016
:1091A000BBF80601534601222946E04710F0FF03B1
:1091B00019D0072B09D00D2B07D02A463946404637
:1091C00015F010FE09B0BDE8F08F0D2B02D0072B73
:1091D00006D008E020780D2805D02370658002E0D5
:1091E00020780028F9D04A4631464046FBF7C0F8BF
:1091F000172188F800104846E4E7000030000020FE
:109200002DE9F04387B016460E9D0C460746994659
:109210004FF00C082A46194625A0FBF7EBFC4A46FE
:1092200001A93846FCF7F5FB28B1BDF80A00800714
:1092300003D4022307E0012305E001A93846FDF726
:1092400071F8030007D04A464146204615F0CAFD92
:1092500007B0BDE8F083B7F8061101A8FDF74CF898
:10926000BDF81400A0F57F41FF3902D10020ADF810
:10927000140080B2A84201D20723E4E7401C401B3F
:10928000B04203DD7019401EADF81400B7F80601B6
:109290000090BDF81400621C401B83B2294601A84F
:1092A000FCF748FA401C0D2180B22170D0E7000085
:1092B0004154545F524541445F424C4F425F5245D6
:1092C00051554553543A2068616E646C65202530D1
:1092D00034782C206F666673657420257500000055
:1092E0002DE9FF4F89B00024DDF858901020CDE91A
:1092F00006041E468A460125A0460894A3464A460F
:10930000314643480B9BFBF775FC4E4513D896B18D
:10931000DDE91707022810D0384602F02BF840B1DB
:10932000B7F80C004FF42057B84208D0791C884297
:1093300005D0102366E0012364E03888F2E709983D
:10934000D0F82401009050E06846FCF76DFCBDF8B1
:10935000080008B1B04248D3484549D8B8F1000FD9
:1093600023D050B139466846FCF7A7FC28B942F62D
:1093700001016846FCF7A1FCB8B108992AF805106C
:10938000AD1CA8B22AF800B0801C85B20AEB05001B
:10939000221F0799FAF7ECFF2819001F85B20B98D6
:1093A00029194FF00008814222D8BDF808005FEA71
:1093B000000B1AD0DDE917216846FCF759FCA0B173
:1093C000BDF81000001D80B2012D02D9A04211D1BC
:1093D00004E003D104468AF801000225BDF8080024
:1093E000089005984FF00108079000980028ABD12D
:1093F000012D06D011208AF8000028460DB0BDE8E6
:10940000F08F0A2332465046069915F0EBFCF5E73B
:109410002C2402002DE9FF4F87B08846149F814617
:109420004FF0000A1D464FF0080B012456463A46FD
:1094300019463FA0FBF7DEFBBD4204D81DB1D9F8A9
:10944000240101905CE0012366E001A8FCF7ECFB3D
:10945000BDF80C00E8B3A84252D3B84253D8DDE9B6
:10946000152101A8FCF704FCA0B3BDF80A00800791
:1094700003D47EBBBDF80C6042E001A94846FCF76E
:1094800051FF030002D0012C3FD845E0B9F8061186
:1094900001A8FCF731FFBDF81400A0F57F41FF39AA
:1094A0002ED0801C80B2012C02D982452DD104E03F
:1094B00003D1824688F801000224099804EB0A01CE
:1094C00081420AD9022C20D8001FADF81400801C5C
:1094D00001E018E014E088F80100BDF80C1028F84D
:1094E0000410B9F80601A41C0090A4B2BDF8143011
:1094F00008EB0402002101A8FCF71CF9204484B207
:1095000001980028A1D1012C08D9092188F8001060
:1095100020460BB0BDE8F08F2A4602E036B10223A8
:1095200032465946404615F05DFCF2E70A23F3E760
:109530004154545F524541445F42595F545950452C
:109540005F524551554553543A2066726F6D202540
:1095500030345820746F20253034582C20747970A2
:10956000653A20002DE9FF4F87B0884683461F46A5
:109570004FF00E090124194628A0DDF850A0FBF792
:1095800039FB002543E000BF3AF815605EB1324672
:1095900001A95846FCF73DFA28B1BDF80A0080073A
:1095A00003D4022307E0012305E001A95846FCF794
:1095B000B9FE030007D032464946404615F012FC7A
:1095C0000BB0BDE8F08FBBF8061101A8FCF794FEC4
:1095D000BDF81400A0F57F41FF3902D10020ADF89D
:1095E000140080B201190998814202D9401EADF8D9
:1095F0001400BBF806010090BDF8143008EB04021B
:10960000002101A8FCF796F8204484B26D1CBD42ED
:10961000BADB0F2188F800102046D1E74154545F8F
:10962000524541445F4D554C5449504C455F52455D
:1096300051554553543A206E756D2068616E646CC7
:1096400065732025750000002DE9F04387B01546AD
:109650000C46064699464FF00A081A4601A9FCF73F
:10966000D8F9074649461EA0FBF7C4FA2FB1BDF84A
:109670000A00800703D4022307E0012305E001A9C3
:109680003046FCF74FFE030007D04A4641462046CD
:1096900015F0A8FB07B0BDE8F083B6F8061101A8E5
:1096A000FCF72AFEBDF814004FF6FF71884201D185
:1096B0000846EFE7401CA84202D96D1EADF81450D1
:1096C000B6F806010090BDF81430621C002101A814
:1096D000FCF730F8401C0B2180B22170DAE7000063
:1096E0004154545F524541445F524551554553548E
:1096F0003A2068616E646C65202530347800000083
:109700002DE9F041154F8046B1F80150B86888B096
:1097100016460C4600281ED02A4602A94046FCF7F1
:1097200078F9002817D0BDF80E00C10513D5400701
:1097300011D502A94046FCF7F5FD00280BD1F61E15
:10974000E41CB0B2CDE900400023BC68B8F80601C3
:109750001A462946A04708B0BDE8F0813000002035
:109760002DE9F047B1F8015088B090460C461E46EE
:1097700081464FF0120A2A4602A9FCF74AF950B175
:10978000164FB86828B1BDF80E00010701D5C00515
:1097900003D4032316E0012314E002A94846FCF792
:1097A000C1FD03000ED1A8F1030080B2E41CCDE995
:1097B0000040BC68B9F806011A462946A04710F0D7
:1097C000FF0307D02A465146304615F00BFB08B080
:1097D000BDE8F087132030700120F8E7300000204A
:1097E000AFF300802DE9F0411E4F002600F1130475
:1097F00097F824103546491C87F82410017CB9B12C
:10980000012923D0032917D0042925D040F2A11221
:1098100015A10020FBF74CFF0E202070E81C6070A3
:1098200097F82400A070A4F80360681DBDE8F081DB
:10983000806811491B3804E080681049A0F5403069
:109840002B3801EBC00046884578E5E780680C4975
:10985000A0F580301A38F4E780680A49A0F10410B6
:10986000EFE7000018080020626C655F68636963B9
:109870005F6D73672E6300006031020000320200EA
:1098800008330200F83302002DE9F0411F4F05466E
:1098900000F1120497F824000026401C87F82400E9
:1098A000287CC0B1012820D0032817D0042824D058
:1098B00040F2553216A10020FBF7FAFE0F2020706F
:1098C00004206070287EA07097F82400E070A680C5
:1098D0000620BDE8F0811249A86801E01149A86896
:1098E00001EBC00030F8D66CE8E70F49A86801EB3F
:1098F000C000A0F50020CE3806E00C49A86801EBB6
:10990000C000A0F500101E380688D7E71808002010
:10991000626C655F686369635F6D73672E630000E7
:10992000603102000032020008330200F833020006
:109930001A210175012141750320704710B5837EFE
:109940004FF6FF7404EA0333048B016AC4F30B047B
:10995000828B23438B82808BC882101D10BD052211
:1099600082750422C275428BA0F81920017FC1764E
:109970000620704701230178002200F059B800004A
:1099800010B50488A0F11801BCB1084613F004FF1B
:109990000623012205210A4813F0EAFF0949B1F81C
:1099A000382191F83A1142EA812101800221817027
:1099B0008480BDE8104014F04DB90122CA60F8E778
:1099C0002F00010018080020FF21C17000218171C3
:1099D00014F040B942F23401A0F853100021017193
:1099E00081717F21C17114F035B942F25001A0F8A4
:1099F00053107F228379C11D5A5414F02BB9FF21D3
:109A0000417000218170FFF7DFBF0123018804222C
:109A100000F00EB842F21E01A0F853100121C170EF
:109A20000021017181717F21C17114F013B900000F
:109A300070B5044618381546994207D242EA01210A
:109A4000C1602046BDE8704014F004B913F0A4FED4
:109A500006484222B0F8381190F83A0141EA8020D5
:109A600081B22846BDE8704000F01CBB18080020F9
:109A7000082282750422C275428BA0F81920017F4A
:109A8000C17606207047302181750321C17500F130
:109A90001901408B08800520704700F0DEBB00F004
:109AA000DBBBF0B58FB0044610F8011B8DF8001039
:109AB00001788DF8011041788DF8021050F8021FDE
:109AC000CDF803108188ADF8071000228579C01DFC
:109AD000114601276B4607FA01F62E4205D002EB2C
